{
  "_format": "hh-sol-artifact-1",
  "contractName": "DID",
  "sourceName": "contracts/DID.sol",
  "abi": [
    {
      "anonymous": false,
      "inputs": [
        {
          "indexed": false,
          "internalType": "string",
          "name": "did",
          "type": "string"
        },
        {
          "indexed": true,
          "internalType": "address",
          "name": "owner",
          "type": "address"
        },
        {
          "indexed": false,
          "internalType": "uint256",
          "name": "timestamp",
          "type": "uint256"
        }
      ],
      "name": "DeactivateDID",
      "type": "event"
    },
    {
      "anonymous": false,
      "inputs": [
        {
          "indexed": false,
          "internalType": "string",
          "name": "vcId",
          "type": "string"
        },
        {
          "indexed": true,
          "internalType": "address",
          "name": "issuer",
          "type": "address"
        },
        {
          "indexed": false,
          "internalType": "uint256",
          "name": "timestamp",
          "type": "uint256"
        }
      ],
      "name": "DeactivateVC",
      "type": "event"
    },
    {
      "anonymous": false,
      "inputs": [
        {
          "indexed": false,
          "internalType": "string",
          "name": "did",
          "type": "string"
        },
        {
          "indexed": true,
          "internalType": "address",
          "name": "owner",
          "type": "address"
        },
        {
          "indexed": false,
          "internalType": "string",
          "name": "name",
          "type": "string"
        },
        {
          "indexed": false,
          "internalType": "string",
          "name": "birthday",
          "type": "string"
        },
        {
          "indexed": false,
          "internalType": "string",
          "name": "personalID",
          "type": "string"
        },
        {
          "indexed": false,
          "internalType": "uint256",
          "name": "timestamp",
          "type": "uint256"
        }
      ],
      "name": "RegisterDID",
      "type": "event"
    },
    {
      "anonymous": false,
      "inputs": [
        {
          "indexed": false,
          "internalType": "string",
          "name": "vcId",
          "type": "string"
        },
        {
          "indexed": true,
          "internalType": "address",
          "name": "issuer",
          "type": "address"
        },
        {
          "indexed": false,
          "internalType": "string",
          "name": "subject",
          "type": "string"
        },
        {
          "indexed": false,
          "internalType": "string",
          "name": "claims",
          "type": "string"
        },
        {
          "indexed": false,
          "internalType": "uint256",
          "name": "timestamp",
          "type": "uint256"
        }
      ],
      "name": "RegisterVC",
      "type": "event"
    },
    {
      "anonymous": false,
      "inputs": [
        {
          "indexed": false,
          "internalType": "string",
          "name": "did",
          "type": "string"
        },
        {
          "indexed": true,
          "internalType": "address",
          "name": "owner",
          "type": "address"
        },
        {
          "indexed": false,
          "internalType": "string",
          "name": "name",
          "type": "string"
        },
        {
          "indexed": false,
          "internalType": "string",
          "name": "birthday",
          "type": "string"
        },
        {
          "indexed": false,
          "internalType": "string",
          "name": "personalID",
          "type": "string"
        },
        {
          "indexed": false,
          "internalType": "uint256",
          "name": "timestamp",
          "type": "uint256"
        }
      ],
      "name": "UpdateDID",
      "type": "event"
    },
    {
      "inputs": [
        {
          "internalType": "string",
          "name": "did",
          "type": "string"
        }
      ],
      "name": "deactivateDID",
      "outputs": [],
      "stateMutability": "nonpayable",
      "type": "function"
    },
    {
      "inputs": [
        {
          "internalType": "uint256",
          "name": "index",
          "type": "uint256"
        }
      ],
      "name": "getDIDAtIndex",
      "outputs": [
        {
          "internalType": "string",
          "name": "",
          "type": "string"
        }
      ],
      "stateMutability": "view",
      "type": "function"
    },
    {
      "inputs": [
        {
          "internalType": "string",
          "name": "did",
          "type": "string"
        }
      ],
      "name": "getDIDInfo",
      "outputs": [
        {
          "internalType": "address",
          "name": "owner",
          "type": "address"
        },
        {
          "internalType": "string",
          "name": "name",
          "type": "string"
        },
        {
          "internalType": "string",
          "name": "birthday",
          "type": "string"
        },
        {
          "internalType": "string",
          "name": "personalID",
          "type": "string"
        },
        {
          "internalType": "uint256",
          "name": "timestamp",
          "type": "uint256"
        },
        {
          "internalType": "bool",
          "name": "active",
          "type": "bool"
        }
      ],
      "stateMutability": "view",
      "type": "function"
    },
    {
      "inputs": [],
      "name": "getTotalDIDs",
      "outputs": [
        {
          "internalType": "uint256",
          "name": "",
          "type": "uint256"
        }
      ],
      "stateMutability": "view",
      "type": "function"
    },
    {
      "inputs": [
        {
          "internalType": "string",
          "name": "did",
          "type": "string"
        }
      ],
      "name": "isDIDRegistered",
      "outputs": [
        {
          "internalType": "bool",
          "name": "",
          "type": "bool"
        }
      ],
      "stateMutability": "view",
      "type": "function"
    },
    {
      "inputs": [
        {
          "internalType": "string",
          "name": "vcId",
          "type": "string"
        }
      ],
      "name": "isVCRegistered",
      "outputs": [
        {
          "internalType": "bool",
          "name": "",
          "type": "bool"
        }
      ],
      "stateMutability": "view",
      "type": "function"
    },
    {
      "inputs": [
        {
          "internalType": "string",
          "name": "did",
          "type": "string"
        },
        {
          "internalType": "string",
          "name": "name",
          "type": "string"
        },
        {
          "internalType": "string",
          "name": "birthday",
          "type": "string"
        },
        {
          "internalType": "string",
          "name": "personalID",
          "type": "string"
        }
      ],
      "name": "registerDID",
      "outputs": [],
      "stateMutability": "nonpayable",
      "type": "function"
    },
    {
      "inputs": [
        {
          "internalType": "string",
          "name": "vcId",
          "type": "string"
        },
        {
          "internalType": "string",
          "name": "subject",
          "type": "string"
        },
        {
          "internalType": "string",
          "name": "claims",
          "type": "string"
        }
      ],
      "name": "registerVC",
      "outputs": [],
      "stateMutability": "nonpayable",
      "type": "function"
    },
    {
      "inputs": [
        {
          "internalType": "string",
          "name": "did",
          "type": "string"
        },
        {
          "internalType": "string",
          "name": "newName",
          "type": "string"
        },
        {
          "internalType": "string",
          "name": "newBirthday",
          "type": "string"
        },
        {
          "internalType": "string",
          "name": "newPersonalID",
          "type": "string"
        }
      ],
      "name": "updateDID",
      "outputs": [],
      "stateMutability": "nonpayable",
      "type": "function"
    }
  ],
  "bytecode": "0x6080604052348015600f57600080fd5b50611cb08061001f6000396000f3fe608060405234801561001057600080fd5b50600436106100935760003560e01c80633b253b23116100665780633b253b23146101325780634a6888ce1461014e578063720127fa1461016a578063766ebdaf1461019f578063e857f180146101cf57610093565b80631de3f1dc14610098578063348b2171146100c857806337affd80146100f8578063390fe3e414610116575b600080fd5b6100b260048036038101906100ad91906110df565b6101eb565b6040516100bf9190611143565b60405180910390f35b6100e260048036038101906100dd91906110df565b610265565b6040516100ef9190611143565b60405180910390f35b6101006102df565b60405161010d9190611177565b60405180910390f35b610130600480360381019061012b9190611192565b6102ec565b005b61014c600480360381019061014791906110df565b61054d565b005b61016860048036038101906101639190611269565b6106f6565b005b610184600480360381019061017f91906110df565b610954565b604051610196969594939291906113d0565b60405180910390f35b6101b960048036038101906101b49190611472565b610c62565b6040516101c6919061149f565b60405180910390f35b6101e960048036038101906101e49190611192565b610d59565b005b60008073ffffffffffffffffffffffffffffffffffffffff1660008360405161021491906114fd565b908152602001604051809103902060000160009054906101000a900473ffffffffffffffffffffffffffffffffffffffff1673ffffffffffffffffffffffffffffffffffffffff1614159050919050565b60008073ffffffffffffffffffffffffffffffffffffffff1660018360405161028e91906114fd565b908152602001604051809103902060000160009054906101000a900473ffffffffffffffffffffffffffffffffffffffff1673ffffffffffffffffffffffffffffffffffffffff1614159050919050565b6000600280549050905090565b600073ffffffffffffffffffffffffffffffffffffffff1660008560405161031491906114fd565b908152602001604051809103902060000160009054906101000a900473ffffffffffffffffffffffffffffffffffffffff1673ffffffffffffffffffffffffffffffffffffffff161461039c576040517f08c379a000000000000000000000000000000000000000000000000000000000815260040161039390611560565b60405180910390fd5b60006040518060c001604052803373ffffffffffffffffffffffffffffffffffffffff168152602001858152602001848152602001838152602001428152602001600115158152509050806000866040516103f791906114fd565b908152602001604051809103902060008201518160000160006101000a81548173ffffffffffffffffffffffffffffffffffffffff021916908373ffffffffffffffffffffffffffffffffffffffff1602179055506020820151816001019081610461919061178c565b506040820151816002019081610477919061178c565b50606082015181600301908161048d919061178c565b506080820151816004015560a08201518160050160006101000a81548160ff0219169083151502179055509050506002859080600181540180825580915050600190039060005260206000200160009091909190915090816104ef919061178c565b503373ffffffffffffffffffffffffffffffffffffffff167fdce377b902ffb055074ef6c79cb6fedc8f075c596c8f5c9de32e14311d985550868686864260405161053e95949392919061185e565b60405180910390a25050505050565b3373ffffffffffffffffffffffffffffffffffffffff1660008260405161057491906114fd565b908152602001604051809103902060000160009054906101000a900473ffffffffffffffffffffffffffffffffffffffff1673ffffffffffffffffffffffffffffffffffffffff16146105fc576040517f08c379a00000000000000000000000000000000000000000000000000000000081526004016105f390611919565b60405180910390fd5b60008160405161060c91906114fd565b908152602001604051809103902060050160009054906101000a900460ff1661066a576040517f08c379a000000000000000000000000000000000000000000000000000000000815260040161066190611985565b60405180910390fd5b6000808260405161067b91906114fd565b908152602001604051809103902060050160006101000a81548160ff0219169083151502179055503373ffffffffffffffffffffffffffffffffffffffff167f7a51a12bb8efda1cce04348e0f68fd6b2549cc800e1e3cc44a4831177b1cd64f82426040516106eb9291906119a5565b60405180910390a250565b600073ffffffffffffffffffffffffffffffffffffffff1660018460405161071e91906114fd565b908152602001604051809103902060000160009054906101000a900473ffffffffffffffffffffffffffffffffffffffff1673ffffffffffffffffffffffffffffffffffffffff16146107a6576040517f08c379a000000000000000000000000000000000000000000000000000000000815260040161079d90611a21565b60405180910390fd5b60006040518060c001604052803373ffffffffffffffffffffffffffffffffffffffff1681526020018581526020018481526020018381526020014281526020016001151581525090508060018560405161080191906114fd565b908152602001604051809103902060008201518160000160006101000a81548173ffffffffffffffffffffffffffffffffffffffff021916908373ffffffffffffffffffffffffffffffffffffffff160217905550602082015181600101908161086b919061178c565b506040820151816002019081610881919061178c565b506060820151816003019081610897919061178c565b506080820151816004015560a08201518160050160006101000a81548160ff0219169083151502179055509050506003849080600181540180825580915050600190039060005260206000200160009091909190915090816108f9919061178c565b503373ffffffffffffffffffffffffffffffffffffffff167f46b7e26a85f2f08e0326b542e7f733da29b0d24698f150be9323b340ccab25e3858585426040516109469493929190611a41565b60405180910390a250505050565b600060608060606000806000808860405161096f91906114fd565b90815260200160405180910390206040518060c00160405290816000820160009054906101000a900473ffffffffffffffffffffffffffffffffffffffff1673ffffffffffffffffffffffffffffffffffffffff1673ffffffffffffffffffffffffffffffffffffffff1681526020016001820180546109ee906115af565b80601f0160208091040260200160405190810160405280929190818152602001828054610a1a906115af565b8015610a675780601f10610a3c57610100808354040283529160200191610a67565b820191906000526020600020905b815481529060010190602001808311610a4a57829003601f168201915b50505050508152602001600282018054610a80906115af565b80601f0160208091040260200160405190810160405280929190818152602001828054610aac906115af565b8015610af95780601f10610ace57610100808354040283529160200191610af9565b820191906000526020600020905b815481529060010190602001808311610adc57829003601f168201915b50505050508152602001600382018054610b12906115af565b80601f0160208091040260200160405190810160405280929190818152602001828054610b3e906115af565b8015610b8b5780601f10610b6057610100808354040283529160200191610b8b565b820191906000526020600020905b815481529060010190602001808311610b6e57829003601f168201915b50505050508152602001600482015481526020016005820160009054906101000a900460ff1615151515815250509050600073ffffffffffffffffffffffffffffffffffffffff16816000015173ffffffffffffffffffffffffffffffffffffffff1603610c2e576040517f08c379a0000000000000000000000000000000000000000000000000000000008152600401610c2590611ae7565b60405180910390fd5b806000015181602001518260400151836060015184608001518560a001519650965096509650965096505091939550919395565b60606002805490508210610cab576040517f08c379a0000000000000000000000000000000000000000000000000000000008152600401610ca290611b53565b60405180910390fd5b60028281548110610cbf57610cbe611b73565b5b906000526020600020018054610cd4906115af565b80601f0160208091040260200160405190810160405280929190818152602001828054610d00906115af565b8015610d4d5780601f10610d2257610100808354040283529160200191610d4d565b820191906000526020600020905b815481529060010190602001808311610d3057829003601f168201915b50505050509050919050565b3373ffffffffffffffffffffffffffffffffffffffff16600085604051610d8091906114fd565b908152602001604051809103902060000160009054906101000a900473ffffffffffffffffffffffffffffffffffffffff1673ffffffffffffffffffffffffffffffffffffffff1614610e08576040517f08c379a0000000000000000000000000000000000000000000000000000000008152600401610dff90611bee565b60405180910390fd5b600084604051610e1891906114fd565b908152602001604051809103902060050160009054906101000a900460ff16610e76576040517f08c379a0000000000000000000000000000000000000000000000000000000008152600401610e6d90611c5a565b60405180910390fd5b82600085604051610e8791906114fd565b90815260200160405180910390206001019081610ea4919061178c565b5081600085604051610eb691906114fd565b90815260200160405180910390206002019081610ed3919061178c565b5080600085604051610ee591906114fd565b90815260200160405180910390206003019081610f02919061178c565b5042600085604051610f1491906114fd565b9081526020016040518091039020600401819055503373ffffffffffffffffffffffffffffffffffffffff167f389d5efe180a1dd51befaaa06c03610254b8723abdd405ed7ee59233b2012e3b8585858542604051610f7795949392919061185e565b60405180910390a250505050565b6000604051905090565b600080fd5b600080fd5b600080fd5b600080fd5b6000601f19601f8301169050919050565b7f4e487b7100000000000000000000000000000000000000000000000000000000600052604160045260246000fd5b610fec82610fa3565b810181811067ffffffffffffffff8211171561100b5761100a610fb4565b5b80604052505050565b600061101e610f85565b905061102a8282610fe3565b919050565b600067ffffffffffffffff82111561104a57611049610fb4565b5b61105382610fa3565b9050602081019050919050565b82818337600083830152505050565b600061108261107d8461102f565b611014565b90508281526020810184848401111561109e5761109d610f9e565b5b6110a9848285611060565b509392505050565b600082601f8301126110c6576110c5610f99565b5b81356110d684826020860161106f565b91505092915050565b6000602082840312156110f5576110f4610f8f565b5b600082013567ffffffffffffffff81111561111357611112610f94565b5b61111f848285016110b1565b91505092915050565b60008115159050919050565b61113d81611128565b82525050565b60006020820190506111586000830184611134565b92915050565b6000819050919050565b6111718161115e565b82525050565b600060208201905061118c6000830184611168565b92915050565b600080600080608085870312156111ac576111ab610f8f565b5b600085013567ffffffffffffffff8111156111ca576111c9610f94565b5b6111d6878288016110b1565b945050602085013567ffffffffffffffff8111156111f7576111f6610f94565b5b611203878288016110b1565b935050604085013567ffffffffffffffff81111561122457611223610f94565b5b611230878288016110b1565b925050606085013567ffffffffffffffff81111561125157611250610f94565b5b61125d878288016110b1565b91505092959194509250565b60008060006060848603121561128257611281610f8f565b5b600084013567ffffffffffffffff8111156112a05761129f610f94565b5b6112ac868287016110b1565b935050602084013567ffffffffffffffff8111156112cd576112cc610f94565b5b6112d9868287016110b1565b925050604084013567ffffffffffffffff8111156112fa576112f9610f94565b5b611306868287016110b1565b9150509250925092565b600073ffffffffffffffffffffffffffffffffffffffff82169050919050565b600061133b82611310565b9050919050565b61134b81611330565b82525050565b600081519050919050565b600082825260208201905092915050565b60005b8381101561138b578082015181840152602081019050611370565b60008484015250505050565b60006113a282611351565b6113ac818561135c565b93506113bc81856020860161136d565b6113c581610fa3565b840191505092915050565b600060c0820190506113e56000830189611342565b81810360208301526113f78188611397565b9050818103604083015261140b8187611397565b9050818103606083015261141f8186611397565b905061142e6080830185611168565b61143b60a0830184611134565b979650505050505050565b61144f8161115e565b811461145a57600080fd5b50565b60008135905061146c81611446565b92915050565b60006020828403121561148857611487610f8f565b5b60006114968482850161145d565b91505092915050565b600060208201905081810360008301526114b98184611397565b905092915050565b600081905092915050565b60006114d782611351565b6114e181856114c1565b93506114f181856020860161136d565b80840191505092915050565b600061150982846114cc565b915081905092915050565b7f44494420616c7265616479207265676973746572656400000000000000000000600082015250565b600061154a60168361135c565b915061155582611514565b602082019050919050565b600060208201905081810360008301526115798161153d565b9050919050565b7f4e487b7100000000000000000000000000000000000000000000000000000000600052602260045260246000fd5b600060028204905060018216806115c757607f821691505b6020821081036115da576115d9611580565b5b50919050565b60008190508160005260206000209050919050565b60006020601f8301049050919050565b600082821b905092915050565b6000600883026116427fffffffffffffffffffffffffffffffffffffffffffffffffffffffffffffffff82611605565b61164c8683611605565b95508019841693508086168417925050509392505050565b6000819050919050565b600061168961168461167f8461115e565b611664565b61115e565b9050919050565b6000819050919050565b6116a38361166e565b6116b76116af82611690565b848454611612565b825550505050565b600090565b6116cc6116bf565b6116d781848461169a565b505050565b5b818110156116fb576116f06000826116c4565b6001810190506116dd565b5050565b601f82111561174057611711816115e0565b61171a846115f5565b81016020851015611729578190505b61173d611735856115f5565b8301826116dc565b50505b505050565b600082821c905092915050565b600061176360001984600802611745565b1980831691505092915050565b600061177c8383611752565b9150826002028217905092915050565b61179582611351565b67ffffffffffffffff8111156117ae576117ad610fb4565b5b6117b882546115af565b6117c38282856116ff565b600060209050601f8311600181146117f657600084156117e4578287015190505b6117ee8582611770565b865550611856565b601f198416611804866115e0565b60005b8281101561182c57848901518255600182019150602085019450602081019050611807565b868310156118495784890151611845601f891682611752565b8355505b6001600288020188555050505b505050505050565b600060a08201905081810360008301526118788188611397565b9050818103602083015261188c8187611397565b905081810360408301526118a08186611397565b905081810360608301526118b48185611397565b90506118c36080830184611168565b9695505050505050565b7f4f6e6c79206f776e65722063616e206465616374697661746520444944000000600082015250565b6000611903601d8361135c565b915061190e826118cd565b602082019050919050565b60006020820190508181036000830152611932816118f6565b9050919050565b7f44494420697320616c726561647920696e616374697665000000000000000000600082015250565b600061196f60178361135c565b915061197a82611939565b602082019050919050565b6000602082019050818103600083015261199e81611962565b9050919050565b600060408201905081810360008301526119bf8185611397565b90506119ce6020830184611168565b9392505050565b7f564320616c726561647920726567697374657265640000000000000000000000600082015250565b6000611a0b60158361135c565b9150611a16826119d5565b602082019050919050565b60006020820190508181036000830152611a3a816119fe565b9050919050565b60006080820190508181036000830152611a5b8187611397565b90508181036020830152611a6f8186611397565b90508181036040830152611a838185611397565b9050611a926060830184611168565b95945050505050565b7f444944206e6f7420726567697374657265640000000000000000000000000000600082015250565b6000611ad160128361135c565b9150611adc82611a9b565b602082019050919050565b60006020820190508181036000830152611b0081611ac4565b9050919050565b7f496e646578206f7574206f6620626f756e647300000000000000000000000000600082015250565b6000611b3d60138361135c565b9150611b4882611b07565b602082019050919050565b60006020820190508181036000830152611b6c81611b30565b9050919050565b7f4e487b7100000000000000000000000000000000000000000000000000000000600052603260045260246000fd5b7f4f6e6c79206f776e65722063616e207570646174652044494400000000000000600082015250565b6000611bd860198361135c565b9150611be382611ba2565b602082019050919050565b60006020820190508181036000830152611c0781611bcb565b9050919050565b7f444944206973206e6f7420616374697665000000000000000000000000000000600082015250565b6000611c4460118361135c565b9150611c4f82611c0e565b602082019050919050565b60006020820190508181036000830152611c7381611c37565b905091905056fea26469706673582212200b99c3e7b5fff92b50e4b024fbd1e101b2bd2154b8f0c80ef42a8774b410d3a064736f6c634300081c0033",
  "linkReferences": {},
  "deployedLinkReferences": {}
}