{"contracts/DID.sol":{"DID":{"abi":[{"anonymous":false,"inputs":[{"indexed":false,"internalType":"string","name":"did","type":"string"},{"indexed":true,"internalType":"address","name":"owner","type":"address"},{"indexed":false,"internalType":"uint256","name":"timestamp","type":"uint256"}],"name":"DeactivateDID","type":"event"},{"anonymous":false,"inputs":[{"indexed":false,"internalType":"string","name":"did","type":"string"},{"indexed":true,"internalType":"address","name":"owner","type":"address"},{"indexed":false,"internalType":"string","name":"name","type":"string"},{"indexed":false,"internalType":"string","name":"birthday","type":"string"},{"indexed":false,"internalType":"string","name":"personalID","type":"string"},{"indexed":false,"internalType":"uint256","name":"timestamp","type":"uint256"}],"name":"RegisterDID","type":"event"},{"anonymous":false,"inputs":[{"indexed":false,"internalType":"string","name":"did","type":"string"},{"indexed":true,"internalType":"address","name":"owner","type":"address"},{"indexed":false,"internalType":"string","name":"name","type":"string"},{"indexed":false,"internalType":"string","name":"birthday","type":"string"},{"indexed":false,"internalType":"string","name":"personalID","type":"string"},{"indexed":false,"internalType":"uint256","name":"timestamp","type":"uint256"}],"name":"UpdateDID","type":"event"},{"inputs":[{"internalType":"string","name":"did","type":"string"}],"name":"deactivateDID","outputs":[],"stateMutability":"nonpayable","type":"function"},{"inputs":[{"internalType":"uint256","name":"index","type":"uint256"}],"name":"getDIDAtIndex","outputs":[{"internalType":"string","name":"","type":"string"}],"stateMutability":"view","type":"function"},{"inputs":[{"internalType":"string","name":"did","type":"string"}],"name":"getDIDInfo","outputs":[{"internalType":"address","name":"owner","type":"address"},{"internalType":"string","name":"name","type":"string"},{"internalType":"string","name":"birthday","type":"string"},{"internalType":"string","name":"personalID","type":"string"},{"internalType":"uint256","name":"timestamp","type":"uint256"},{"internalType":"bool","name":"active","type":"bool"}],"stateMutability":"view","type":"function"},{"inputs":[],"name":"getTotalDIDs","outputs":[{"internalType":"uint256","name":"","type":"uint256"}],"stateMutability":"view","type":"function"},{"inputs":[{"internalType":"string","name":"did","type":"string"}],"name":"isDIDRegistered","outputs":[{"internalType":"bool","name":"","type":"bool"}],"stateMutability":"view","type":"function"},{"inputs":[{"internalType":"string","name":"did","type":"string"},{"internalType":"string","name":"name","type":"string"},{"internalType":"string","name":"birthday","type":"string"},{"internalType":"string","name":"personalID","type":"string"}],"name":"registerDID","outputs":[],"stateMutability":"nonpayable","type":"function"},{"inputs":[{"internalType":"string","name":"did","type":"string"},{"internalType":"string","name":"newName","type":"string"},{"internalType":"string","name":"newBirthday","type":"string"},{"internalType":"string","name":"newPersonalID","type":"string"}],"name":"updateDID","outputs":[],"stateMutability":"nonpayable","type":"function"}],"evm":{"bytecode":{"linkReferences":{},"object":"6080604052348015600f57600080fd5b506118098061001f6000396000f3fe608060405234801561001057600080fd5b506004361061007d5760003560e01c80633b253b231161005b5780633b253b23146100ec578063720127fa14610108578063766ebdaf1461013d578063e857f1801461016d5761007d565b80631de3f1dc1461008257806337affd80146100b2578063390fe3e4146100d0575b600080fd5b61009c60048036038101906100979190610da5565b610189565b6040516100a99190610e09565b60405180910390f35b6100ba610203565b6040516100c79190610e3d565b60405180910390f35b6100ea60048036038101906100e59190610e58565b610210565b005b61010660048036038101906101019190610da5565b610471565b005b610122600480360381019061011d9190610da5565b61061a565b60405161013496959493929190610fef565b60405180910390f35b61015760048036038101906101529190611091565b610928565b60405161016491906110be565b60405180910390f35b61018760048036038101906101829190610e58565b610a1f565b005b60008073ffffffffffffffffffffffffffffffffffffffff166000836040516101b2919061111c565b908152602001604051809103902060000160009054906101000a900473ffffffffffffffffffffffffffffffffffffffff1673ffffffffffffffffffffffffffffffffffffffff1614159050919050565b6000600180549050905090565b600073ffffffffffffffffffffffffffffffffffffffff16600085604051610238919061111c565b908152602001604051809103902060000160009054906101000a900473ffffffffffffffffffffffffffffffffffffffff1673ffffffffffffffffffffffffffffffffffffffff16146102c0576040517f08c379a00000000000000000000000000000000000000000000000000000000081526004016102b79061117f565b60405180910390fd5b60006040518060c001604052803373ffffffffffffffffffffffffffffffffffffffff1681526020018581526020018481526020018381526020014281526020016001151581525090508060008660405161031b919061111c565b908152602001604051809103902060008201518160000160006101000a81548173ffffffffffffffffffffffffffffffffffffffff021916908373ffffffffffffffffffffffffffffffffffffffff160217905550602082015181600101908161038591906113ab565b50604082015181600201908161039b91906113ab565b5060608201518160030190816103b191906113ab565b506080820151816004015560a08201518160050160006101000a81548160ff02191690831515021790555090505060018590806001815401808255809150506001900390600052602060002001600090919091909150908161041391906113ab565b503373ffffffffffffffffffffffffffffffffffffffff167fdce377b902ffb055074ef6c79cb6fedc8f075c596c8f5c9de32e14311d985550868686864260405161046295949392919061147d565b60405180910390a25050505050565b3373ffffffffffffffffffffffffffffffffffffffff16600082604051610498919061111c565b908152602001604051809103902060000160009054906101000a900473ffffffffffffffffffffffffffffffffffffffff1673ffffffffffffffffffffffffffffffffffffffff1614610520576040517f08c379a000000000000000000000000000000000000000000000000000000000815260040161051790611538565b60405180910390fd5b600081604051610530919061111c565b908152602001604051809103902060050160009054906101000a900460ff1661058e576040517f08c379a0000000000000000000000000000000000000000000000000000000008152600401610585906115a4565b60405180910390fd5b6000808260405161059f919061111c565b908152602001604051809103902060050160006101000a81548160ff0219169083151502179055503373ffffffffffffffffffffffffffffffffffffffff167f7a51a12bb8efda1cce04348e0f68fd6b2549cc800e1e3cc44a4831177b1cd64f824260405161060f9291906115c4565b60405180910390a250565b6000606080606060008060008088604051610635919061111c565b90815260200160405180910390206040518060c00160405290816000820160009054906101000a900473ffffffffffffffffffffffffffffffffffffffff1673ffffffffffffffffffffffffffffffffffffffff1673ffffffffffffffffffffffffffffffffffffffff1681526020016001820180546106b4906111ce565b80601f01602080910402602001604051908101604052809291908181526020018280546106e0906111ce565b801561072d5780601f106107025761010080835404028352916020019161072d565b820191906000526020600020905b81548152906001019060200180831161071057829003601f168201915b50505050508152602001600282018054610746906111ce565b80601f0160208091040260200160405190810160405280929190818152602001828054610772906111ce565b80156107bf5780601f10610794576101008083540402835291602001916107bf565b820191906000526020600020905b8154815290600101906020018083116107a257829003601f168201915b505050505081526020016003820180546107d8906111ce565b80601f0160208091040260200160405190810160405280929190818152602001828054610804906111ce565b80156108515780601f1061082657610100808354040283529160200191610851565b820191906000526020600020905b81548152906001019060200180831161083457829003601f168201915b50505050508152602001600482015481526020016005820160009054906101000a900460ff1615151515815250509050600073ffffffffffffffffffffffffffffffffffffffff16816000015173ffffffffffffffffffffffffffffffffffffffff16036108f4576040517f08c379a00000000000000000000000000000000000000000000000000000000081526004016108eb90611640565b60405180910390fd5b806000015181602001518260400151836060015184608001518560a001519650965096509650965096505091939550919395565b60606001805490508210610971576040517f08c379a0000000000000000000000000000000000000000000000000000000008152600401610968906116ac565b60405180910390fd5b60018281548110610985576109846116cc565b5b90600052602060002001805461099a906111ce565b80601f01602080910402602001604051908101604052809291908181526020018280546109c6906111ce565b8015610a135780601f106109e857610100808354040283529160200191610a13565b820191906000526020600020905b8154815290600101906020018083116109f657829003601f168201915b50505050509050919050565b3373ffffffffffffffffffffffffffffffffffffffff16600085604051610a46919061111c565b908152602001604051809103902060000160009054906101000a900473ffffffffffffffffffffffffffffffffffffffff1673ffffffffffffffffffffffffffffffffffffffff1614610ace576040517f08c379a0000000000000000000000000000000000000000000000000000000008152600401610ac590611747565b60405180910390fd5b600084604051610ade919061111c565b908152602001604051809103902060050160009054906101000a900460ff16610b3c576040517f08c379a0000000000000000000000000000000000000000000000000000000008152600401610b33906117b3565b60405180910390fd5b82600085604051610b4d919061111c565b90815260200160405180910390206001019081610b6a91906113ab565b5081600085604051610b7c919061111c565b90815260200160405180910390206002019081610b9991906113ab565b5080600085604051610bab919061111c565b90815260200160405180910390206003019081610bc891906113ab565b5042600085604051610bda919061111c565b9081526020016040518091039020600401819055503373ffffffffffffffffffffffffffffffffffffffff167f389d5efe180a1dd51befaaa06c03610254b8723abdd405ed7ee59233b2012e3b8585858542604051610c3d95949392919061147d565b60405180910390a250505050565b6000604051905090565b600080fd5b600080fd5b600080fd5b600080fd5b6000601f19601f8301169050919050565b7f4e487b7100000000000000000000000000000000000000000000000000000000600052604160045260246000fd5b610cb282610c69565b810181811067ffffffffffffffff82111715610cd157610cd0610c7a565b5b80604052505050565b6000610ce4610c4b565b9050610cf08282610ca9565b919050565b600067ffffffffffffffff821115610d1057610d0f610c7a565b5b610d1982610c69565b9050602081019050919050565b82818337600083830152505050565b6000610d48610d4384610cf5565b610cda565b905082815260208101848484011115610d6457610d63610c64565b5b610d6f848285610d26565b509392505050565b600082601f830112610d8c57610d8b610c5f565b5b8135610d9c848260208601610d35565b91505092915050565b600060208284031215610dbb57610dba610c55565b5b600082013567ffffffffffffffff811115610dd957610dd8610c5a565b5b610de584828501610d77565b91505092915050565b60008115159050919050565b610e0381610dee565b82525050565b6000602082019050610e1e6000830184610dfa565b92915050565b6000819050919050565b610e3781610e24565b82525050565b6000602082019050610e526000830184610e2e565b92915050565b60008060008060808587031215610e7257610e71610c55565b5b600085013567ffffffffffffffff811115610e9057610e8f610c5a565b5b610e9c87828801610d77565b945050602085013567ffffffffffffffff811115610ebd57610ebc610c5a565b5b610ec987828801610d77565b935050604085013567ffffffffffffffff811115610eea57610ee9610c5a565b5b610ef687828801610d77565b925050606085013567ffffffffffffffff811115610f1757610f16610c5a565b5b610f2387828801610d77565b91505092959194509250565b600073ffffffffffffffffffffffffffffffffffffffff82169050919050565b6000610f5a82610f2f565b9050919050565b610f6a81610f4f565b82525050565b600081519050919050565b600082825260208201905092915050565b60005b83811015610faa578082015181840152602081019050610f8f565b60008484015250505050565b6000610fc182610f70565b610fcb8185610f7b565b9350610fdb818560208601610f8c565b610fe481610c69565b840191505092915050565b600060c0820190506110046000830189610f61565b81810360208301526110168188610fb6565b9050818103604083015261102a8187610fb6565b9050818103606083015261103e8186610fb6565b905061104d6080830185610e2e565b61105a60a0830184610dfa565b979650505050505050565b61106e81610e24565b811461107957600080fd5b50565b60008135905061108b81611065565b92915050565b6000602082840312156110a7576110a6610c55565b5b60006110b58482850161107c565b91505092915050565b600060208201905081810360008301526110d88184610fb6565b905092915050565b600081905092915050565b60006110f682610f70565b61110081856110e0565b9350611110818560208601610f8c565b80840191505092915050565b600061112882846110eb565b915081905092915050565b7f44494420616c7265616479207265676973746572656400000000000000000000600082015250565b6000611169601683610f7b565b915061117482611133565b602082019050919050565b600060208201905081810360008301526111988161115c565b9050919050565b7f4e487b7100000000000000000000000000000000000000000000000000000000600052602260045260246000fd5b600060028204905060018216806111e657607f821691505b6020821081036111f9576111f861119f565b5b50919050565b60008190508160005260206000209050919050565b60006020601f8301049050919050565b600082821b905092915050565b6000600883026112617fffffffffffffffffffffffffffffffffffffffffffffffffffffffffffffffff82611224565b61126b8683611224565b95508019841693508086168417925050509392505050565b6000819050919050565b60006112a86112a361129e84610e24565b611283565b610e24565b9050919050565b6000819050919050565b6112c28361128d565b6112d66112ce826112af565b848454611231565b825550505050565b600090565b6112eb6112de565b6112f68184846112b9565b505050565b5b8181101561131a5761130f6000826112e3565b6001810190506112fc565b5050565b601f82111561135f57611330816111ff565b61133984611214565b81016020851015611348578190505b61135c61135485611214565b8301826112fb565b50505b505050565b600082821c905092915050565b600061138260001984600802611364565b1980831691505092915050565b600061139b8383611371565b9150826002028217905092915050565b6113b482610f70565b67ffffffffffffffff8111156113cd576113cc610c7a565b5b6113d782546111ce565b6113e282828561131e565b600060209050601f8311600181146114155760008415611403578287015190505b61140d858261138f565b865550611475565b601f198416611423866111ff565b60005b8281101561144b57848901518255600182019150602085019450602081019050611426565b868310156114685784890151611464601f891682611371565b8355505b6001600288020188555050505b505050505050565b600060a08201905081810360008301526114978188610fb6565b905081810360208301526114ab8187610fb6565b905081810360408301526114bf8186610fb6565b905081810360608301526114d38185610fb6565b90506114e26080830184610e2e565b9695505050505050565b7f4f6e6c79206f776e65722063616e206465616374697661746520444944000000600082015250565b6000611522601d83610f7b565b915061152d826114ec565b602082019050919050565b6000602082019050818103600083015261155181611515565b9050919050565b7f44494420697320616c726561647920696e616374697665000000000000000000600082015250565b600061158e601783610f7b565b915061159982611558565b602082019050919050565b600060208201905081810360008301526115bd81611581565b9050919050565b600060408201905081810360008301526115de8185610fb6565b90506115ed6020830184610e2e565b9392505050565b7f444944206e6f7420726567697374657265640000000000000000000000000000600082015250565b600061162a601283610f7b565b9150611635826115f4565b602082019050919050565b600060208201905081810360008301526116598161161d565b9050919050565b7f496e646578206f7574206f6620626f756e647300000000000000000000000000600082015250565b6000611696601383610f7b565b91506116a182611660565b602082019050919050565b600060208201905081810360008301526116c581611689565b9050919050565b7f4e487b7100000000000000000000000000000000000000000000000000000000600052603260045260246000fd5b7f4f6e6c79206f776e65722063616e207570646174652044494400000000000000600082015250565b6000611731601983610f7b565b915061173c826116fb565b602082019050919050565b6000602082019050818103600083015261176081611724565b9050919050565b7f444944206973206e6f7420616374697665000000000000000000000000000000600082015250565b600061179d601183610f7b565b91506117a882611767565b602082019050919050565b600060208201905081810360008301526117cc81611790565b905091905056fea26469706673582212206adc08620d406a7e92f21d0b76f2b1b6e87586425a49ee2b9ac3c16671c3475264736f6c634300081c0033","opcodes":"PUSH1 0x80 PUSH1 0x40 MSTORE CALLVALUE DUP1 ISZERO PUSH1 0xF JUMPI PUSH1 0x0 DUP1 REVERT JUMPDEST POP PUSH2 0x1809 DUP1 PUSH2 0x1F PUSH1 0x0 CODECOPY PUSH1 0x0 RETURN INVALID PUSH1 0x80 PUSH1 0x40 MSTORE CALLVALUE DUP1 ISZERO PUSH2 0x10 JUMPI PUSH1 0x0 DUP1 REVERT JUMPDEST POP PUSH1 0x4 CALLDATASIZE LT PUSH2 0x7D JUMPI PUSH1 0x0 CALLDATALOAD PUSH1 0xE0 SHR DUP1 PUSH4 0x3B253B23 GT PUSH2 0x5B JUMPI DUP1 PUSH4 0x3B253B23 EQ PUSH2 0xEC JUMPI DUP1 PUSH4 0x720127FA EQ PUSH2 0x108 JUMPI DUP1 PUSH4 0x766EBDAF EQ PUSH2 0x13D JUMPI DUP1 PUSH4 0xE857F180 EQ PUSH2 0x16D JUMPI PUSH2 0x7D JUMP JUMPDEST DUP1 PUSH4 0x1DE3F1DC EQ PUSH2 0x82 JUMPI DUP1 PUSH4 0x37AFFD80 EQ PUSH2 0xB2 JUMPI DUP1 PUSH4 0x390FE3E4 EQ PUSH2 0xD0 JUMPI JUMPDEST PUSH1 0x0 DUP1 REVERT JUMPDEST PUSH2 0x9C PUSH1 0x4 DUP1 CALLDATASIZE SUB DUP2 ADD SWAP1 PUSH2 0x97 SWAP2 SWAP1 PUSH2 0xDA5 JUMP JUMPDEST PUSH2 0x189 JUMP JUMPDEST PUSH1 0x40 MLOAD PUSH2 0xA9 SWAP2 SWAP1 PUSH2 0xE09 JUMP JUMPDEST PUSH1 0x40 MLOAD DUP1 SWAP2 SUB SWAP1 RETURN JUMPDEST PUSH2 0xBA PUSH2 0x203 JUMP JUMPDEST PUSH1 0x40 MLOAD PUSH2 0xC7 SWAP2 SWAP1 PUSH2 0xE3D JUMP JUMPDEST PUSH1 0x40 MLOAD DUP1 SWAP2 SUB SWAP1 RETURN JUMPDEST PUSH2 0xEA PUSH1 0x4 DUP1 CALLDATASIZE SUB DUP2 ADD SWAP1 PUSH2 0xE5 SWAP2 SWAP1 PUSH2 0xE58 JUMP JUMPDEST PUSH2 0x210 JUMP JUMPDEST STOP JUMPDEST PUSH2 0x106 PUSH1 0x4 DUP1 CALLDATASIZE SUB DUP2 ADD SWAP1 PUSH2 0x101 SWAP2 SWAP1 PUSH2 0xDA5 JUMP JUMPDEST PUSH2 0x471 JUMP JUMPDEST STOP JUMPDEST PUSH2 0x122 PUSH1 0x4 DUP1 CALLDATASIZE SUB DUP2 ADD SWAP1 PUSH2 0x11D SWAP2 SWAP1 PUSH2 0xDA5 JUMP JUMPDEST PUSH2 0x61A JUMP JUMPDEST PUSH1 0x40 MLOAD PUSH2 0x134 SWAP7 SWAP6 SWAP5 SWAP4 SWAP3 SWAP2 SWAP1 PUSH2 0xFEF JUMP JUMPDEST PUSH1 0x40 MLOAD DUP1 SWAP2 SUB SWAP1 RETURN JUMPDEST PUSH2 0x157 PUSH1 0x4 DUP1 CALLDATASIZE SUB DUP2 ADD SWAP1 PUSH2 0x152 SWAP2 SWAP1 PUSH2 0x1091 JUMP JUMPDEST PUSH2 0x928 JUMP JUMPDEST PUSH1 0x40 MLOAD PUSH2 0x164 SWAP2 SWAP1 PUSH2 0x10BE JUMP JUMPDEST PUSH1 0x40 MLOAD DUP1 SWAP2 SUB SWAP1 RETURN JUMPDEST PUSH2 0x187 PUSH1 0x4 DUP1 CALLDATASIZE SUB DUP2 ADD SWAP1 PUSH2 0x182 SWAP2 SWAP1 PUSH2 0xE58 JUMP JUMPDEST PUSH2 0xA1F JUMP JUMPDEST STOP JUMPDEST PUSH1 0x0 DUP1 PUSH20 0xFFFFFFFFFFFFFFFFFFFFFFFFFFFFFFFFFFFFFFFF AND PUSH1 0x0 DUP4 PUSH1 0x40 MLOAD PUSH2 0x1B2 SWAP2 SWAP1 PUSH2 0x111C JUMP JUMPDEST SWAP1 DUP2 MSTORE PUSH1 0x20 ADD PUSH1 0x40 MLOAD DUP1 SWAP2 SUB SWAP1 KECCAK256 PUSH1 0x0 ADD PUSH1 0x0 SWAP1 SLOAD SWAP1 PUSH2 0x100 EXP SWAP1 DIV PUSH20 0xFFFFFFFFFFFFFFFFFFFFFFFFFFFFFFFFFFFFFFFF AND PUSH20 0xFFFFFFFFFFFFFFFFFFFFFFFFFFFFFFFFFFFFFFFF AND EQ ISZERO SWAP1 POP SWAP2 SWAP1 POP JUMP JUMPDEST PUSH1 0x0 PUSH1 0x1 DUP1 SLOAD SWAP1 POP SWAP1 POP SWAP1 JUMP JUMPDEST PUSH1 0x0 PUSH20 0xFFFFFFFFFFFFFFFFFFFFFFFFFFFFFFFFFFFFFFFF AND PUSH1 0x0 DUP6 PUSH1 0x40 MLOAD PUSH2 0x238 SWAP2 SWAP1 PUSH2 0x111C JUMP JUMPDEST SWAP1 DUP2 MSTORE PUSH1 0x20 ADD PUSH1 0x40 MLOAD DUP1 SWAP2 SUB SWAP1 KECCAK256 PUSH1 0x0 ADD PUSH1 0x0 SWAP1 SLOAD SWAP1 PUSH2 0x100 EXP SWAP1 DIV PUSH20 0xFFFFFFFFFFFFFFFFFFFFFFFFFFFFFFFFFFFFFFFF AND PUSH20 0xFFFFFFFFFFFFFFFFFFFFFFFFFFFFFFFFFFFFFFFF AND EQ PUSH2 0x2C0 JUMPI PUSH1 0x40 MLOAD PUSH32 0x8C379A000000000000000000000000000000000000000000000000000000000 DUP2 MSTORE PUSH1 0x4 ADD PUSH2 0x2B7 SWAP1 PUSH2 0x117F JUMP JUMPDEST PUSH1 0x40 MLOAD DUP1 SWAP2 SUB SWAP1 REVERT JUMPDEST PUSH1 0x0 PUSH1 0x40 MLOAD DUP1 PUSH1 0xC0 ADD PUSH1 0x40 MSTORE DUP1 CALLER PUSH20 0xFFFFFFFFFFFFFFFFFFFFFFFFFFFFFFFFFFFFFFFF AND DUP2 MSTORE PUSH1 0x20 ADD DUP6 DUP2 MSTORE PUSH1 0x20 ADD DUP5 DUP2 MSTORE PUSH1 0x20 ADD DUP4 DUP2 MSTORE PUSH1 0x20 ADD TIMESTAMP DUP2 MSTORE PUSH1 0x20 ADD PUSH1 0x1 ISZERO ISZERO DUP2 MSTORE POP SWAP1 POP DUP1 PUSH1 0x0 DUP7 PUSH1 0x40 MLOAD PUSH2 0x31B SWAP2 SWAP1 PUSH2 0x111C JUMP JUMPDEST SWAP1 DUP2 MSTORE PUSH1 0x20 ADD PUSH1 0x40 MLOAD DUP1 SWAP2 SUB SWAP1 KECCAK256 PUSH1 0x0 DUP3 ADD MLOAD DUP2 PUSH1 0x0 ADD PUSH1 0x0 PUSH2 0x100 EXP DUP2 SLOAD DUP2 PUSH20 0xFFFFFFFFFFFFFFFFFFFFFFFFFFFFFFFFFFFFFFFF MUL NOT AND SWAP1 DUP4 PUSH20 0xFFFFFFFFFFFFFFFFFFFFFFFFFFFFFFFFFFFFFFFF AND MUL OR SWAP1 SSTORE POP PUSH1 0x20 DUP3 ADD MLOAD DUP2 PUSH1 0x1 ADD SWAP1 DUP2 PUSH2 0x385 SWAP2 SWAP1 PUSH2 0x13AB JUMP JUMPDEST POP PUSH1 0x40 DUP3 ADD MLOAD DUP2 PUSH1 0x2 ADD SWAP1 DUP2 PUSH2 0x39B SWAP2 SWAP1 PUSH2 0x13AB JUMP JUMPDEST POP PUSH1 0x60 DUP3 ADD MLOAD DUP2 PUSH1 0x3 ADD SWAP1 DUP2 PUSH2 0x3B1 SWAP2 SWAP1 PUSH2 0x13AB JUMP JUMPDEST POP PUSH1 0x80 DUP3 ADD MLOAD DUP2 PUSH1 0x4 ADD SSTORE PUSH1 0xA0 DUP3 ADD MLOAD DUP2 PUSH1 0x5 ADD PUSH1 0x0 PUSH2 0x100 EXP DUP2 SLOAD DUP2 PUSH1 0xFF MUL NOT AND SWAP1 DUP4 ISZERO ISZERO MUL OR SWAP1 SSTORE POP SWAP1 POP POP PUSH1 0x1 DUP6 SWAP1 DUP1 PUSH1 0x1 DUP2 SLOAD ADD DUP1 DUP3 SSTORE DUP1 SWAP2 POP POP PUSH1 0x1 SWAP1 SUB SWAP1 PUSH1 0x0 MSTORE PUSH1 0x20 PUSH1 0x0 KECCAK256 ADD PUSH1 0x0 SWAP1 SWAP2 SWAP1 SWAP2 SWAP1 SWAP2 POP SWAP1 DUP2 PUSH2 0x413 SWAP2 SWAP1 PUSH2 0x13AB JUMP JUMPDEST POP CALLER PUSH20 0xFFFFFFFFFFFFFFFFFFFFFFFFFFFFFFFFFFFFFFFF AND PUSH32 0xDCE377B902FFB055074EF6C79CB6FEDC8F075C596C8F5C9DE32E14311D985550 DUP7 DUP7 DUP7 DUP7 TIMESTAMP PUSH1 0x40 MLOAD PUSH2 0x462 SWAP6 SWAP5 SWAP4 SWAP3 SWAP2 SWAP1 PUSH2 0x147D JUMP JUMPDEST PUSH1 0x40 MLOAD DUP1 SWAP2 SUB SWAP1 LOG2 POP POP POP POP POP JUMP JUMPDEST CALLER PUSH20 0xFFFFFFFFFFFFFFFFFFFFFFFFFFFFFFFFFFFFFFFF AND PUSH1 0x0 DUP3 PUSH1 0x40 MLOAD PUSH2 0x498 SWAP2 SWAP1 PUSH2 0x111C JUMP JUMPDEST SWAP1 DUP2 MSTORE PUSH1 0x20 ADD PUSH1 0x40 MLOAD DUP1 SWAP2 SUB SWAP1 KECCAK256 PUSH1 0x0 ADD PUSH1 0x0 SWAP1 SLOAD SWAP1 PUSH2 0x100 EXP SWAP1 DIV PUSH20 0xFFFFFFFFFFFFFFFFFFFFFFFFFFFFFFFFFFFFFFFF AND PUSH20 0xFFFFFFFFFFFFFFFFFFFFFFFFFFFFFFFFFFFFFFFF AND EQ PUSH2 0x520 JUMPI PUSH1 0x40 MLOAD PUSH32 0x8C379A000000000000000000000000000000000000000000000000000000000 DUP2 MSTORE PUSH1 0x4 ADD PUSH2 0x517 SWAP1 PUSH2 0x1538 JUMP JUMPDEST PUSH1 0x40 MLOAD DUP1 SWAP2 SUB SWAP1 REVERT JUMPDEST PUSH1 0x0 DUP2 PUSH1 0x40 MLOAD PUSH2 0x530 SWAP2 SWAP1 PUSH2 0x111C JUMP JUMPDEST SWAP1 DUP2 MSTORE PUSH1 0x20 ADD PUSH1 0x40 MLOAD DUP1 SWAP2 SUB SWAP1 KECCAK256 PUSH1 0x5 ADD PUSH1 0x0 SWAP1 SLOAD SWAP1 PUSH2 0x100 EXP SWAP1 DIV PUSH1 0xFF AND PUSH2 0x58E JUMPI PUSH1 0x40 MLOAD PUSH32 0x8C379A000000000000000000000000000000000000000000000000000000000 DUP2 MSTORE PUSH1 0x4 ADD PUSH2 0x585 SWAP1 PUSH2 0x15A4 JUMP JUMPDEST PUSH1 0x40 MLOAD DUP1 SWAP2 SUB SWAP1 REVERT JUMPDEST PUSH1 0x0 DUP1 DUP3 PUSH1 0x40 MLOAD PUSH2 0x59F SWAP2 SWAP1 PUSH2 0x111C JUMP JUMPDEST SWAP1 DUP2 MSTORE PUSH1 0x20 ADD PUSH1 0x40 MLOAD DUP1 SWAP2 SUB SWAP1 KECCAK256 PUSH1 0x5 ADD PUSH1 0x0 PUSH2 0x100 EXP DUP2 SLOAD DUP2 PUSH1 0xFF MUL NOT AND SWAP1 DUP4 ISZERO ISZERO MUL OR SWAP1 SSTORE POP CALLER PUSH20 0xFFFFFFFFFFFFFFFFFFFFFFFFFFFFFFFFFFFFFFFF AND PUSH32 0x7A51A12BB8EFDA1CCE04348E0F68FD6B2549CC800E1E3CC44A4831177B1CD64F DUP3 TIMESTAMP PUSH1 0x40 MLOAD PUSH2 0x60F SWAP3 SWAP2 SWAP1 PUSH2 0x15C4 JUMP JUMPDEST PUSH1 0x40 MLOAD DUP1 SWAP2 SUB SWAP1 LOG2 POP JUMP JUMPDEST PUSH1 0x0 PUSH1 0x60 DUP1 PUSH1 0x60 PUSH1 0x0 DUP1 PUSH1 0x0 DUP1 DUP9 PUSH1 0x40 MLOAD PUSH2 0x635 SWAP2 SWAP1 PUSH2 0x111C JUMP JUMPDEST SWAP1 DUP2 MSTORE PUSH1 0x20 ADD PUSH1 0x40 MLOAD DUP1 SWAP2 SUB SWAP1 KECCAK256 PUSH1 0x40 MLOAD DUP1 PUSH1 0xC0 ADD PUSH1 0x40 MSTORE SWAP1 DUP2 PUSH1 0x0 DUP3 ADD PUSH1 0x0 SWAP1 SLOAD SWAP1 PUSH2 0x100 EXP SWAP1 DIV PUSH20 0xFFFFFFFFFFFFFFFFFFFFFFFFFFFFFFFFFFFFFFFF AND PUSH20 0xFFFFFFFFFFFFFFFFFFFFFFFFFFFFFFFFFFFFFFFF AND PUSH20 0xFFFFFFFFFFFFFFFFFFFFFFFFFFFFFFFFFFFFFFFF AND DUP2 MSTORE PUSH1 0x20 ADD PUSH1 0x1 DUP3 ADD DUP1 SLOAD PUSH2 0x6B4 SWAP1 PUSH2 0x11CE JUMP JUMPDEST DUP1 PUSH1 0x1F ADD PUSH1 0x20 DUP1 SWAP2 DIV MUL PUSH1 0x20 ADD PUSH1 0x40 MLOAD SWAP1 DUP2 ADD PUSH1 0x40 MSTORE DUP1 SWAP3 SWAP2 SWAP1 DUP2 DUP2 MSTORE PUSH1 0x20 ADD DUP3 DUP1 SLOAD PUSH2 0x6E0 SWAP1 PUSH2 0x11CE JUMP JUMPDEST DUP1 ISZERO PUSH2 0x72D JUMPI DUP1 PUSH1 0x1F LT PUSH2 0x702 JUMPI PUSH2 0x100 DUP1 DUP4 SLOAD DIV MUL DUP4 MSTORE SWAP2 PUSH1 0x20 ADD SWAP2 PUSH2 0x72D JUMP JUMPDEST DUP3 ADD SWAP2 SWAP1 PUSH1 0x0 MSTORE PUSH1 0x20 PUSH1 0x0 KECCAK256 SWAP1 JUMPDEST DUP2 SLOAD DUP2 MSTORE SWAP1 PUSH1 0x1 ADD SWAP1 PUSH1 0x20 ADD DUP1 DUP4 GT PUSH2 0x710 JUMPI DUP3 SWAP1 SUB PUSH1 0x1F AND DUP3 ADD SWAP2 JUMPDEST POP POP POP POP POP DUP2 MSTORE PUSH1 0x20 ADD PUSH1 0x2 DUP3 ADD DUP1 SLOAD PUSH2 0x746 SWAP1 PUSH2 0x11CE JUMP JUMPDEST DUP1 PUSH1 0x1F ADD PUSH1 0x20 DUP1 SWAP2 DIV MUL PUSH1 0x20 ADD PUSH1 0x40 MLOAD SWAP1 DUP2 ADD PUSH1 0x40 MSTORE DUP1 SWAP3 SWAP2 SWAP1 DUP2 DUP2 MSTORE PUSH1 0x20 ADD DUP3 DUP1 SLOAD PUSH2 0x772 SWAP1 PUSH2 0x11CE JUMP JUMPDEST DUP1 ISZERO PUSH2 0x7BF JUMPI DUP1 PUSH1 0x1F LT PUSH2 0x794 JUMPI PUSH2 0x100 DUP1 DUP4 SLOAD DIV MUL DUP4 MSTORE SWAP2 PUSH1 0x20 ADD SWAP2 PUSH2 0x7BF JUMP JUMPDEST DUP3 ADD SWAP2 SWAP1 PUSH1 0x0 MSTORE PUSH1 0x20 PUSH1 0x0 KECCAK256 SWAP1 JUMPDEST DUP2 SLOAD DUP2 MSTORE SWAP1 PUSH1 0x1 ADD SWAP1 PUSH1 0x20 ADD DUP1 DUP4 GT PUSH2 0x7A2 JUMPI DUP3 SWAP1 SUB PUSH1 0x1F AND DUP3 ADD SWAP2 JUMPDEST POP POP POP POP POP DUP2 MSTORE PUSH1 0x20 ADD PUSH1 0x3 DUP3 ADD DUP1 SLOAD PUSH2 0x7D8 SWAP1 PUSH2 0x11CE JUMP JUMPDEST DUP1 PUSH1 0x1F ADD PUSH1 0x20 DUP1 SWAP2 DIV MUL PUSH1 0x20 ADD PUSH1 0x40 MLOAD SWAP1 DUP2 ADD PUSH1 0x40 MSTORE DUP1 SWAP3 SWAP2 SWAP1 DUP2 DUP2 MSTORE PUSH1 0x20 ADD DUP3 DUP1 SLOAD PUSH2 0x804 SWAP1 PUSH2 0x11CE JUMP JUMPDEST DUP1 ISZERO PUSH2 0x851 JUMPI DUP1 PUSH1 0x1F LT PUSH2 0x826 JUMPI PUSH2 0x100 DUP1 DUP4 SLOAD DIV MUL DUP4 MSTORE SWAP2 PUSH1 0x20 ADD SWAP2 PUSH2 0x851 JUMP JUMPDEST DUP3 ADD SWAP2 SWAP1 PUSH1 0x0 MSTORE PUSH1 0x20 PUSH1 0x0 KECCAK256 SWAP1 JUMPDEST DUP2 SLOAD DUP2 MSTORE SWAP1 PUSH1 0x1 ADD SWAP1 PUSH1 0x20 ADD DUP1 DUP4 GT PUSH2 0x834 JUMPI DUP3 SWAP1 SUB PUSH1 0x1F AND DUP3 ADD SWAP2 JUMPDEST POP POP POP POP POP DUP2 MSTORE PUSH1 0x20 ADD PUSH1 0x4 DUP3 ADD SLOAD DUP2 MSTORE PUSH1 0x20 ADD PUSH1 0x5 DUP3 ADD PUSH1 0x0 SWAP1 SLOAD SWAP1 PUSH2 0x100 EXP SWAP1 DIV PUSH1 0xFF AND ISZERO ISZERO ISZERO ISZERO DUP2 MSTORE POP POP SWAP1 POP PUSH1 0x0 PUSH20 0xFFFFFFFFFFFFFFFFFFFFFFFFFFFFFFFFFFFFFFFF AND DUP2 PUSH1 0x0 ADD MLOAD PUSH20 0xFFFFFFFFFFFFFFFFFFFFFFFFFFFFFFFFFFFFFFFF AND SUB PUSH2 0x8F4 JUMPI PUSH1 0x40 MLOAD PUSH32 0x8C379A000000000000000000000000000000000000000000000000000000000 DUP2 MSTORE PUSH1 0x4 ADD PUSH2 0x8EB SWAP1 PUSH2 0x1640 JUMP JUMPDEST PUSH1 0x40 MLOAD DUP1 SWAP2 SUB SWAP1 REVERT JUMPDEST DUP1 PUSH1 0x0 ADD MLOAD DUP2 PUSH1 0x20 ADD MLOAD DUP3 PUSH1 0x40 ADD MLOAD DUP4 PUSH1 0x60 ADD MLOAD DUP5 PUSH1 0x80 ADD MLOAD DUP6 PUSH1 0xA0 ADD MLOAD SWAP7 POP SWAP7 POP SWAP7 POP SWAP7 POP SWAP7 POP SWAP7 POP POP SWAP2 SWAP4 SWAP6 POP SWAP2 SWAP4 SWAP6 JUMP JUMPDEST PUSH1 0x60 PUSH1 0x1 DUP1 SLOAD SWAP1 POP DUP3 LT PUSH2 0x971 JUMPI PUSH1 0x40 MLOAD PUSH32 0x8C379A000000000000000000000000000000000000000000000000000000000 DUP2 MSTORE PUSH1 0x4 ADD PUSH2 0x968 SWAP1 PUSH2 0x16AC JUMP JUMPDEST PUSH1 0x40 MLOAD DUP1 SWAP2 SUB SWAP1 REVERT JUMPDEST PUSH1 0x1 DUP3 DUP2 SLOAD DUP2 LT PUSH2 0x985 JUMPI PUSH2 0x984 PUSH2 0x16CC JUMP JUMPDEST JUMPDEST SWAP1 PUSH1 0x0 MSTORE PUSH1 0x20 PUSH1 0x0 KECCAK256 ADD DUP1 SLOAD PUSH2 0x99A SWAP1 PUSH2 0x11CE JUMP JUMPDEST DUP1 PUSH1 0x1F ADD PUSH1 0x20 DUP1 SWAP2 DIV MUL PUSH1 0x20 ADD PUSH1 0x40 MLOAD SWAP1 DUP2 ADD PUSH1 0x40 MSTORE DUP1 SWAP3 SWAP2 SWAP1 DUP2 DUP2 MSTORE PUSH1 0x20 ADD DUP3 DUP1 SLOAD PUSH2 0x9C6 SWAP1 PUSH2 0x11CE JUMP JUMPDEST DUP1 ISZERO PUSH2 0xA13 JUMPI DUP1 PUSH1 0x1F LT PUSH2 0x9E8 JUMPI PUSH2 0x100 DUP1 DUP4 SLOAD DIV MUL DUP4 MSTORE SWAP2 PUSH1 0x20 ADD SWAP2 PUSH2 0xA13 JUMP JUMPDEST DUP3 ADD SWAP2 SWAP1 PUSH1 0x0 MSTORE PUSH1 0x20 PUSH1 0x0 KECCAK256 SWAP1 JUMPDEST DUP2 SLOAD DUP2 MSTORE SWAP1 PUSH1 0x1 ADD SWAP1 PUSH1 0x20 ADD DUP1 DUP4 GT PUSH2 0x9F6 JUMPI DUP3 SWAP1 SUB PUSH1 0x1F AND DUP3 ADD SWAP2 JUMPDEST POP POP POP POP POP SWAP1 POP SWAP2 SWAP1 POP JUMP JUMPDEST CALLER PUSH20 0xFFFFFFFFFFFFFFFFFFFFFFFFFFFFFFFFFFFFFFFF AND PUSH1 0x0 DUP6 PUSH1 0x40 MLOAD PUSH2 0xA46 SWAP2 SWAP1 PUSH2 0x111C JUMP JUMPDEST SWAP1 DUP2 MSTORE PUSH1 0x20 ADD PUSH1 0x40 MLOAD DUP1 SWAP2 SUB SWAP1 KECCAK256 PUSH1 0x0 ADD PUSH1 0x0 SWAP1 SLOAD SWAP1 PUSH2 0x100 EXP SWAP1 DIV PUSH20 0xFFFFFFFFFFFFFFFFFFFFFFFFFFFFFFFFFFFFFFFF AND PUSH20 0xFFFFFFFFFFFFFFFFFFFFFFFFFFFFFFFFFFFFFFFF AND EQ PUSH2 0xACE JUMPI PUSH1 0x40 MLOAD PUSH32 0x8C379A000000000000000000000000000000000000000000000000000000000 DUP2 MSTORE PUSH1 0x4 ADD PUSH2 0xAC5 SWAP1 PUSH2 0x1747 JUMP JUMPDEST PUSH1 0x40 MLOAD DUP1 SWAP2 SUB SWAP1 REVERT JUMPDEST PUSH1 0x0 DUP5 PUSH1 0x40 MLOAD PUSH2 0xADE SWAP2 SWAP1 PUSH2 0x111C JUMP JUMPDEST SWAP1 DUP2 MSTORE PUSH1 0x20 ADD PUSH1 0x40 MLOAD DUP1 SWAP2 SUB SWAP1 KECCAK256 PUSH1 0x5 ADD PUSH1 0x0 SWAP1 SLOAD SWAP1 PUSH2 0x100 EXP SWAP1 DIV PUSH1 0xFF AND PUSH2 0xB3C JUMPI PUSH1 0x40 MLOAD PUSH32 0x8C379A000000000000000000000000000000000000000000000000000000000 DUP2 MSTORE PUSH1 0x4 ADD PUSH2 0xB33 SWAP1 PUSH2 0x17B3 JUMP JUMPDEST PUSH1 0x40 MLOAD DUP1 SWAP2 SUB SWAP1 REVERT JUMPDEST DUP3 PUSH1 0x0 DUP6 PUSH1 0x40 MLOAD PUSH2 0xB4D SWAP2 SWAP1 PUSH2 0x111C JUMP JUMPDEST SWAP1 DUP2 MSTORE PUSH1 0x20 ADD PUSH1 0x40 MLOAD DUP1 SWAP2 SUB SWAP1 KECCAK256 PUSH1 0x1 ADD SWAP1 DUP2 PUSH2 0xB6A SWAP2 SWAP1 PUSH2 0x13AB JUMP JUMPDEST POP DUP2 PUSH1 0x0 DUP6 PUSH1 0x40 MLOAD PUSH2 0xB7C SWAP2 SWAP1 PUSH2 0x111C JUMP JUMPDEST SWAP1 DUP2 MSTORE PUSH1 0x20 ADD PUSH1 0x40 MLOAD DUP1 SWAP2 SUB SWAP1 KECCAK256 PUSH1 0x2 ADD SWAP1 DUP2 PUSH2 0xB99 SWAP2 SWAP1 PUSH2 0x13AB JUMP JUMPDEST POP DUP1 PUSH1 0x0 DUP6 PUSH1 0x40 MLOAD PUSH2 0xBAB SWAP2 SWAP1 PUSH2 0x111C JUMP JUMPDEST SWAP1 DUP2 MSTORE PUSH1 0x20 ADD PUSH1 0x40 MLOAD DUP1 SWAP2 SUB SWAP1 KECCAK256 PUSH1 0x3 ADD SWAP1 DUP2 PUSH2 0xBC8 SWAP2 SWAP1 PUSH2 0x13AB JUMP JUMPDEST POP TIMESTAMP PUSH1 0x0 DUP6 PUSH1 0x40 MLOAD PUSH2 0xBDA SWAP2 SWAP1 PUSH2 0x111C JUMP JUMPDEST SWAP1 DUP2 MSTORE PUSH1 0x20 ADD PUSH1 0x40 MLOAD DUP1 SWAP2 SUB SWAP1 KECCAK256 PUSH1 0x4 ADD DUP2 SWAP1 SSTORE POP CALLER PUSH20 0xFFFFFFFFFFFFFFFFFFFFFFFFFFFFFFFFFFFFFFFF AND PUSH32 0x389D5EFE180A1DD51BEFAAA06C03610254B8723ABDD405ED7EE59233B2012E3B DUP6 DUP6 DUP6 DUP6 TIMESTAMP PUSH1 0x40 MLOAD PUSH2 0xC3D SWAP6 SWAP5 SWAP4 SWAP3 SWAP2 SWAP1 PUSH2 0x147D JUMP JUMPDEST PUSH1 0x40 MLOAD DUP1 SWAP2 SUB SWAP1 LOG2 POP POP POP POP JUMP JUMPDEST PUSH1 0x0 PUSH1 0x40 MLOAD SWAP1 POP SWAP1 JUMP JUMPDEST PUSH1 0x0 DUP1 REVERT JUMPDEST PUSH1 0x0 DUP1 REVERT JUMPDEST PUSH1 0x0 DUP1 REVERT JUMPDEST PUSH1 0x0 DUP1 REVERT JUMPDEST PUSH1 0x0 PUSH1 0x1F NOT PUSH1 0x1F DUP4 ADD AND SWAP1 POP SWAP2 SWAP1 POP JUMP JUMPDEST PUSH32 0x4E487B7100000000000000000000000000000000000000000000000000000000 PUSH1 0x0 MSTORE PUSH1 0x41 PUSH1 0x4 MSTORE PUSH1 0x24 PUSH1 0x0 REVERT JUMPDEST PUSH2 0xCB2 DUP3 PUSH2 0xC69 JUMP JUMPDEST DUP2 ADD DUP2 DUP2 LT PUSH8 0xFFFFFFFFFFFFFFFF DUP3 GT OR ISZERO PUSH2 0xCD1 JUMPI PUSH2 0xCD0 PUSH2 0xC7A JUMP JUMPDEST JUMPDEST DUP1 PUSH1 0x40 MSTORE POP POP POP JUMP JUMPDEST PUSH1 0x0 PUSH2 0xCE4 PUSH2 0xC4B JUMP JUMPDEST SWAP1 POP PUSH2 0xCF0 DUP3 DUP3 PUSH2 0xCA9 JUMP JUMPDEST SWAP2 SWAP1 POP JUMP JUMPDEST PUSH1 0x0 PUSH8 0xFFFFFFFFFFFFFFFF DUP3 GT ISZERO PUSH2 0xD10 JUMPI PUSH2 0xD0F PUSH2 0xC7A JUMP JUMPDEST JUMPDEST PUSH2 0xD19 DUP3 PUSH2 0xC69 JUMP JUMPDEST SWAP1 POP PUSH1 0x20 DUP2 ADD SWAP1 POP SWAP2 SWAP1 POP JUMP JUMPDEST DUP3 DUP2 DUP4 CALLDATACOPY PUSH1 0x0 DUP4 DUP4 ADD MSTORE POP POP POP JUMP JUMPDEST PUSH1 0x0 PUSH2 0xD48 PUSH2 0xD43 DUP5 PUSH2 0xCF5 JUMP JUMPDEST PUSH2 0xCDA JUMP JUMPDEST SWAP1 POP DUP3 DUP2 MSTORE PUSH1 0x20 DUP2 ADD DUP5 DUP5 DUP5 ADD GT ISZERO PUSH2 0xD64 JUMPI PUSH2 0xD63 PUSH2 0xC64 JUMP JUMPDEST JUMPDEST PUSH2 0xD6F DUP5 DUP3 DUP6 PUSH2 0xD26 JUMP JUMPDEST POP SWAP4 SWAP3 POP POP POP JUMP JUMPDEST PUSH1 0x0 DUP3 PUSH1 0x1F DUP4 ADD SLT PUSH2 0xD8C JUMPI PUSH2 0xD8B PUSH2 0xC5F JUMP JUMPDEST JUMPDEST DUP2 CALLDATALOAD PUSH2 0xD9C DUP5 DUP3 PUSH1 0x20 DUP7 ADD PUSH2 0xD35 JUMP JUMPDEST SWAP2 POP POP SWAP3 SWAP2 POP POP JUMP JUMPDEST PUSH1 0x0 PUSH1 0x20 DUP3 DUP5 SUB SLT ISZERO PUSH2 0xDBB JUMPI PUSH2 0xDBA PUSH2 0xC55 JUMP JUMPDEST JUMPDEST PUSH1 0x0 DUP3 ADD CALLDATALOAD PUSH8 0xFFFFFFFFFFFFFFFF DUP2 GT ISZERO PUSH2 0xDD9 JUMPI PUSH2 0xDD8 PUSH2 0xC5A JUMP JUMPDEST JUMPDEST PUSH2 0xDE5 DUP5 DUP3 DUP6 ADD PUSH2 0xD77 JUMP JUMPDEST SWAP2 POP POP SWAP3 SWAP2 POP POP JUMP JUMPDEST PUSH1 0x0 DUP2 ISZERO ISZERO SWAP1 POP SWAP2 SWAP1 POP JUMP JUMPDEST PUSH2 0xE03 DUP2 PUSH2 0xDEE JUMP JUMPDEST DUP3 MSTORE POP POP JUMP JUMPDEST PUSH1 0x0 PUSH1 0x20 DUP3 ADD SWAP1 POP PUSH2 0xE1E PUSH1 0x0 DUP4 ADD DUP5 PUSH2 0xDFA JUMP JUMPDEST SWAP3 SWAP2 POP POP JUMP JUMPDEST PUSH1 0x0 DUP2 SWAP1 POP SWAP2 SWAP1 POP JUMP JUMPDEST PUSH2 0xE37 DUP2 PUSH2 0xE24 JUMP JUMPDEST DUP3 MSTORE POP POP JUMP JUMPDEST PUSH1 0x0 PUSH1 0x20 DUP3 ADD SWAP1 POP PUSH2 0xE52 PUSH1 0x0 DUP4 ADD DUP5 PUSH2 0xE2E JUMP JUMPDEST SWAP3 SWAP2 POP POP JUMP JUMPDEST PUSH1 0x0 DUP1 PUSH1 0x0 DUP1 PUSH1 0x80 DUP6 DUP8 SUB SLT ISZERO PUSH2 0xE72 JUMPI PUSH2 0xE71 PUSH2 0xC55 JUMP JUMPDEST JUMPDEST PUSH1 0x0 DUP6 ADD CALLDATALOAD PUSH8 0xFFFFFFFFFFFFFFFF DUP2 GT ISZERO PUSH2 0xE90 JUMPI PUSH2 0xE8F PUSH2 0xC5A JUMP JUMPDEST JUMPDEST PUSH2 0xE9C DUP8 DUP3 DUP9 ADD PUSH2 0xD77 JUMP JUMPDEST SWAP5 POP POP PUSH1 0x20 DUP6 ADD CALLDATALOAD PUSH8 0xFFFFFFFFFFFFFFFF DUP2 GT ISZERO PUSH2 0xEBD JUMPI PUSH2 0xEBC PUSH2 0xC5A JUMP JUMPDEST JUMPDEST PUSH2 0xEC9 DUP8 DUP3 DUP9 ADD PUSH2 0xD77 JUMP JUMPDEST SWAP4 POP POP PUSH1 0x40 DUP6 ADD CALLDATALOAD PUSH8 0xFFFFFFFFFFFFFFFF DUP2 GT ISZERO PUSH2 0xEEA JUMPI PUSH2 0xEE9 PUSH2 0xC5A JUMP JUMPDEST JUMPDEST PUSH2 0xEF6 DUP8 DUP3 DUP9 ADD PUSH2 0xD77 JUMP JUMPDEST SWAP3 POP POP PUSH1 0x60 DUP6 ADD CALLDATALOAD PUSH8 0xFFFFFFFFFFFFFFFF DUP2 GT ISZERO PUSH2 0xF17 JUMPI PUSH2 0xF16 PUSH2 0xC5A JUMP JUMPDEST JUMPDEST PUSH2 0xF23 DUP8 DUP3 DUP9 ADD PUSH2 0xD77 JUMP JUMPDEST SWAP2 POP POP SWAP3 SWAP6 SWAP2 SWAP5 POP SWAP3 POP JUMP JUMPDEST PUSH1 0x0 PUSH20 0xFFFFFFFFFFFFFFFFFFFFFFFFFFFFFFFFFFFFFFFF DUP3 AND SWAP1 POP SWAP2 SWAP1 POP JUMP JUMPDEST PUSH1 0x0 PUSH2 0xF5A DUP3 PUSH2 0xF2F JUMP JUMPDEST SWAP1 POP SWAP2 SWAP1 POP JUMP JUMPDEST PUSH2 0xF6A DUP2 PUSH2 0xF4F JUMP JUMPDEST DUP3 MSTORE POP POP JUMP JUMPDEST PUSH1 0x0 DUP2 MLOAD SWAP1 POP SWAP2 SWAP1 POP JUMP JUMPDEST PUSH1 0x0 DUP3 DUP3 MSTORE PUSH1 0x20 DUP3 ADD SWAP1 POP SWAP3 SWAP2 POP POP JUMP JUMPDEST PUSH1 0x0 JUMPDEST DUP4 DUP2 LT ISZERO PUSH2 0xFAA JUMPI DUP1 DUP3 ADD MLOAD DUP2 DUP5 ADD MSTORE PUSH1 0x20 DUP2 ADD SWAP1 POP PUSH2 0xF8F JUMP JUMPDEST PUSH1 0x0 DUP5 DUP5 ADD MSTORE POP POP POP POP JUMP JUMPDEST PUSH1 0x0 PUSH2 0xFC1 DUP3 PUSH2 0xF70 JUMP JUMPDEST PUSH2 0xFCB DUP2 DUP6 PUSH2 0xF7B JUMP JUMPDEST SWAP4 POP PUSH2 0xFDB DUP2 DUP6 PUSH1 0x20 DUP7 ADD PUSH2 0xF8C JUMP JUMPDEST PUSH2 0xFE4 DUP2 PUSH2 0xC69 JUMP JUMPDEST DUP5 ADD SWAP2 POP POP SWAP3 SWAP2 POP POP JUMP JUMPDEST PUSH1 0x0 PUSH1 0xC0 DUP3 ADD SWAP1 POP PUSH2 0x1004 PUSH1 0x0 DUP4 ADD DUP10 PUSH2 0xF61 JUMP JUMPDEST DUP2 DUP2 SUB PUSH1 0x20 DUP4 ADD MSTORE PUSH2 0x1016 DUP2 DUP9 PUSH2 0xFB6 JUMP JUMPDEST SWAP1 POP DUP2 DUP2 SUB PUSH1 0x40 DUP4 ADD MSTORE PUSH2 0x102A DUP2 DUP8 PUSH2 0xFB6 JUMP JUMPDEST SWAP1 POP DUP2 DUP2 SUB PUSH1 0x60 DUP4 ADD MSTORE PUSH2 0x103E DUP2 DUP7 PUSH2 0xFB6 JUMP JUMPDEST SWAP1 POP PUSH2 0x104D PUSH1 0x80 DUP4 ADD DUP6 PUSH2 0xE2E JUMP JUMPDEST PUSH2 0x105A PUSH1 0xA0 DUP4 ADD DUP5 PUSH2 0xDFA JUMP JUMPDEST SWAP8 SWAP7 POP POP POP POP POP POP POP JUMP JUMPDEST PUSH2 0x106E DUP2 PUSH2 0xE24 JUMP JUMPDEST DUP2 EQ PUSH2 0x1079 JUMPI PUSH1 0x0 DUP1 REVERT JUMPDEST POP JUMP JUMPDEST PUSH1 0x0 DUP2 CALLDATALOAD SWAP1 POP PUSH2 0x108B DUP2 PUSH2 0x1065 JUMP JUMPDEST SWAP3 SWAP2 POP POP JUMP JUMPDEST PUSH1 0x0 PUSH1 0x20 DUP3 DUP5 SUB SLT ISZERO PUSH2 0x10A7 JUMPI PUSH2 0x10A6 PUSH2 0xC55 JUMP JUMPDEST JUMPDEST PUSH1 0x0 PUSH2 0x10B5 DUP5 DUP3 DUP6 ADD PUSH2 0x107C JUMP JUMPDEST SWAP2 POP POP SWAP3 SWAP2 POP POP JUMP JUMPDEST PUSH1 0x0 PUSH1 0x20 DUP3 ADD SWAP1 POP DUP2 DUP2 SUB PUSH1 0x0 DUP4 ADD MSTORE PUSH2 0x10D8 DUP2 DUP5 PUSH2 0xFB6 JUMP JUMPDEST SWAP1 POP SWAP3 SWAP2 POP POP JUMP JUMPDEST PUSH1 0x0 DUP2 SWAP1 POP SWAP3 SWAP2 POP POP JUMP JUMPDEST PUSH1 0x0 PUSH2 0x10F6 DUP3 PUSH2 0xF70 JUMP JUMPDEST PUSH2 0x1100 DUP2 DUP6 PUSH2 0x10E0 JUMP JUMPDEST SWAP4 POP PUSH2 0x1110 DUP2 DUP6 PUSH1 0x20 DUP7 ADD PUSH2 0xF8C JUMP JUMPDEST DUP1 DUP5 ADD SWAP2 POP POP SWAP3 SWAP2 POP POP JUMP JUMPDEST PUSH1 0x0 PUSH2 0x1128 DUP3 DUP5 PUSH2 0x10EB JUMP JUMPDEST SWAP2 POP DUP2 SWAP1 POP SWAP3 SWAP2 POP POP JUMP JUMPDEST PUSH32 0x44494420616C7265616479207265676973746572656400000000000000000000 PUSH1 0x0 DUP3 ADD MSTORE POP JUMP JUMPDEST PUSH1 0x0 PUSH2 0x1169 PUSH1 0x16 DUP4 PUSH2 0xF7B JUMP JUMPDEST SWAP2 POP PUSH2 0x1174 DUP3 PUSH2 0x1133 JUMP JUMPDEST PUSH1 0x20 DUP3 ADD SWAP1 POP SWAP2 SWAP1 POP JUMP JUMPDEST PUSH1 0x0 PUSH1 0x20 DUP3 ADD SWAP1 POP DUP2 DUP2 SUB PUSH1 0x0 DUP4 ADD MSTORE PUSH2 0x1198 DUP2 PUSH2 0x115C JUMP JUMPDEST SWAP1 POP SWAP2 SWAP1 POP JUMP JUMPDEST PUSH32 0x4E487B7100000000000000000000000000000000000000000000000000000000 PUSH1 0x0 MSTORE PUSH1 0x22 PUSH1 0x4 MSTORE PUSH1 0x24 PUSH1 0x0 REVERT JUMPDEST PUSH1 0x0 PUSH1 0x2 DUP3 DIV SWAP1 POP PUSH1 0x1 DUP3 AND DUP1 PUSH2 0x11E6 JUMPI PUSH1 0x7F DUP3 AND SWAP2 POP JUMPDEST PUSH1 0x20 DUP3 LT DUP2 SUB PUSH2 0x11F9 JUMPI PUSH2 0x11F8 PUSH2 0x119F JUMP JUMPDEST JUMPDEST POP SWAP2 SWAP1 POP JUMP JUMPDEST PUSH1 0x0 DUP2 SWAP1 POP DUP2 PUSH1 0x0 MSTORE PUSH1 0x20 PUSH1 0x0 KECCAK256 SWAP1 POP SWAP2 SWAP1 POP JUMP JUMPDEST PUSH1 0x0 PUSH1 0x20 PUSH1 0x1F DUP4 ADD DIV SWAP1 POP SWAP2 SWAP1 POP JUMP JUMPDEST PUSH1 0x0 DUP3 DUP3 SHL SWAP1 POP SWAP3 SWAP2 POP POP JUMP JUMPDEST PUSH1 0x0 PUSH1 0x8 DUP4 MUL PUSH2 0x1261 PUSH32 0xFFFFFFFFFFFFFFFFFFFFFFFFFFFFFFFFFFFFFFFFFFFFFFFFFFFFFFFFFFFFFFFF DUP3 PUSH2 0x1224 JUMP JUMPDEST PUSH2 0x126B DUP7 DUP4 PUSH2 0x1224 JUMP JUMPDEST SWAP6 POP DUP1 NOT DUP5 AND SWAP4 POP DUP1 DUP7 AND DUP5 OR SWAP3 POP POP POP SWAP4 SWAP3 POP POP POP JUMP JUMPDEST PUSH1 0x0 DUP2 SWAP1 POP SWAP2 SWAP1 POP JUMP JUMPDEST PUSH1 0x0 PUSH2 0x12A8 PUSH2 0x12A3 PUSH2 0x129E DUP5 PUSH2 0xE24 JUMP JUMPDEST PUSH2 0x1283 JUMP JUMPDEST PUSH2 0xE24 JUMP JUMPDEST SWAP1 POP SWAP2 SWAP1 POP JUMP JUMPDEST PUSH1 0x0 DUP2 SWAP1 POP SWAP2 SWAP1 POP JUMP JUMPDEST PUSH2 0x12C2 DUP4 PUSH2 0x128D JUMP JUMPDEST PUSH2 0x12D6 PUSH2 0x12CE DUP3 PUSH2 0x12AF JUMP JUMPDEST DUP5 DUP5 SLOAD PUSH2 0x1231 JUMP JUMPDEST DUP3 SSTORE POP POP POP POP JUMP JUMPDEST PUSH1 0x0 SWAP1 JUMP JUMPDEST PUSH2 0x12EB PUSH2 0x12DE JUMP JUMPDEST PUSH2 0x12F6 DUP2 DUP5 DUP5 PUSH2 0x12B9 JUMP JUMPDEST POP POP POP JUMP JUMPDEST JUMPDEST DUP2 DUP2 LT ISZERO PUSH2 0x131A JUMPI PUSH2 0x130F PUSH1 0x0 DUP3 PUSH2 0x12E3 JUMP JUMPDEST PUSH1 0x1 DUP2 ADD SWAP1 POP PUSH2 0x12FC JUMP JUMPDEST POP POP JUMP JUMPDEST PUSH1 0x1F DUP3 GT ISZERO PUSH2 0x135F JUMPI PUSH2 0x1330 DUP2 PUSH2 0x11FF JUMP JUMPDEST PUSH2 0x1339 DUP5 PUSH2 0x1214 JUMP JUMPDEST DUP2 ADD PUSH1 0x20 DUP6 LT ISZERO PUSH2 0x1348 JUMPI DUP2 SWAP1 POP JUMPDEST PUSH2 0x135C PUSH2 0x1354 DUP6 PUSH2 0x1214 JUMP JUMPDEST DUP4 ADD DUP3 PUSH2 0x12FB JUMP JUMPDEST POP POP JUMPDEST POP POP POP JUMP JUMPDEST PUSH1 0x0 DUP3 DUP3 SHR SWAP1 POP SWAP3 SWAP2 POP POP JUMP JUMPDEST PUSH1 0x0 PUSH2 0x1382 PUSH1 0x0 NOT DUP5 PUSH1 0x8 MUL PUSH2 0x1364 JUMP JUMPDEST NOT DUP1 DUP4 AND SWAP2 POP POP SWAP3 SWAP2 POP POP JUMP JUMPDEST PUSH1 0x0 PUSH2 0x139B DUP4 DUP4 PUSH2 0x1371 JUMP JUMPDEST SWAP2 POP DUP3 PUSH1 0x2 MUL DUP3 OR SWAP1 POP SWAP3 SWAP2 POP POP JUMP JUMPDEST PUSH2 0x13B4 DUP3 PUSH2 0xF70 JUMP JUMPDEST PUSH8 0xFFFFFFFFFFFFFFFF DUP2 GT ISZERO PUSH2 0x13CD JUMPI PUSH2 0x13CC PUSH2 0xC7A JUMP JUMPDEST JUMPDEST PUSH2 0x13D7 DUP3 SLOAD PUSH2 0x11CE JUMP JUMPDEST PUSH2 0x13E2 DUP3 DUP3 DUP6 PUSH2 0x131E JUMP JUMPDEST PUSH1 0x0 PUSH1 0x20 SWAP1 POP PUSH1 0x1F DUP4 GT PUSH1 0x1 DUP2 EQ PUSH2 0x1415 JUMPI PUSH1 0x0 DUP5 ISZERO PUSH2 0x1403 JUMPI DUP3 DUP8 ADD MLOAD SWAP1 POP JUMPDEST PUSH2 0x140D DUP6 DUP3 PUSH2 0x138F JUMP JUMPDEST DUP7 SSTORE POP PUSH2 0x1475 JUMP JUMPDEST PUSH1 0x1F NOT DUP5 AND PUSH2 0x1423 DUP7 PUSH2 0x11FF JUMP JUMPDEST PUSH1 0x0 JUMPDEST DUP3 DUP2 LT ISZERO PUSH2 0x144B JUMPI DUP5 DUP10 ADD MLOAD DUP3 SSTORE PUSH1 0x1 DUP3 ADD SWAP2 POP PUSH1 0x20 DUP6 ADD SWAP5 POP PUSH1 0x20 DUP2 ADD SWAP1 POP PUSH2 0x1426 JUMP JUMPDEST DUP7 DUP4 LT ISZERO PUSH2 0x1468 JUMPI DUP5 DUP10 ADD MLOAD PUSH2 0x1464 PUSH1 0x1F DUP10 AND DUP3 PUSH2 0x1371 JUMP JUMPDEST DUP4 SSTORE POP JUMPDEST PUSH1 0x1 PUSH1 0x2 DUP9 MUL ADD DUP9 SSTORE POP POP POP JUMPDEST POP POP POP POP POP POP JUMP JUMPDEST PUSH1 0x0 PUSH1 0xA0 DUP3 ADD SWAP1 POP DUP2 DUP2 SUB PUSH1 0x0 DUP4 ADD MSTORE PUSH2 0x1497 DUP2 DUP9 PUSH2 0xFB6 JUMP JUMPDEST SWAP1 POP DUP2 DUP2 SUB PUSH1 0x20 DUP4 ADD MSTORE PUSH2 0x14AB DUP2 DUP8 PUSH2 0xFB6 JUMP JUMPDEST SWAP1 POP DUP2 DUP2 SUB PUSH1 0x40 DUP4 ADD MSTORE PUSH2 0x14BF DUP2 DUP7 PUSH2 0xFB6 JUMP JUMPDEST SWAP1 POP DUP2 DUP2 SUB PUSH1 0x60 DUP4 ADD MSTORE PUSH2 0x14D3 DUP2 DUP6 PUSH2 0xFB6 JUMP JUMPDEST SWAP1 POP PUSH2 0x14E2 PUSH1 0x80 DUP4 ADD DUP5 PUSH2 0xE2E JUMP JUMPDEST SWAP7 SWAP6 POP POP POP POP POP POP JUMP JUMPDEST PUSH32 0x4F6E6C79206F776E65722063616E206465616374697661746520444944000000 PUSH1 0x0 DUP3 ADD MSTORE POP JUMP JUMPDEST PUSH1 0x0 PUSH2 0x1522 PUSH1 0x1D DUP4 PUSH2 0xF7B JUMP JUMPDEST SWAP2 POP PUSH2 0x152D DUP3 PUSH2 0x14EC JUMP JUMPDEST PUSH1 0x20 DUP3 ADD SWAP1 POP SWAP2 SWAP1 POP JUMP JUMPDEST PUSH1 0x0 PUSH1 0x20 DUP3 ADD SWAP1 POP DUP2 DUP2 SUB PUSH1 0x0 DUP4 ADD MSTORE PUSH2 0x1551 DUP2 PUSH2 0x1515 JUMP JUMPDEST SWAP1 POP SWAP2 SWAP1 POP JUMP JUMPDEST PUSH32 0x44494420697320616C726561647920696E616374697665000000000000000000 PUSH1 0x0 DUP3 ADD MSTORE POP JUMP JUMPDEST PUSH1 0x0 PUSH2 0x158E PUSH1 0x17 DUP4 PUSH2 0xF7B JUMP JUMPDEST SWAP2 POP PUSH2 0x1599 DUP3 PUSH2 0x1558 JUMP JUMPDEST PUSH1 0x20 DUP3 ADD SWAP1 POP SWAP2 SWAP1 POP JUMP JUMPDEST PUSH1 0x0 PUSH1 0x20 DUP3 ADD SWAP1 POP DUP2 DUP2 SUB PUSH1 0x0 DUP4 ADD MSTORE PUSH2 0x15BD DUP2 PUSH2 0x1581 JUMP JUMPDEST SWAP1 POP SWAP2 SWAP1 POP JUMP JUMPDEST PUSH1 0x0 PUSH1 0x40 DUP3 ADD SWAP1 POP DUP2 DUP2 SUB PUSH1 0x0 DUP4 ADD MSTORE PUSH2 0x15DE DUP2 DUP6 PUSH2 0xFB6 JUMP JUMPDEST SWAP1 POP PUSH2 0x15ED PUSH1 0x20 DUP4 ADD DUP5 PUSH2 0xE2E JUMP JUMPDEST SWAP4 SWAP3 POP POP POP JUMP JUMPDEST PUSH32 0x444944206E6F7420726567697374657265640000000000000000000000000000 PUSH1 0x0 DUP3 ADD MSTORE POP JUMP JUMPDEST PUSH1 0x0 PUSH2 0x162A PUSH1 0x12 DUP4 PUSH2 0xF7B JUMP JUMPDEST SWAP2 POP PUSH2 0x1635 DUP3 PUSH2 0x15F4 JUMP JUMPDEST PUSH1 0x20 DUP3 ADD SWAP1 POP SWAP2 SWAP1 POP JUMP JUMPDEST PUSH1 0x0 PUSH1 0x20 DUP3 ADD SWAP1 POP DUP2 DUP2 SUB PUSH1 0x0 DUP4 ADD MSTORE PUSH2 0x1659 DUP2 PUSH2 0x161D JUMP JUMPDEST SWAP1 POP SWAP2 SWAP1 POP JUMP JUMPDEST PUSH32 0x496E646578206F7574206F6620626F756E647300000000000000000000000000 PUSH1 0x0 DUP3 ADD MSTORE POP JUMP JUMPDEST PUSH1 0x0 PUSH2 0x1696 PUSH1 0x13 DUP4 PUSH2 0xF7B JUMP JUMPDEST SWAP2 POP PUSH2 0x16A1 DUP3 PUSH2 0x1660 JUMP JUMPDEST PUSH1 0x20 DUP3 ADD SWAP1 POP SWAP2 SWAP1 POP JUMP JUMPDEST PUSH1 0x0 PUSH1 0x20 DUP3 ADD SWAP1 POP DUP2 DUP2 SUB PUSH1 0x0 DUP4 ADD MSTORE PUSH2 0x16C5 DUP2 PUSH2 0x1689 JUMP JUMPDEST SWAP1 POP SWAP2 SWAP1 POP JUMP JUMPDEST PUSH32 0x4E487B7100000000000000000000000000000000000000000000000000000000 PUSH1 0x0 MSTORE PUSH1 0x32 PUSH1 0x4 MSTORE PUSH1 0x24 PUSH1 0x0 REVERT JUMPDEST PUSH32 0x4F6E6C79206F776E65722063616E207570646174652044494400000000000000 PUSH1 0x0 DUP3 ADD MSTORE POP JUMP JUMPDEST PUSH1 0x0 PUSH2 0x1731 PUSH1 0x19 DUP4 PUSH2 0xF7B JUMP JUMPDEST SWAP2 POP PUSH2 0x173C DUP3 PUSH2 0x16FB JUMP JUMPDEST PUSH1 0x20 DUP3 ADD SWAP1 POP SWAP2 SWAP1 POP JUMP JUMPDEST PUSH1 0x0 PUSH1 0x20 DUP3 ADD SWAP1 POP DUP2 DUP2 SUB PUSH1 0x0 DUP4 ADD MSTORE PUSH2 0x1760 DUP2 PUSH2 0x1724 JUMP JUMPDEST SWAP1 POP SWAP2 SWAP1 POP JUMP JUMPDEST PUSH32 0x444944206973206E6F7420616374697665000000000000000000000000000000 PUSH1 0x0 DUP3 ADD MSTORE POP JUMP JUMPDEST PUSH1 0x0 PUSH2 0x179D PUSH1 0x11 DUP4 PUSH2 0xF7B JUMP JUMPDEST SWAP2 POP PUSH2 0x17A8 DUP3 PUSH2 0x1767 JUMP JUMPDEST PUSH1 0x20 DUP3 ADD SWAP1 POP SWAP2 SWAP1 POP JUMP JUMPDEST PUSH1 0x0 PUSH1 0x20 DUP3 ADD SWAP1 POP DUP2 DUP2 SUB PUSH1 0x0 DUP4 ADD MSTORE PUSH2 0x17CC DUP2 PUSH2 0x1790 JUMP JUMPDEST SWAP1 POP SWAP2 SWAP1 POP JUMP INVALID LOG2 PUSH5 0x6970667358 0x22 SLT KECCAK256 PUSH11 0xDC08620D406A7E92F21D0B PUSH23 0xF2B1B6E87586425A49EE2B9AC3C16671C3475264736F6C PUSH4 0x4300081C STOP CALLER "},"methodIdentifiers":{"deactivateDID(string)":"3b253b23","getDIDAtIndex(uint256)":"766ebdaf","getDIDInfo(string)":"720127fa","getTotalDIDs()":"37affd80","isDIDRegistered(string)":"1de3f1dc","registerDID(string,string,string,string)":"390fe3e4","updateDID(string,string,string,string)":"e857f180"}}}}}