{"contracts/DIDRegistry.sol":{"DIDRegistry":{"abi":[{"anonymous":false,"inputs":[{"indexed":true,"internalType":"string","name":"did","type":"string"},{"indexed":false,"internalType":"string","name":"controller","type":"string"}],"name":"DIDCreated","type":"event"},{"anonymous":false,"inputs":[{"indexed":false,"internalType":"string[]","name":"dids","type":"string[]"}],"name":"DIDListUpdated","type":"event"},{"anonymous":false,"inputs":[{"indexed":true,"internalType":"string","name":"did","type":"string"},{"indexed":true,"internalType":"address","name":"contractAddress","type":"address"}],"name":"DIDRegistered","type":"event"},{"anonymous":false,"inputs":[{"indexed":true,"internalType":"string","name":"did","type":"string"},{"indexed":false,"internalType":"string","name":"data","type":"string"}],"name":"DataStored","type":"event"},{"inputs":[{"internalType":"uint256","name":"","type":"uint256"}],"name":"accounts","outputs":[{"internalType":"address","name":"","type":"address"}],"stateMutability":"view","type":"function"},{"inputs":[{"internalType":"string","name":"did","type":"string"},{"internalType":"string","name":"controller","type":"string"},{"internalType":"string","name":"publicKeys","type":"string"},{"internalType":"string","name":"services","type":"string"}],"name":"createDID","outputs":[],"stateMutability":"nonpayable","type":"function"},{"inputs":[{"internalType":"string","name":"did","type":"string"}],"name":"didExists","outputs":[{"internalType":"bool","name":"","type":"bool"}],"stateMutability":"view","type":"function"},{"inputs":[],"name":"getAllAccounts","outputs":[{"internalType":"address[]","name":"","type":"address[]"}],"stateMutability":"view","type":"function"},{"inputs":[],"name":"getAllDIDs","outputs":[{"internalType":"string[]","name":"","type":"string[]"}],"stateMutability":"view","type":"function"},{"inputs":[{"internalType":"string","name":"did","type":"string"}],"name":"getDIDDocument","outputs":[{"internalType":"string","name":"id","type":"string"},{"internalType":"string","name":"controller","type":"string"},{"internalType":"string","name":"publicKeys","type":"string"},{"internalType":"string","name":"services","type":"string"}],"stateMutability":"view","type":"function"},{"inputs":[{"internalType":"string","name":"did","type":"string"}],"name":"getStoredData","outputs":[{"internalType":"string","name":"","type":"string"}],"stateMutability":"view","type":"function"},{"inputs":[{"internalType":"string","name":"did","type":"string"}],"name":"hasDIDDocument","outputs":[{"internalType":"bool","name":"","type":"bool"}],"stateMutability":"view","type":"function"},{"inputs":[{"internalType":"address","name":"account","type":"address"}],"name":"registerAccount","outputs":[],"stateMutability":"nonpayable","type":"function"},{"inputs":[{"internalType":"string","name":"did","type":"string"}],"name":"registerDID","outputs":[],"stateMutability":"nonpayable","type":"function"},{"inputs":[{"internalType":"address","name":"","type":"address"}],"name":"registeredAccounts","outputs":[{"internalType":"bool","name":"","type":"bool"}],"stateMutability":"view","type":"function"},{"inputs":[{"internalType":"string","name":"did","type":"string"},{"internalType":"string","name":"data","type":"string"}],"name":"storeData","outputs":[],"stateMutability":"nonpayable","type":"function"}],"evm":{"bytecode":{"linkReferences":{},"object":"6080604052348015600f57600080fd5b50611e0b8061001f6000396000f3fe608060405234801561001057600080fd5b50600436106100b45760003560e01c806397c414df1161007157806397c414df14610190578063ade53cf8146101ac578063d493cb77146101c8578063d8fa638d146101f8578063f2a40db814610228578063f92959f014610258576100b4565b806308e93d0a146100b957806320dd57a9146100d75780634c95303a146101075780634ece5b4c14610125578063570810e214610141578063784afc4e1461015d575b600080fd5b6100c1610288565b6040516100ce9190610f0c565b60405180910390f35b6100f160048036038101906100ec9190611088565b610316565b6040516100fe91906110ec565b60405180910390f35b61010f610328565b60405161011c9190611248565b60405180910390f35b61013f600480360381019061013a919061126a565b610401565b005b61015b60048036038101906101569190611088565b61050a565b005b61017760048036038101906101729190611088565b6105ae565b604051610187949392919061132c565b60405180910390f35b6101aa60048036038101906101a591906113b9565b6108af565b005b6101c660048036038101906101c191906113e6565b6109fa565b005b6101e260048036038101906101dd9190611088565b610c4e565b6040516101ef91906110ec565b60405180910390f35b610212600480360381019061020d91906113b9565b610cc5565b60405161021f91906110ec565b60405180910390f35b610242600480360381019061023d91906114f3565b610ce5565b60405161024f919061152f565b60405180910390f35b610272600480360381019061026d9190611088565b610d24565b60405161027f919061154a565b60405180910390f35b6060600380548060200260200160405190810160405280929190818152602001828054801561030c57602002820191906000526020600020905b8160009054906101000a900473ffffffffffffffffffffffffffffffffffffffff1673ffffffffffffffffffffffffffffffffffffffff16815260200190600101908083116102c2575b5050505050905090565b600061032182610c4e565b9050919050565b60606004805480602002602001604051908101604052809291908181526020016000905b828210156103f857838290600052602060002001805461036b9061159b565b80601f01602080910402602001604051908101604052809291908181526020018280546103979061159b565b80156103e45780601f106103b9576101008083540402835291602001916103e4565b820191906000526020600020905b8154815290600101906020018083116103c757829003601f168201915b50505050508152602001906001019061034c565b50505050905090565b61040a82610c4e565b610449576040517f08c379a000000000000000000000000000000000000000000000000000000000815260040161044090611618565b60405180910390fd5b600081511161048d576040517f08c379a000000000000000000000000000000000000000000000000000000000815260040161048490611684565b60405180910390fd5b8060018360405161049e91906116e0565b908152602001604051809103902090816104b891906118a3565b50816040516104c791906116e0565b60405180910390207f4d29b7f0ee29fd19bc5c40e7a45531c8498ce1293f4c3f7f42518934235f36ed826040516104fe919061154a565b60405180910390a25050565b61051381610c4e565b610552576040517f08c379a0000000000000000000000000000000000000000000000000000000008152600401610549906119c1565b60405180910390fd5b3373ffffffffffffffffffffffffffffffffffffffff168160405161057791906116e0565b60405180910390207fd59e4d670f6e249831d6f8ce560f47ced54b3f4203e2d0050dc495fd6b919dd260405160405180910390a350565b6060806060806105bd85610c4e565b6105fc576040517f08c379a00000000000000000000000000000000000000000000000000000000081526004016105f3906119c1565b60405180910390fd5b6000808660405161060d91906116e0565b90815260200160405180910390206040518060a00160405290816000820180546106369061159b565b80601f01602080910402602001604051908101604052809291908181526020018280546106629061159b565b80156106af5780601f10610684576101008083540402835291602001916106af565b820191906000526020600020905b81548152906001019060200180831161069257829003601f168201915b505050505081526020016001820180546106c89061159b565b80601f01602080910402602001604051908101604052809291908181526020018280546106f49061159b565b80156107415780601f1061071657610100808354040283529160200191610741565b820191906000526020600020905b81548152906001019060200180831161072457829003601f168201915b5050505050815260200160028201805461075a9061159b565b80601f01602080910402602001604051908101604052809291908181526020018280546107869061159b565b80156107d35780601f106107a8576101008083540402835291602001916107d3565b820191906000526020600020905b8154815290600101906020018083116107b657829003601f168201915b505050505081526020016003820180546107ec9061159b565b80601f01602080910402602001604051908101604052809291908181526020018280546108189061159b565b80156108655780601f1061083a57610100808354040283529160200191610865565b820191906000526020600020905b81548152906001019060200180831161084857829003601f168201915b505050505081526020016004820160009054906101000a900460ff161515151581525050905080600001518160200151826040015183606001519450945094509450509193509193565b600260008273ffffffffffffffffffffffffffffffffffffffff1673ffffffffffffffffffffffffffffffffffffffff16815260200190815260200160002060009054906101000a900460ff161561093c576040517f08c379a000000000000000000000000000000000000000000000000000000000815260040161093390611a2d565b60405180910390fd5b6001600260008373ffffffffffffffffffffffffffffffffffffffff1673ffffffffffffffffffffffffffffffffffffffff16815260200190815260200160002060006101000a81548160ff0219169083151502179055506003819080600181540180825580915050600190039060005260206000200160009091909190916101000a81548173ffffffffffffffffffffffffffffffffffffffff021916908373ffffffffffffffffffffffffffffffffffffffff16021790555050565b610a0384610c4e565b15610a43576040517f08c379a0000000000000000000000000000000000000000000000000000000008152600401610a3a90611a99565b60405180910390fd5b6000845111610a87576040517f08c379a0000000000000000000000000000000000000000000000000000000008152600401610a7e90611b05565b60405180910390fd5b6000835111610acb576040517f08c379a0000000000000000000000000000000000000000000000000000000008152600401610ac290611b71565b60405180910390fd5b6040518060a0016040528085815260200184815260200183815260200182815260200160011515815250600085604051610b0591906116e0565b90815260200160405180910390206000820151816000019081610b2891906118a3565b506020820151816001019081610b3e91906118a3565b506040820151816002019081610b5491906118a3565b506060820151816003019081610b6a91906118a3565b5060808201518160040160006101000a81548160ff021916908315150217905550905050600484908060018154018082558091505060019003906000526020600020016000909190919091509081610bc291906118a3565b5083604051610bd191906116e0565b60405180910390207f15a910d2efaf7349f437c783d73a5fc8330afad390e19ac0d6bebd5ebe1301ee84604051610c08919061154a565b60405180910390a27f75ad01c9a06fac19e88e8ddaf8b828b83be0b7456ac46b55eeee92f1b53290246004604051610c409190611cca565b60405180910390a150505050565b600080600090505b600480549050811015610cba57828051906020012060048281548110610c7f57610c7e611cec565b5b90600052602060002001604051610c969190611dbe565b604051809103902003610cad576001915050610cc0565b8080600101915050610c56565b50600090505b919050565b60026020528060005260406000206000915054906101000a900460ff1681565b60038181548110610cf557600080fd5b906000526020600020016000915054906101000a900473ffffffffffffffffffffffffffffffffffffffff1681565b6060610d2f82610c4e565b610d6e576040517f08c379a0000000000000000000000000000000000000000000000000000000008152600401610d6590611618565b60405180910390fd5b600182604051610d7e91906116e0565b90815260200160405180910390208054610d979061159b565b80601f0160208091040260200160405190810160405280929190818152602001828054610dc39061159b565b8015610e105780601f10610de557610100808354040283529160200191610e10565b820191906000526020600020905b815481529060010190602001808311610df357829003601f168201915b50505050509050919050565b600081519050919050565b600082825260208201905092915050565b6000819050602082019050919050565b600073ffffffffffffffffffffffffffffffffffffffff82169050919050565b6000610e7382610e48565b9050919050565b610e8381610e68565b82525050565b6000610e958383610e7a565b60208301905092915050565b6000602082019050919050565b6000610eb982610e1c565b610ec38185610e27565b9350610ece83610e38565b8060005b83811015610eff578151610ee68882610e89565b9750610ef183610ea1565b925050600181019050610ed2565b5085935050505092915050565b60006020820190508181036000830152610f268184610eae565b905092915050565b6000604051905090565b600080fd5b600080fd5b600080fd5b600080fd5b6000601f19601f8301169050919050565b7f4e487b7100000000000000000000000000000000000000000000000000000000600052604160045260246000fd5b610f9582610f4c565b810181811067ffffffffffffffff82111715610fb457610fb3610f5d565b5b80604052505050565b6000610fc7610f2e565b9050610fd38282610f8c565b919050565b600067ffffffffffffffff821115610ff357610ff2610f5d565b5b610ffc82610f4c565b9050602081019050919050565b82818337600083830152505050565b600061102b61102684610fd8565b610fbd565b90508281526020810184848401111561104757611046610f47565b5b611052848285611009565b509392505050565b600082601f83011261106f5761106e610f42565b5b813561107f848260208601611018565b91505092915050565b60006020828403121561109e5761109d610f38565b5b600082013567ffffffffffffffff8111156110bc576110bb610f3d565b5b6110c88482850161105a565b91505092915050565b60008115159050919050565b6110e6816110d1565b82525050565b600060208201905061110160008301846110dd565b92915050565b600081519050919050565b600082825260208201905092915050565b6000819050602082019050919050565b600081519050919050565b600082825260208201905092915050565b60005b8381101561116d578082015181840152602081019050611152565b60008484015250505050565b600061118482611133565b61118e818561113e565b935061119e81856020860161114f565b6111a781610f4c565b840191505092915050565b60006111be8383611179565b905092915050565b6000602082019050919050565b60006111de82611107565b6111e88185611112565b9350836020820285016111fa85611123565b8060005b85811015611236578484038952815161121785826111b2565b9450611222836111c6565b925060208a019950506001810190506111fe565b50829750879550505050505092915050565b6000602082019050818103600083015261126281846111d3565b905092915050565b6000806040838503121561128157611280610f38565b5b600083013567ffffffffffffffff81111561129f5761129e610f3d565b5b6112ab8582860161105a565b925050602083013567ffffffffffffffff8111156112cc576112cb610f3d565b5b6112d88582860161105a565b9150509250929050565b600082825260208201905092915050565b60006112fe82611133565b61130881856112e2565b935061131881856020860161114f565b61132181610f4c565b840191505092915050565b6000608082019050818103600083015261134681876112f3565b9050818103602083015261135a81866112f3565b9050818103604083015261136e81856112f3565b9050818103606083015261138281846112f3565b905095945050505050565b61139681610e68565b81146113a157600080fd5b50565b6000813590506113b38161138d565b92915050565b6000602082840312156113cf576113ce610f38565b5b60006113dd848285016113a4565b91505092915050565b60008060008060808587031215611400576113ff610f38565b5b600085013567ffffffffffffffff81111561141e5761141d610f3d565b5b61142a8782880161105a565b945050602085013567ffffffffffffffff81111561144b5761144a610f3d565b5b6114578782880161105a565b935050604085013567ffffffffffffffff81111561147857611477610f3d565b5b6114848782880161105a565b925050606085013567ffffffffffffffff8111156114a5576114a4610f3d565b5b6114b18782880161105a565b91505092959194509250565b6000819050919050565b6114d0816114bd565b81146114db57600080fd5b50565b6000813590506114ed816114c7565b92915050565b60006020828403121561150957611508610f38565b5b6000611517848285016114de565b91505092915050565b61152981610e68565b82525050565b60006020820190506115446000830184611520565b92915050565b6000602082019050818103600083015261156481846112f3565b905092915050565b7f4e487b7100000000000000000000000000000000000000000000000000000000600052602260045260246000fd5b600060028204905060018216806115b357607f821691505b6020821081036115c6576115c561156c565b5b50919050565b7f44494420646f6573206e6f742065786973740000000000000000000000000000600082015250565b60006116026012836112e2565b915061160d826115cc565b602082019050919050565b60006020820190508181036000830152611631816115f5565b9050919050565b7f446174612063616e6e6f7420626520656d707479000000000000000000000000600082015250565b600061166e6014836112e2565b915061167982611638565b602082019050919050565b6000602082019050818103600083015261169d81611661565b9050919050565b600081905092915050565b60006116ba82611133565b6116c481856116a4565b93506116d481856020860161114f565b80840191505092915050565b60006116ec82846116af565b915081905092915050565b60008190508160005260206000209050919050565b60006020601f8301049050919050565b600082821b905092915050565b6000600883026117597fffffffffffffffffffffffffffffffffffffffffffffffffffffffffffffffff8261171c565b611763868361171c565b95508019841693508086168417925050509392505050565b6000819050919050565b60006117a061179b611796846114bd565b61177b565b6114bd565b9050919050565b6000819050919050565b6117ba83611785565b6117ce6117c6826117a7565b848454611729565b825550505050565b600090565b6117e36117d6565b6117ee8184846117b1565b505050565b5b81811015611812576118076000826117db565b6001810190506117f4565b5050565b601f82111561185757611828816116f7565b6118318461170c565b81016020851015611840578190505b61185461184c8561170c565b8301826117f3565b50505b505050565b600082821c905092915050565b600061187a6000198460080261185c565b1980831691505092915050565b60006118938383611869565b9150826002028217905092915050565b6118ac82611133565b67ffffffffffffffff8111156118c5576118c4610f5d565b5b6118cf825461159b565b6118da828285611816565b600060209050601f83116001811461190d57600084156118fb578287015190505b6119058582611887565b86555061196d565b601f19841661191b866116f7565b60005b828110156119435784890151825560018201915060208501945060208101905061191e565b86831015611960578489015161195c601f891682611869565b8355505b6001600288020188555050505b505050505050565b7f44494420646f63756d656e7420646f6573206e6f742065786973740000000000600082015250565b60006119ab601b836112e2565b91506119b682611975565b602082019050919050565b600060208201905081810360008301526119da8161199e565b9050919050565b7f4163636f756e7420616c72656164792072656769737465726564000000000000600082015250565b6000611a17601a836112e2565b9150611a22826119e1565b602082019050919050565b60006020820190508181036000830152611a4681611a0a565b9050919050565b7f44494420616c7265616479206578697374730000000000000000000000000000600082015250565b6000611a836012836112e2565b9150611a8e82611a4d565b602082019050919050565b60006020820190508181036000830152611ab281611a76565b9050919050565b7f4449442063616e6e6f7420626520656d70747900000000000000000000000000600082015250565b6000611aef6013836112e2565b9150611afa82611ab9565b602082019050919050565b60006020820190508181036000830152611b1e81611ae2565b9050919050565b7f436f6e74726f6c6c65722063616e6e6f7420626520656d707479000000000000600082015250565b6000611b5b601a836112e2565b9150611b6682611b25565b602082019050919050565b60006020820190508181036000830152611b8a81611b4e565b9050919050565b600081549050919050565b60008190508160005260206000209050919050565b60008154611bbe8161159b565b611bc8818661113e565b94506001821660008114611be35760018114611bf957611c2c565b60ff198316865281151560200286019350611c2c565b611c02856116f7565b60005b83811015611c2457815481890152600182019150602081019050611c05565b808801955050505b50505092915050565b6000611c418383611bb1565b905092915050565b6000600182019050919050565b6000611c6182611b91565b611c6b8185611112565b935083602082028501611c7d85611b9c565b8060005b85811015611cb857848403895281611c998582611c35565b9450611ca483611c49565b925060208a01995050600181019050611c81565b50829750879550505050505092915050565b60006020820190508181036000830152611ce48184611c56565b905092915050565b7f4e487b7100000000000000000000000000000000000000000000000000000000600052603260045260246000fd5b600081905092915050565b60008190508160005260206000209050919050565b60008154611d488161159b565b611d528186611d1b565b94506001821660008114611d6d5760018114611d8257611db5565b60ff1983168652811515820286019350611db5565b611d8b85611d26565b60005b83811015611dad57815481890152600182019150602081019050611d8e565b838801955050505b50505092915050565b6000611dca8284611d3b565b91508190509291505056fea26469706673582212205c44d8548ab9b3f825378e1fe091c985b798712c60539b5e475589f924e51ae764736f6c634300081c0033","opcodes":"PUSH1 0x80 PUSH1 0x40 MSTORE CALLVALUE DUP1 ISZERO PUSH1 0xF JUMPI PUSH1 0x0 DUP1 REVERT JUMPDEST POP PUSH2 0x1E0B DUP1 PUSH2 0x1F PUSH1 0x0 CODECOPY PUSH1 0x0 RETURN INVALID PUSH1 0x80 PUSH1 0x40 MSTORE CALLVALUE DUP1 ISZERO PUSH2 0x10 JUMPI PUSH1 0x0 DUP1 REVERT JUMPDEST POP PUSH1 0x4 CALLDATASIZE LT PUSH2 0xB4 JUMPI PUSH1 0x0 CALLDATALOAD PUSH1 0xE0 SHR DUP1 PUSH4 0x97C414DF GT PUSH2 0x71 JUMPI DUP1 PUSH4 0x97C414DF EQ PUSH2 0x190 JUMPI DUP1 PUSH4 0xADE53CF8 EQ PUSH2 0x1AC JUMPI DUP1 PUSH4 0xD493CB77 EQ PUSH2 0x1C8 JUMPI DUP1 PUSH4 0xD8FA638D EQ PUSH2 0x1F8 JUMPI DUP1 PUSH4 0xF2A40DB8 EQ PUSH2 0x228 JUMPI DUP1 PUSH4 0xF92959F0 EQ PUSH2 0x258 JUMPI PUSH2 0xB4 JUMP JUMPDEST DUP1 PUSH4 0x8E93D0A EQ PUSH2 0xB9 JUMPI DUP1 PUSH4 0x20DD57A9 EQ PUSH2 0xD7 JUMPI DUP1 PUSH4 0x4C95303A EQ PUSH2 0x107 JUMPI DUP1 PUSH4 0x4ECE5B4C EQ PUSH2 0x125 JUMPI DUP1 PUSH4 0x570810E2 EQ PUSH2 0x141 JUMPI DUP1 PUSH4 0x784AFC4E EQ PUSH2 0x15D JUMPI JUMPDEST PUSH1 0x0 DUP1 REVERT JUMPDEST PUSH2 0xC1 PUSH2 0x288 JUMP JUMPDEST PUSH1 0x40 MLOAD PUSH2 0xCE SWAP2 SWAP1 PUSH2 0xF0C JUMP JUMPDEST PUSH1 0x40 MLOAD DUP1 SWAP2 SUB SWAP1 RETURN JUMPDEST PUSH2 0xF1 PUSH1 0x4 DUP1 CALLDATASIZE SUB DUP2 ADD SWAP1 PUSH2 0xEC SWAP2 SWAP1 PUSH2 0x1088 JUMP JUMPDEST PUSH2 0x316 JUMP JUMPDEST PUSH1 0x40 MLOAD PUSH2 0xFE SWAP2 SWAP1 PUSH2 0x10EC JUMP JUMPDEST PUSH1 0x40 MLOAD DUP1 SWAP2 SUB SWAP1 RETURN JUMPDEST PUSH2 0x10F PUSH2 0x328 JUMP JUMPDEST PUSH1 0x40 MLOAD PUSH2 0x11C SWAP2 SWAP1 PUSH2 0x1248 JUMP JUMPDEST PUSH1 0x40 MLOAD DUP1 SWAP2 SUB SWAP1 RETURN JUMPDEST PUSH2 0x13F PUSH1 0x4 DUP1 CALLDATASIZE SUB DUP2 ADD SWAP1 PUSH2 0x13A SWAP2 SWAP1 PUSH2 0x126A JUMP JUMPDEST PUSH2 0x401 JUMP JUMPDEST STOP JUMPDEST PUSH2 0x15B PUSH1 0x4 DUP1 CALLDATASIZE SUB DUP2 ADD SWAP1 PUSH2 0x156 SWAP2 SWAP1 PUSH2 0x1088 JUMP JUMPDEST PUSH2 0x50A JUMP JUMPDEST STOP JUMPDEST PUSH2 0x177 PUSH1 0x4 DUP1 CALLDATASIZE SUB DUP2 ADD SWAP1 PUSH2 0x172 SWAP2 SWAP1 PUSH2 0x1088 JUMP JUMPDEST PUSH2 0x5AE JUMP JUMPDEST PUSH1 0x40 MLOAD PUSH2 0x187 SWAP5 SWAP4 SWAP3 SWAP2 SWAP1 PUSH2 0x132C JUMP JUMPDEST PUSH1 0x40 MLOAD DUP1 SWAP2 SUB SWAP1 RETURN JUMPDEST PUSH2 0x1AA PUSH1 0x4 DUP1 CALLDATASIZE SUB DUP2 ADD SWAP1 PUSH2 0x1A5 SWAP2 SWAP1 PUSH2 0x13B9 JUMP JUMPDEST PUSH2 0x8AF JUMP JUMPDEST STOP JUMPDEST PUSH2 0x1C6 PUSH1 0x4 DUP1 CALLDATASIZE SUB DUP2 ADD SWAP1 PUSH2 0x1C1 SWAP2 SWAP1 PUSH2 0x13E6 JUMP JUMPDEST PUSH2 0x9FA JUMP JUMPDEST STOP JUMPDEST PUSH2 0x1E2 PUSH1 0x4 DUP1 CALLDATASIZE SUB DUP2 ADD SWAP1 PUSH2 0x1DD SWAP2 SWAP1 PUSH2 0x1088 JUMP JUMPDEST PUSH2 0xC4E JUMP JUMPDEST PUSH1 0x40 MLOAD PUSH2 0x1EF SWAP2 SWAP1 PUSH2 0x10EC JUMP JUMPDEST PUSH1 0x40 MLOAD DUP1 SWAP2 SUB SWAP1 RETURN JUMPDEST PUSH2 0x212 PUSH1 0x4 DUP1 CALLDATASIZE SUB DUP2 ADD SWAP1 PUSH2 0x20D SWAP2 SWAP1 PUSH2 0x13B9 JUMP JUMPDEST PUSH2 0xCC5 JUMP JUMPDEST PUSH1 0x40 MLOAD PUSH2 0x21F SWAP2 SWAP1 PUSH2 0x10EC JUMP JUMPDEST PUSH1 0x40 MLOAD DUP1 SWAP2 SUB SWAP1 RETURN JUMPDEST PUSH2 0x242 PUSH1 0x4 DUP1 CALLDATASIZE SUB DUP2 ADD SWAP1 PUSH2 0x23D SWAP2 SWAP1 PUSH2 0x14F3 JUMP JUMPDEST PUSH2 0xCE5 JUMP JUMPDEST PUSH1 0x40 MLOAD PUSH2 0x24F SWAP2 SWAP1 PUSH2 0x152F JUMP JUMPDEST PUSH1 0x40 MLOAD DUP1 SWAP2 SUB SWAP1 RETURN JUMPDEST PUSH2 0x272 PUSH1 0x4 DUP1 CALLDATASIZE SUB DUP2 ADD SWAP1 PUSH2 0x26D SWAP2 SWAP1 PUSH2 0x1088 JUMP JUMPDEST PUSH2 0xD24 JUMP JUMPDEST PUSH1 0x40 MLOAD PUSH2 0x27F SWAP2 SWAP1 PUSH2 0x154A JUMP JUMPDEST PUSH1 0x40 MLOAD DUP1 SWAP2 SUB SWAP1 RETURN JUMPDEST PUSH1 0x60 PUSH1 0x3 DUP1 SLOAD DUP1 PUSH1 0x20 MUL PUSH1 0x20 ADD PUSH1 0x40 MLOAD SWAP1 DUP2 ADD PUSH1 0x40 MSTORE DUP1 SWAP3 SWAP2 SWAP1 DUP2 DUP2 MSTORE PUSH1 0x20 ADD DUP3 DUP1 SLOAD DUP1 ISZERO PUSH2 0x30C JUMPI PUSH1 0x20 MUL DUP3 ADD SWAP2 SWAP1 PUSH1 0x0 MSTORE PUSH1 0x20 PUSH1 0x0 KECCAK256 SWAP1 JUMPDEST DUP2 PUSH1 0x0 SWAP1 SLOAD SWAP1 PUSH2 0x100 EXP SWAP1 DIV PUSH20 0xFFFFFFFFFFFFFFFFFFFFFFFFFFFFFFFFFFFFFFFF AND PUSH20 0xFFFFFFFFFFFFFFFFFFFFFFFFFFFFFFFFFFFFFFFF AND DUP2 MSTORE PUSH1 0x20 ADD SWAP1 PUSH1 0x1 ADD SWAP1 DUP1 DUP4 GT PUSH2 0x2C2 JUMPI JUMPDEST POP POP POP POP POP SWAP1 POP SWAP1 JUMP JUMPDEST PUSH1 0x0 PUSH2 0x321 DUP3 PUSH2 0xC4E JUMP JUMPDEST SWAP1 POP SWAP2 SWAP1 POP JUMP JUMPDEST PUSH1 0x60 PUSH1 0x4 DUP1 SLOAD DUP1 PUSH1 0x20 MUL PUSH1 0x20 ADD PUSH1 0x40 MLOAD SWAP1 DUP2 ADD PUSH1 0x40 MSTORE DUP1 SWAP3 SWAP2 SWAP1 DUP2 DUP2 MSTORE PUSH1 0x20 ADD PUSH1 0x0 SWAP1 JUMPDEST DUP3 DUP3 LT ISZERO PUSH2 0x3F8 JUMPI DUP4 DUP3 SWAP1 PUSH1 0x0 MSTORE PUSH1 0x20 PUSH1 0x0 KECCAK256 ADD DUP1 SLOAD PUSH2 0x36B SWAP1 PUSH2 0x159B JUMP JUMPDEST DUP1 PUSH1 0x1F ADD PUSH1 0x20 DUP1 SWAP2 DIV MUL PUSH1 0x20 ADD PUSH1 0x40 MLOAD SWAP1 DUP2 ADD PUSH1 0x40 MSTORE DUP1 SWAP3 SWAP2 SWAP1 DUP2 DUP2 MSTORE PUSH1 0x20 ADD DUP3 DUP1 SLOAD PUSH2 0x397 SWAP1 PUSH2 0x159B JUMP JUMPDEST DUP1 ISZERO PUSH2 0x3E4 JUMPI DUP1 PUSH1 0x1F LT PUSH2 0x3B9 JUMPI PUSH2 0x100 DUP1 DUP4 SLOAD DIV MUL DUP4 MSTORE SWAP2 PUSH1 0x20 ADD SWAP2 PUSH2 0x3E4 JUMP JUMPDEST DUP3 ADD SWAP2 SWAP1 PUSH1 0x0 MSTORE PUSH1 0x20 PUSH1 0x0 KECCAK256 SWAP1 JUMPDEST DUP2 SLOAD DUP2 MSTORE SWAP1 PUSH1 0x1 ADD SWAP1 PUSH1 0x20 ADD DUP1 DUP4 GT PUSH2 0x3C7 JUMPI DUP3 SWAP1 SUB PUSH1 0x1F AND DUP3 ADD SWAP2 JUMPDEST POP POP POP POP POP DUP2 MSTORE PUSH1 0x20 ADD SWAP1 PUSH1 0x1 ADD SWAP1 PUSH2 0x34C JUMP JUMPDEST POP POP POP POP SWAP1 POP SWAP1 JUMP JUMPDEST PUSH2 0x40A DUP3 PUSH2 0xC4E JUMP JUMPDEST PUSH2 0x449 JUMPI PUSH1 0x40 MLOAD PUSH32 0x8C379A000000000000000000000000000000000000000000000000000000000 DUP2 MSTORE PUSH1 0x4 ADD PUSH2 0x440 SWAP1 PUSH2 0x1618 JUMP JUMPDEST PUSH1 0x40 MLOAD DUP1 SWAP2 SUB SWAP1 REVERT JUMPDEST PUSH1 0x0 DUP2 MLOAD GT PUSH2 0x48D JUMPI PUSH1 0x40 MLOAD PUSH32 0x8C379A000000000000000000000000000000000000000000000000000000000 DUP2 MSTORE PUSH1 0x4 ADD PUSH2 0x484 SWAP1 PUSH2 0x1684 JUMP JUMPDEST PUSH1 0x40 MLOAD DUP1 SWAP2 SUB SWAP1 REVERT JUMPDEST DUP1 PUSH1 0x1 DUP4 PUSH1 0x40 MLOAD PUSH2 0x49E SWAP2 SWAP1 PUSH2 0x16E0 JUMP JUMPDEST SWAP1 DUP2 MSTORE PUSH1 0x20 ADD PUSH1 0x40 MLOAD DUP1 SWAP2 SUB SWAP1 KECCAK256 SWAP1 DUP2 PUSH2 0x4B8 SWAP2 SWAP1 PUSH2 0x18A3 JUMP JUMPDEST POP DUP2 PUSH1 0x40 MLOAD PUSH2 0x4C7 SWAP2 SWAP1 PUSH2 0x16E0 JUMP JUMPDEST PUSH1 0x40 MLOAD DUP1 SWAP2 SUB SWAP1 KECCAK256 PUSH32 0x4D29B7F0EE29FD19BC5C40E7A45531C8498CE1293F4C3F7F42518934235F36ED DUP3 PUSH1 0x40 MLOAD PUSH2 0x4FE SWAP2 SWAP1 PUSH2 0x154A JUMP JUMPDEST PUSH1 0x40 MLOAD DUP1 SWAP2 SUB SWAP1 LOG2 POP POP JUMP JUMPDEST PUSH2 0x513 DUP2 PUSH2 0xC4E JUMP JUMPDEST PUSH2 0x552 JUMPI PUSH1 0x40 MLOAD PUSH32 0x8C379A000000000000000000000000000000000000000000000000000000000 DUP2 MSTORE PUSH1 0x4 ADD PUSH2 0x549 SWAP1 PUSH2 0x19C1 JUMP JUMPDEST PUSH1 0x40 MLOAD DUP1 SWAP2 SUB SWAP1 REVERT JUMPDEST CALLER PUSH20 0xFFFFFFFFFFFFFFFFFFFFFFFFFFFFFFFFFFFFFFFF AND DUP2 PUSH1 0x40 MLOAD PUSH2 0x577 SWAP2 SWAP1 PUSH2 0x16E0 JUMP JUMPDEST PUSH1 0x40 MLOAD DUP1 SWAP2 SUB SWAP1 KECCAK256 PUSH32 0xD59E4D670F6E249831D6F8CE560F47CED54B3F4203E2D0050DC495FD6B919DD2 PUSH1 0x40 MLOAD PUSH1 0x40 MLOAD DUP1 SWAP2 SUB SWAP1 LOG3 POP JUMP JUMPDEST PUSH1 0x60 DUP1 PUSH1 0x60 DUP1 PUSH2 0x5BD DUP6 PUSH2 0xC4E JUMP JUMPDEST PUSH2 0x5FC JUMPI PUSH1 0x40 MLOAD PUSH32 0x8C379A000000000000000000000000000000000000000000000000000000000 DUP2 MSTORE PUSH1 0x4 ADD PUSH2 0x5F3 SWAP1 PUSH2 0x19C1 JUMP JUMPDEST PUSH1 0x40 MLOAD DUP1 SWAP2 SUB SWAP1 REVERT JUMPDEST PUSH1 0x0 DUP1 DUP7 PUSH1 0x40 MLOAD PUSH2 0x60D SWAP2 SWAP1 PUSH2 0x16E0 JUMP JUMPDEST SWAP1 DUP2 MSTORE PUSH1 0x20 ADD PUSH1 0x40 MLOAD DUP1 SWAP2 SUB SWAP1 KECCAK256 PUSH1 0x40 MLOAD DUP1 PUSH1 0xA0 ADD PUSH1 0x40 MSTORE SWAP1 DUP2 PUSH1 0x0 DUP3 ADD DUP1 SLOAD PUSH2 0x636 SWAP1 PUSH2 0x159B JUMP JUMPDEST DUP1 PUSH1 0x1F ADD PUSH1 0x20 DUP1 SWAP2 DIV MUL PUSH1 0x20 ADD PUSH1 0x40 MLOAD SWAP1 DUP2 ADD PUSH1 0x40 MSTORE DUP1 SWAP3 SWAP2 SWAP1 DUP2 DUP2 MSTORE PUSH1 0x20 ADD DUP3 DUP1 SLOAD PUSH2 0x662 SWAP1 PUSH2 0x159B JUMP JUMPDEST DUP1 ISZERO PUSH2 0x6AF JUMPI DUP1 PUSH1 0x1F LT PUSH2 0x684 JUMPI PUSH2 0x100 DUP1 DUP4 SLOAD DIV MUL DUP4 MSTORE SWAP2 PUSH1 0x20 ADD SWAP2 PUSH2 0x6AF JUMP JUMPDEST DUP3 ADD SWAP2 SWAP1 PUSH1 0x0 MSTORE PUSH1 0x20 PUSH1 0x0 KECCAK256 SWAP1 JUMPDEST DUP2 SLOAD DUP2 MSTORE SWAP1 PUSH1 0x1 ADD SWAP1 PUSH1 0x20 ADD DUP1 DUP4 GT PUSH2 0x692 JUMPI DUP3 SWAP1 SUB PUSH1 0x1F AND DUP3 ADD SWAP2 JUMPDEST POP POP POP POP POP DUP2 MSTORE PUSH1 0x20 ADD PUSH1 0x1 DUP3 ADD DUP1 SLOAD PUSH2 0x6C8 SWAP1 PUSH2 0x159B JUMP JUMPDEST DUP1 PUSH1 0x1F ADD PUSH1 0x20 DUP1 SWAP2 DIV MUL PUSH1 0x20 ADD PUSH1 0x40 MLOAD SWAP1 DUP2 ADD PUSH1 0x40 MSTORE DUP1 SWAP3 SWAP2 SWAP1 DUP2 DUP2 MSTORE PUSH1 0x20 ADD DUP3 DUP1 SLOAD PUSH2 0x6F4 SWAP1 PUSH2 0x159B JUMP JUMPDEST DUP1 ISZERO PUSH2 0x741 JUMPI DUP1 PUSH1 0x1F LT PUSH2 0x716 JUMPI PUSH2 0x100 DUP1 DUP4 SLOAD DIV MUL DUP4 MSTORE SWAP2 PUSH1 0x20 ADD SWAP2 PUSH2 0x741 JUMP JUMPDEST DUP3 ADD SWAP2 SWAP1 PUSH1 0x0 MSTORE PUSH1 0x20 PUSH1 0x0 KECCAK256 SWAP1 JUMPDEST DUP2 SLOAD DUP2 MSTORE SWAP1 PUSH1 0x1 ADD SWAP1 PUSH1 0x20 ADD DUP1 DUP4 GT PUSH2 0x724 JUMPI DUP3 SWAP1 SUB PUSH1 0x1F AND DUP3 ADD SWAP2 JUMPDEST POP POP POP POP POP DUP2 MSTORE PUSH1 0x20 ADD PUSH1 0x2 DUP3 ADD DUP1 SLOAD PUSH2 0x75A SWAP1 PUSH2 0x159B JUMP JUMPDEST DUP1 PUSH1 0x1F ADD PUSH1 0x20 DUP1 SWAP2 DIV MUL PUSH1 0x20 ADD PUSH1 0x40 MLOAD SWAP1 DUP2 ADD PUSH1 0x40 MSTORE DUP1 SWAP3 SWAP2 SWAP1 DUP2 DUP2 MSTORE PUSH1 0x20 ADD DUP3 DUP1 SLOAD PUSH2 0x786 SWAP1 PUSH2 0x159B JUMP JUMPDEST DUP1 ISZERO PUSH2 0x7D3 JUMPI DUP1 PUSH1 0x1F LT PUSH2 0x7A8 JUMPI PUSH2 0x100 DUP1 DUP4 SLOAD DIV MUL DUP4 MSTORE SWAP2 PUSH1 0x20 ADD SWAP2 PUSH2 0x7D3 JUMP JUMPDEST DUP3 ADD SWAP2 SWAP1 PUSH1 0x0 MSTORE PUSH1 0x20 PUSH1 0x0 KECCAK256 SWAP1 JUMPDEST DUP2 SLOAD DUP2 MSTORE SWAP1 PUSH1 0x1 ADD SWAP1 PUSH1 0x20 ADD DUP1 DUP4 GT PUSH2 0x7B6 JUMPI DUP3 SWAP1 SUB PUSH1 0x1F AND DUP3 ADD SWAP2 JUMPDEST POP POP POP POP POP DUP2 MSTORE PUSH1 0x20 ADD PUSH1 0x3 DUP3 ADD DUP1 SLOAD PUSH2 0x7EC SWAP1 PUSH2 0x159B JUMP JUMPDEST DUP1 PUSH1 0x1F ADD PUSH1 0x20 DUP1 SWAP2 DIV MUL PUSH1 0x20 ADD PUSH1 0x40 MLOAD SWAP1 DUP2 ADD PUSH1 0x40 MSTORE DUP1 SWAP3 SWAP2 SWAP1 DUP2 DUP2 MSTORE PUSH1 0x20 ADD DUP3 DUP1 SLOAD PUSH2 0x818 SWAP1 PUSH2 0x159B JUMP JUMPDEST DUP1 ISZERO PUSH2 0x865 JUMPI DUP1 PUSH1 0x1F LT PUSH2 0x83A JUMPI PUSH2 0x100 DUP1 DUP4 SLOAD DIV MUL DUP4 MSTORE SWAP2 PUSH1 0x20 ADD SWAP2 PUSH2 0x865 JUMP JUMPDEST DUP3 ADD SWAP2 SWAP1 PUSH1 0x0 MSTORE PUSH1 0x20 PUSH1 0x0 KECCAK256 SWAP1 JUMPDEST DUP2 SLOAD DUP2 MSTORE SWAP1 PUSH1 0x1 ADD SWAP1 PUSH1 0x20 ADD DUP1 DUP4 GT PUSH2 0x848 JUMPI DUP3 SWAP1 SUB PUSH1 0x1F AND DUP3 ADD SWAP2 JUMPDEST POP POP POP POP POP DUP2 MSTORE PUSH1 0x20 ADD PUSH1 0x4 DUP3 ADD PUSH1 0x0 SWAP1 SLOAD SWAP1 PUSH2 0x100 EXP SWAP1 DIV PUSH1 0xFF AND ISZERO ISZERO ISZERO ISZERO DUP2 MSTORE POP POP SWAP1 POP DUP1 PUSH1 0x0 ADD MLOAD DUP2 PUSH1 0x20 ADD MLOAD DUP3 PUSH1 0x40 ADD MLOAD DUP4 PUSH1 0x60 ADD MLOAD SWAP5 POP SWAP5 POP SWAP5 POP SWAP5 POP POP SWAP2 SWAP4 POP SWAP2 SWAP4 JUMP JUMPDEST PUSH1 0x2 PUSH1 0x0 DUP3 PUSH20 0xFFFFFFFFFFFFFFFFFFFFFFFFFFFFFFFFFFFFFFFF AND PUSH20 0xFFFFFFFFFFFFFFFFFFFFFFFFFFFFFFFFFFFFFFFF AND DUP2 MSTORE PUSH1 0x20 ADD SWAP1 DUP2 MSTORE PUSH1 0x20 ADD PUSH1 0x0 KECCAK256 PUSH1 0x0 SWAP1 SLOAD SWAP1 PUSH2 0x100 EXP SWAP1 DIV PUSH1 0xFF AND ISZERO PUSH2 0x93C JUMPI PUSH1 0x40 MLOAD PUSH32 0x8C379A000000000000000000000000000000000000000000000000000000000 DUP2 MSTORE PUSH1 0x4 ADD PUSH2 0x933 SWAP1 PUSH2 0x1A2D JUMP JUMPDEST PUSH1 0x40 MLOAD DUP1 SWAP2 SUB SWAP1 REVERT JUMPDEST PUSH1 0x1 PUSH1 0x2 PUSH1 0x0 DUP4 PUSH20 0xFFFFFFFFFFFFFFFFFFFFFFFFFFFFFFFFFFFFFFFF AND PUSH20 0xFFFFFFFFFFFFFFFFFFFFFFFFFFFFFFFFFFFFFFFF AND DUP2 MSTORE PUSH1 0x20 ADD SWAP1 DUP2 MSTORE PUSH1 0x20 ADD PUSH1 0x0 KECCAK256 PUSH1 0x0 PUSH2 0x100 EXP DUP2 SLOAD DUP2 PUSH1 0xFF MUL NOT AND SWAP1 DUP4 ISZERO ISZERO MUL OR SWAP1 SSTORE POP PUSH1 0x3 DUP2 SWAP1 DUP1 PUSH1 0x1 DUP2 SLOAD ADD DUP1 DUP3 SSTORE DUP1 SWAP2 POP POP PUSH1 0x1 SWAP1 SUB SWAP1 PUSH1 0x0 MSTORE PUSH1 0x20 PUSH1 0x0 KECCAK256 ADD PUSH1 0x0 SWAP1 SWAP2 SWAP1 SWAP2 SWAP1 SWAP2 PUSH2 0x100 EXP DUP2 SLOAD DUP2 PUSH20 0xFFFFFFFFFFFFFFFFFFFFFFFFFFFFFFFFFFFFFFFF MUL NOT AND SWAP1 DUP4 PUSH20 0xFFFFFFFFFFFFFFFFFFFFFFFFFFFFFFFFFFFFFFFF AND MUL OR SWAP1 SSTORE POP POP JUMP JUMPDEST PUSH2 0xA03 DUP5 PUSH2 0xC4E JUMP JUMPDEST ISZERO PUSH2 0xA43 JUMPI PUSH1 0x40 MLOAD PUSH32 0x8C379A000000000000000000000000000000000000000000000000000000000 DUP2 MSTORE PUSH1 0x4 ADD PUSH2 0xA3A SWAP1 PUSH2 0x1A99 JUMP JUMPDEST PUSH1 0x40 MLOAD DUP1 SWAP2 SUB SWAP1 REVERT JUMPDEST PUSH1 0x0 DUP5 MLOAD GT PUSH2 0xA87 JUMPI PUSH1 0x40 MLOAD PUSH32 0x8C379A000000000000000000000000000000000000000000000000000000000 DUP2 MSTORE PUSH1 0x4 ADD PUSH2 0xA7E SWAP1 PUSH2 0x1B05 JUMP JUMPDEST PUSH1 0x40 MLOAD DUP1 SWAP2 SUB SWAP1 REVERT JUMPDEST PUSH1 0x0 DUP4 MLOAD GT PUSH2 0xACB JUMPI PUSH1 0x40 MLOAD PUSH32 0x8C379A000000000000000000000000000000000000000000000000000000000 DUP2 MSTORE PUSH1 0x4 ADD PUSH2 0xAC2 SWAP1 PUSH2 0x1B71 JUMP JUMPDEST PUSH1 0x40 MLOAD DUP1 SWAP2 SUB SWAP1 REVERT JUMPDEST PUSH1 0x40 MLOAD DUP1 PUSH1 0xA0 ADD PUSH1 0x40 MSTORE DUP1 DUP6 DUP2 MSTORE PUSH1 0x20 ADD DUP5 DUP2 MSTORE PUSH1 0x20 ADD DUP4 DUP2 MSTORE PUSH1 0x20 ADD DUP3 DUP2 MSTORE PUSH1 0x20 ADD PUSH1 0x1 ISZERO ISZERO DUP2 MSTORE POP PUSH1 0x0 DUP6 PUSH1 0x40 MLOAD PUSH2 0xB05 SWAP2 SWAP1 PUSH2 0x16E0 JUMP JUMPDEST SWAP1 DUP2 MSTORE PUSH1 0x20 ADD PUSH1 0x40 MLOAD DUP1 SWAP2 SUB SWAP1 KECCAK256 PUSH1 0x0 DUP3 ADD MLOAD DUP2 PUSH1 0x0 ADD SWAP1 DUP2 PUSH2 0xB28 SWAP2 SWAP1 PUSH2 0x18A3 JUMP JUMPDEST POP PUSH1 0x20 DUP3 ADD MLOAD DUP2 PUSH1 0x1 ADD SWAP1 DUP2 PUSH2 0xB3E SWAP2 SWAP1 PUSH2 0x18A3 JUMP JUMPDEST POP PUSH1 0x40 DUP3 ADD MLOAD DUP2 PUSH1 0x2 ADD SWAP1 DUP2 PUSH2 0xB54 SWAP2 SWAP1 PUSH2 0x18A3 JUMP JUMPDEST POP PUSH1 0x60 DUP3 ADD MLOAD DUP2 PUSH1 0x3 ADD SWAP1 DUP2 PUSH2 0xB6A SWAP2 SWAP1 PUSH2 0x18A3 JUMP JUMPDEST POP PUSH1 0x80 DUP3 ADD MLOAD DUP2 PUSH1 0x4 ADD PUSH1 0x0 PUSH2 0x100 EXP DUP2 SLOAD DUP2 PUSH1 0xFF MUL NOT AND SWAP1 DUP4 ISZERO ISZERO MUL OR SWAP1 SSTORE POP SWAP1 POP POP PUSH1 0x4 DUP5 SWAP1 DUP1 PUSH1 0x1 DUP2 SLOAD ADD DUP1 DUP3 SSTORE DUP1 SWAP2 POP POP PUSH1 0x1 SWAP1 SUB SWAP1 PUSH1 0x0 MSTORE PUSH1 0x20 PUSH1 0x0 KECCAK256 ADD PUSH1 0x0 SWAP1 SWAP2 SWAP1 SWAP2 SWAP1 SWAP2 POP SWAP1 DUP2 PUSH2 0xBC2 SWAP2 SWAP1 PUSH2 0x18A3 JUMP JUMPDEST POP DUP4 PUSH1 0x40 MLOAD PUSH2 0xBD1 SWAP2 SWAP1 PUSH2 0x16E0 JUMP JUMPDEST PUSH1 0x40 MLOAD DUP1 SWAP2 SUB SWAP1 KECCAK256 PUSH32 0x15A910D2EFAF7349F437C783D73A5FC8330AFAD390E19AC0D6BEBD5EBE1301EE DUP5 PUSH1 0x40 MLOAD PUSH2 0xC08 SWAP2 SWAP1 PUSH2 0x154A JUMP JUMPDEST PUSH1 0x40 MLOAD DUP1 SWAP2 SUB SWAP1 LOG2 PUSH32 0x75AD01C9A06FAC19E88E8DDAF8B828B83BE0B7456AC46B55EEEE92F1B5329024 PUSH1 0x4 PUSH1 0x40 MLOAD PUSH2 0xC40 SWAP2 SWAP1 PUSH2 0x1CCA JUMP JUMPDEST PUSH1 0x40 MLOAD DUP1 SWAP2 SUB SWAP1 LOG1 POP POP POP POP JUMP JUMPDEST PUSH1 0x0 DUP1 PUSH1 0x0 SWAP1 POP JUMPDEST PUSH1 0x4 DUP1 SLOAD SWAP1 POP DUP2 LT ISZERO PUSH2 0xCBA JUMPI DUP3 DUP1 MLOAD SWAP1 PUSH1 0x20 ADD KECCAK256 PUSH1 0x4 DUP3 DUP2 SLOAD DUP2 LT PUSH2 0xC7F JUMPI PUSH2 0xC7E PUSH2 0x1CEC JUMP JUMPDEST JUMPDEST SWAP1 PUSH1 0x0 MSTORE PUSH1 0x20 PUSH1 0x0 KECCAK256 ADD PUSH1 0x40 MLOAD PUSH2 0xC96 SWAP2 SWAP1 PUSH2 0x1DBE JUMP JUMPDEST PUSH1 0x40 MLOAD DUP1 SWAP2 SUB SWAP1 KECCAK256 SUB PUSH2 0xCAD JUMPI PUSH1 0x1 SWAP2 POP POP PUSH2 0xCC0 JUMP JUMPDEST DUP1 DUP1 PUSH1 0x1 ADD SWAP2 POP POP PUSH2 0xC56 JUMP JUMPDEST POP PUSH1 0x0 SWAP1 POP JUMPDEST SWAP2 SWAP1 POP JUMP JUMPDEST PUSH1 0x2 PUSH1 0x20 MSTORE DUP1 PUSH1 0x0 MSTORE PUSH1 0x40 PUSH1 0x0 KECCAK256 PUSH1 0x0 SWAP2 POP SLOAD SWAP1 PUSH2 0x100 EXP SWAP1 DIV PUSH1 0xFF AND DUP2 JUMP JUMPDEST PUSH1 0x3 DUP2 DUP2 SLOAD DUP2 LT PUSH2 0xCF5 JUMPI PUSH1 0x0 DUP1 REVERT JUMPDEST SWAP1 PUSH1 0x0 MSTORE PUSH1 0x20 PUSH1 0x0 KECCAK256 ADD PUSH1 0x0 SWAP2 POP SLOAD SWAP1 PUSH2 0x100 EXP SWAP1 DIV PUSH20 0xFFFFFFFFFFFFFFFFFFFFFFFFFFFFFFFFFFFFFFFF AND DUP2 JUMP JUMPDEST PUSH1 0x60 PUSH2 0xD2F DUP3 PUSH2 0xC4E JUMP JUMPDEST PUSH2 0xD6E JUMPI PUSH1 0x40 MLOAD PUSH32 0x8C379A000000000000000000000000000000000000000000000000000000000 DUP2 MSTORE PUSH1 0x4 ADD PUSH2 0xD65 SWAP1 PUSH2 0x1618 JUMP JUMPDEST PUSH1 0x40 MLOAD DUP1 SWAP2 SUB SWAP1 REVERT JUMPDEST PUSH1 0x1 DUP3 PUSH1 0x40 MLOAD PUSH2 0xD7E SWAP2 SWAP1 PUSH2 0x16E0 JUMP JUMPDEST SWAP1 DUP2 MSTORE PUSH1 0x20 ADD PUSH1 0x40 MLOAD DUP1 SWAP2 SUB SWAP1 KECCAK256 DUP1 SLOAD PUSH2 0xD97 SWAP1 PUSH2 0x159B JUMP JUMPDEST DUP1 PUSH1 0x1F ADD PUSH1 0x20 DUP1 SWAP2 DIV MUL PUSH1 0x20 ADD PUSH1 0x40 MLOAD SWAP1 DUP2 ADD PUSH1 0x40 MSTORE DUP1 SWAP3 SWAP2 SWAP1 DUP2 DUP2 MSTORE PUSH1 0x20 ADD DUP3 DUP1 SLOAD PUSH2 0xDC3 SWAP1 PUSH2 0x159B JUMP JUMPDEST DUP1 ISZERO PUSH2 0xE10 JUMPI DUP1 PUSH1 0x1F LT PUSH2 0xDE5 JUMPI PUSH2 0x100 DUP1 DUP4 SLOAD DIV MUL DUP4 MSTORE SWAP2 PUSH1 0x20 ADD SWAP2 PUSH2 0xE10 JUMP JUMPDEST DUP3 ADD SWAP2 SWAP1 PUSH1 0x0 MSTORE PUSH1 0x20 PUSH1 0x0 KECCAK256 SWAP1 JUMPDEST DUP2 SLOAD DUP2 MSTORE SWAP1 PUSH1 0x1 ADD SWAP1 PUSH1 0x20 ADD DUP1 DUP4 GT PUSH2 0xDF3 JUMPI DUP3 SWAP1 SUB PUSH1 0x1F AND DUP3 ADD SWAP2 JUMPDEST POP POP POP POP POP SWAP1 POP SWAP2 SWAP1 POP JUMP JUMPDEST PUSH1 0x0 DUP2 MLOAD SWAP1 POP SWAP2 SWAP1 POP JUMP JUMPDEST PUSH1 0x0 DUP3 DUP3 MSTORE PUSH1 0x20 DUP3 ADD SWAP1 POP SWAP3 SWAP2 POP POP JUMP JUMPDEST PUSH1 0x0 DUP2 SWAP1 POP PUSH1 0x20 DUP3 ADD SWAP1 POP SWAP2 SWAP1 POP JUMP JUMPDEST PUSH1 0x0 PUSH20 0xFFFFFFFFFFFFFFFFFFFFFFFFFFFFFFFFFFFFFFFF DUP3 AND SWAP1 POP SWAP2 SWAP1 POP JUMP JUMPDEST PUSH1 0x0 PUSH2 0xE73 DUP3 PUSH2 0xE48 JUMP JUMPDEST SWAP1 POP SWAP2 SWAP1 POP JUMP JUMPDEST PUSH2 0xE83 DUP2 PUSH2 0xE68 JUMP JUMPDEST DUP3 MSTORE POP POP JUMP JUMPDEST PUSH1 0x0 PUSH2 0xE95 DUP4 DUP4 PUSH2 0xE7A JUMP JUMPDEST PUSH1 0x20 DUP4 ADD SWAP1 POP SWAP3 SWAP2 POP POP JUMP JUMPDEST PUSH1 0x0 PUSH1 0x20 DUP3 ADD SWAP1 POP SWAP2 SWAP1 POP JUMP JUMPDEST PUSH1 0x0 PUSH2 0xEB9 DUP3 PUSH2 0xE1C JUMP JUMPDEST PUSH2 0xEC3 DUP2 DUP6 PUSH2 0xE27 JUMP JUMPDEST SWAP4 POP PUSH2 0xECE DUP4 PUSH2 0xE38 JUMP JUMPDEST DUP1 PUSH1 0x0 JUMPDEST DUP4 DUP2 LT ISZERO PUSH2 0xEFF JUMPI DUP2 MLOAD PUSH2 0xEE6 DUP9 DUP3 PUSH2 0xE89 JUMP JUMPDEST SWAP8 POP PUSH2 0xEF1 DUP4 PUSH2 0xEA1 JUMP JUMPDEST SWAP3 POP POP PUSH1 0x1 DUP2 ADD SWAP1 POP PUSH2 0xED2 JUMP JUMPDEST POP DUP6 SWAP4 POP POP POP POP SWAP3 SWAP2 POP POP JUMP JUMPDEST PUSH1 0x0 PUSH1 0x20 DUP3 ADD SWAP1 POP DUP2 DUP2 SUB PUSH1 0x0 DUP4 ADD MSTORE PUSH2 0xF26 DUP2 DUP5 PUSH2 0xEAE JUMP JUMPDEST SWAP1 POP SWAP3 SWAP2 POP POP JUMP JUMPDEST PUSH1 0x0 PUSH1 0x40 MLOAD SWAP1 POP SWAP1 JUMP JUMPDEST PUSH1 0x0 DUP1 REVERT JUMPDEST PUSH1 0x0 DUP1 REVERT JUMPDEST PUSH1 0x0 DUP1 REVERT JUMPDEST PUSH1 0x0 DUP1 REVERT JUMPDEST PUSH1 0x0 PUSH1 0x1F NOT PUSH1 0x1F DUP4 ADD AND SWAP1 POP SWAP2 SWAP1 POP JUMP JUMPDEST PUSH32 0x4E487B7100000000000000000000000000000000000000000000000000000000 PUSH1 0x0 MSTORE PUSH1 0x41 PUSH1 0x4 MSTORE PUSH1 0x24 PUSH1 0x0 REVERT JUMPDEST PUSH2 0xF95 DUP3 PUSH2 0xF4C JUMP JUMPDEST DUP2 ADD DUP2 DUP2 LT PUSH8 0xFFFFFFFFFFFFFFFF DUP3 GT OR ISZERO PUSH2 0xFB4 JUMPI PUSH2 0xFB3 PUSH2 0xF5D JUMP JUMPDEST JUMPDEST DUP1 PUSH1 0x40 MSTORE POP POP POP JUMP JUMPDEST PUSH1 0x0 PUSH2 0xFC7 PUSH2 0xF2E JUMP JUMPDEST SWAP1 POP PUSH2 0xFD3 DUP3 DUP3 PUSH2 0xF8C JUMP JUMPDEST SWAP2 SWAP1 POP JUMP JUMPDEST PUSH1 0x0 PUSH8 0xFFFFFFFFFFFFFFFF DUP3 GT ISZERO PUSH2 0xFF3 JUMPI PUSH2 0xFF2 PUSH2 0xF5D JUMP JUMPDEST JUMPDEST PUSH2 0xFFC DUP3 PUSH2 0xF4C JUMP JUMPDEST SWAP1 POP PUSH1 0x20 DUP2 ADD SWAP1 POP SWAP2 SWAP1 POP JUMP JUMPDEST DUP3 DUP2 DUP4 CALLDATACOPY PUSH1 0x0 DUP4 DUP4 ADD MSTORE POP POP POP JUMP JUMPDEST PUSH1 0x0 PUSH2 0x102B PUSH2 0x1026 DUP5 PUSH2 0xFD8 JUMP JUMPDEST PUSH2 0xFBD JUMP JUMPDEST SWAP1 POP DUP3 DUP2 MSTORE PUSH1 0x20 DUP2 ADD DUP5 DUP5 DUP5 ADD GT ISZERO PUSH2 0x1047 JUMPI PUSH2 0x1046 PUSH2 0xF47 JUMP JUMPDEST JUMPDEST PUSH2 0x1052 DUP5 DUP3 DUP6 PUSH2 0x1009 JUMP JUMPDEST POP SWAP4 SWAP3 POP POP POP JUMP JUMPDEST PUSH1 0x0 DUP3 PUSH1 0x1F DUP4 ADD SLT PUSH2 0x106F JUMPI PUSH2 0x106E PUSH2 0xF42 JUMP JUMPDEST JUMPDEST DUP2 CALLDATALOAD PUSH2 0x107F DUP5 DUP3 PUSH1 0x20 DUP7 ADD PUSH2 0x1018 JUMP JUMPDEST SWAP2 POP POP SWAP3 SWAP2 POP POP JUMP JUMPDEST PUSH1 0x0 PUSH1 0x20 DUP3 DUP5 SUB SLT ISZERO PUSH2 0x109E JUMPI PUSH2 0x109D PUSH2 0xF38 JUMP JUMPDEST JUMPDEST PUSH1 0x0 DUP3 ADD CALLDATALOAD PUSH8 0xFFFFFFFFFFFFFFFF DUP2 GT ISZERO PUSH2 0x10BC JUMPI PUSH2 0x10BB PUSH2 0xF3D JUMP JUMPDEST JUMPDEST PUSH2 0x10C8 DUP5 DUP3 DUP6 ADD PUSH2 0x105A JUMP JUMPDEST SWAP2 POP POP SWAP3 SWAP2 POP POP JUMP JUMPDEST PUSH1 0x0 DUP2 ISZERO ISZERO SWAP1 POP SWAP2 SWAP1 POP JUMP JUMPDEST PUSH2 0x10E6 DUP2 PUSH2 0x10D1 JUMP JUMPDEST DUP3 MSTORE POP POP JUMP JUMPDEST PUSH1 0x0 PUSH1 0x20 DUP3 ADD SWAP1 POP PUSH2 0x1101 PUSH1 0x0 DUP4 ADD DUP5 PUSH2 0x10DD JUMP JUMPDEST SWAP3 SWAP2 POP POP JUMP JUMPDEST PUSH1 0x0 DUP2 MLOAD SWAP1 POP SWAP2 SWAP1 POP JUMP JUMPDEST PUSH1 0x0 DUP3 DUP3 MSTORE PUSH1 0x20 DUP3 ADD SWAP1 POP SWAP3 SWAP2 POP POP JUMP JUMPDEST PUSH1 0x0 DUP2 SWAP1 POP PUSH1 0x20 DUP3 ADD SWAP1 POP SWAP2 SWAP1 POP JUMP JUMPDEST PUSH1 0x0 DUP2 MLOAD SWAP1 POP SWAP2 SWAP1 POP JUMP JUMPDEST PUSH1 0x0 DUP3 DUP3 MSTORE PUSH1 0x20 DUP3 ADD SWAP1 POP SWAP3 SWAP2 POP POP JUMP JUMPDEST PUSH1 0x0 JUMPDEST DUP4 DUP2 LT ISZERO PUSH2 0x116D JUMPI DUP1 DUP3 ADD MLOAD DUP2 DUP5 ADD MSTORE PUSH1 0x20 DUP2 ADD SWAP1 POP PUSH2 0x1152 JUMP JUMPDEST PUSH1 0x0 DUP5 DUP5 ADD MSTORE POP POP POP POP JUMP JUMPDEST PUSH1 0x0 PUSH2 0x1184 DUP3 PUSH2 0x1133 JUMP JUMPDEST PUSH2 0x118E DUP2 DUP6 PUSH2 0x113E JUMP JUMPDEST SWAP4 POP PUSH2 0x119E DUP2 DUP6 PUSH1 0x20 DUP7 ADD PUSH2 0x114F JUMP JUMPDEST PUSH2 0x11A7 DUP2 PUSH2 0xF4C JUMP JUMPDEST DUP5 ADD SWAP2 POP POP SWAP3 SWAP2 POP POP JUMP JUMPDEST PUSH1 0x0 PUSH2 0x11BE DUP4 DUP4 PUSH2 0x1179 JUMP JUMPDEST SWAP1 POP SWAP3 SWAP2 POP POP JUMP JUMPDEST PUSH1 0x0 PUSH1 0x20 DUP3 ADD SWAP1 POP SWAP2 SWAP1 POP JUMP JUMPDEST PUSH1 0x0 PUSH2 0x11DE DUP3 PUSH2 0x1107 JUMP JUMPDEST PUSH2 0x11E8 DUP2 DUP6 PUSH2 0x1112 JUMP JUMPDEST SWAP4 POP DUP4 PUSH1 0x20 DUP3 MUL DUP6 ADD PUSH2 0x11FA DUP6 PUSH2 0x1123 JUMP JUMPDEST DUP1 PUSH1 0x0 JUMPDEST DUP6 DUP2 LT ISZERO PUSH2 0x1236 JUMPI DUP5 DUP5 SUB DUP10 MSTORE DUP2 MLOAD PUSH2 0x1217 DUP6 DUP3 PUSH2 0x11B2 JUMP JUMPDEST SWAP5 POP PUSH2 0x1222 DUP4 PUSH2 0x11C6 JUMP JUMPDEST SWAP3 POP PUSH1 0x20 DUP11 ADD SWAP10 POP POP PUSH1 0x1 DUP2 ADD SWAP1 POP PUSH2 0x11FE JUMP JUMPDEST POP DUP3 SWAP8 POP DUP8 SWAP6 POP POP POP POP POP POP SWAP3 SWAP2 POP POP JUMP JUMPDEST PUSH1 0x0 PUSH1 0x20 DUP3 ADD SWAP1 POP DUP2 DUP2 SUB PUSH1 0x0 DUP4 ADD MSTORE PUSH2 0x1262 DUP2 DUP5 PUSH2 0x11D3 JUMP JUMPDEST SWAP1 POP SWAP3 SWAP2 POP POP JUMP JUMPDEST PUSH1 0x0 DUP1 PUSH1 0x40 DUP4 DUP6 SUB SLT ISZERO PUSH2 0x1281 JUMPI PUSH2 0x1280 PUSH2 0xF38 JUMP JUMPDEST JUMPDEST PUSH1 0x0 DUP4 ADD CALLDATALOAD PUSH8 0xFFFFFFFFFFFFFFFF DUP2 GT ISZERO PUSH2 0x129F JUMPI PUSH2 0x129E PUSH2 0xF3D JUMP JUMPDEST JUMPDEST PUSH2 0x12AB DUP6 DUP3 DUP7 ADD PUSH2 0x105A JUMP JUMPDEST SWAP3 POP POP PUSH1 0x20 DUP4 ADD CALLDATALOAD PUSH8 0xFFFFFFFFFFFFFFFF DUP2 GT ISZERO PUSH2 0x12CC JUMPI PUSH2 0x12CB PUSH2 0xF3D JUMP JUMPDEST JUMPDEST PUSH2 0x12D8 DUP6 DUP3 DUP7 ADD PUSH2 0x105A JUMP JUMPDEST SWAP2 POP POP SWAP3 POP SWAP3 SWAP1 POP JUMP JUMPDEST PUSH1 0x0 DUP3 DUP3 MSTORE PUSH1 0x20 DUP3 ADD SWAP1 POP SWAP3 SWAP2 POP POP JUMP JUMPDEST PUSH1 0x0 PUSH2 0x12FE DUP3 PUSH2 0x1133 JUMP JUMPDEST PUSH2 0x1308 DUP2 DUP6 PUSH2 0x12E2 JUMP JUMPDEST SWAP4 POP PUSH2 0x1318 DUP2 DUP6 PUSH1 0x20 DUP7 ADD PUSH2 0x114F JUMP JUMPDEST PUSH2 0x1321 DUP2 PUSH2 0xF4C JUMP JUMPDEST DUP5 ADD SWAP2 POP POP SWAP3 SWAP2 POP POP JUMP JUMPDEST PUSH1 0x0 PUSH1 0x80 DUP3 ADD SWAP1 POP DUP2 DUP2 SUB PUSH1 0x0 DUP4 ADD MSTORE PUSH2 0x1346 DUP2 DUP8 PUSH2 0x12F3 JUMP JUMPDEST SWAP1 POP DUP2 DUP2 SUB PUSH1 0x20 DUP4 ADD MSTORE PUSH2 0x135A DUP2 DUP7 PUSH2 0x12F3 JUMP JUMPDEST SWAP1 POP DUP2 DUP2 SUB PUSH1 0x40 DUP4 ADD MSTORE PUSH2 0x136E DUP2 DUP6 PUSH2 0x12F3 JUMP JUMPDEST SWAP1 POP DUP2 DUP2 SUB PUSH1 0x60 DUP4 ADD MSTORE PUSH2 0x1382 DUP2 DUP5 PUSH2 0x12F3 JUMP JUMPDEST SWAP1 POP SWAP6 SWAP5 POP POP POP POP POP JUMP JUMPDEST PUSH2 0x1396 DUP2 PUSH2 0xE68 JUMP JUMPDEST DUP2 EQ PUSH2 0x13A1 JUMPI PUSH1 0x0 DUP1 REVERT JUMPDEST POP JUMP JUMPDEST PUSH1 0x0 DUP2 CALLDATALOAD SWAP1 POP PUSH2 0x13B3 DUP2 PUSH2 0x138D JUMP JUMPDEST SWAP3 SWAP2 POP POP JUMP JUMPDEST PUSH1 0x0 PUSH1 0x20 DUP3 DUP5 SUB SLT ISZERO PUSH2 0x13CF JUMPI PUSH2 0x13CE PUSH2 0xF38 JUMP JUMPDEST JUMPDEST PUSH1 0x0 PUSH2 0x13DD DUP5 DUP3 DUP6 ADD PUSH2 0x13A4 JUMP JUMPDEST SWAP2 POP POP SWAP3 SWAP2 POP POP JUMP JUMPDEST PUSH1 0x0 DUP1 PUSH1 0x0 DUP1 PUSH1 0x80 DUP6 DUP8 SUB SLT ISZERO PUSH2 0x1400 JUMPI PUSH2 0x13FF PUSH2 0xF38 JUMP JUMPDEST JUMPDEST PUSH1 0x0 DUP6 ADD CALLDATALOAD PUSH8 0xFFFFFFFFFFFFFFFF DUP2 GT ISZERO PUSH2 0x141E JUMPI PUSH2 0x141D PUSH2 0xF3D JUMP JUMPDEST JUMPDEST PUSH2 0x142A DUP8 DUP3 DUP9 ADD PUSH2 0x105A JUMP JUMPDEST SWAP5 POP POP PUSH1 0x20 DUP6 ADD CALLDATALOAD PUSH8 0xFFFFFFFFFFFFFFFF DUP2 GT ISZERO PUSH2 0x144B JUMPI PUSH2 0x144A PUSH2 0xF3D JUMP JUMPDEST JUMPDEST PUSH2 0x1457 DUP8 DUP3 DUP9 ADD PUSH2 0x105A JUMP JUMPDEST SWAP4 POP POP PUSH1 0x40 DUP6 ADD CALLDATALOAD PUSH8 0xFFFFFFFFFFFFFFFF DUP2 GT ISZERO PUSH2 0x1478 JUMPI PUSH2 0x1477 PUSH2 0xF3D JUMP JUMPDEST JUMPDEST PUSH2 0x1484 DUP8 DUP3 DUP9 ADD PUSH2 0x105A JUMP JUMPDEST SWAP3 POP POP PUSH1 0x60 DUP6 ADD CALLDATALOAD PUSH8 0xFFFFFFFFFFFFFFFF DUP2 GT ISZERO PUSH2 0x14A5 JUMPI PUSH2 0x14A4 PUSH2 0xF3D JUMP JUMPDEST JUMPDEST PUSH2 0x14B1 DUP8 DUP3 DUP9 ADD PUSH2 0x105A JUMP JUMPDEST SWAP2 POP POP SWAP3 SWAP6 SWAP2 SWAP5 POP SWAP3 POP JUMP JUMPDEST PUSH1 0x0 DUP2 SWAP1 POP SWAP2 SWAP1 POP JUMP JUMPDEST PUSH2 0x14D0 DUP2 PUSH2 0x14BD JUMP JUMPDEST DUP2 EQ PUSH2 0x14DB JUMPI PUSH1 0x0 DUP1 REVERT JUMPDEST POP JUMP JUMPDEST PUSH1 0x0 DUP2 CALLDATALOAD SWAP1 POP PUSH2 0x14ED DUP2 PUSH2 0x14C7 JUMP JUMPDEST SWAP3 SWAP2 POP POP JUMP JUMPDEST PUSH1 0x0 PUSH1 0x20 DUP3 DUP5 SUB SLT ISZERO PUSH2 0x1509 JUMPI PUSH2 0x1508 PUSH2 0xF38 JUMP JUMPDEST JUMPDEST PUSH1 0x0 PUSH2 0x1517 DUP5 DUP3 DUP6 ADD PUSH2 0x14DE JUMP JUMPDEST SWAP2 POP POP SWAP3 SWAP2 POP POP JUMP JUMPDEST PUSH2 0x1529 DUP2 PUSH2 0xE68 JUMP JUMPDEST DUP3 MSTORE POP POP JUMP JUMPDEST PUSH1 0x0 PUSH1 0x20 DUP3 ADD SWAP1 POP PUSH2 0x1544 PUSH1 0x0 DUP4 ADD DUP5 PUSH2 0x1520 JUMP JUMPDEST SWAP3 SWAP2 POP POP JUMP JUMPDEST PUSH1 0x0 PUSH1 0x20 DUP3 ADD SWAP1 POP DUP2 DUP2 SUB PUSH1 0x0 DUP4 ADD MSTORE PUSH2 0x1564 DUP2 DUP5 PUSH2 0x12F3 JUMP JUMPDEST SWAP1 POP SWAP3 SWAP2 POP POP JUMP JUMPDEST PUSH32 0x4E487B7100000000000000000000000000000000000000000000000000000000 PUSH1 0x0 MSTORE PUSH1 0x22 PUSH1 0x4 MSTORE PUSH1 0x24 PUSH1 0x0 REVERT JUMPDEST PUSH1 0x0 PUSH1 0x2 DUP3 DIV SWAP1 POP PUSH1 0x1 DUP3 AND DUP1 PUSH2 0x15B3 JUMPI PUSH1 0x7F DUP3 AND SWAP2 POP JUMPDEST PUSH1 0x20 DUP3 LT DUP2 SUB PUSH2 0x15C6 JUMPI PUSH2 0x15C5 PUSH2 0x156C JUMP JUMPDEST JUMPDEST POP SWAP2 SWAP1 POP JUMP JUMPDEST PUSH32 0x44494420646F6573206E6F742065786973740000000000000000000000000000 PUSH1 0x0 DUP3 ADD MSTORE POP JUMP JUMPDEST PUSH1 0x0 PUSH2 0x1602 PUSH1 0x12 DUP4 PUSH2 0x12E2 JUMP JUMPDEST SWAP2 POP PUSH2 0x160D DUP3 PUSH2 0x15CC JUMP JUMPDEST PUSH1 0x20 DUP3 ADD SWAP1 POP SWAP2 SWAP1 POP JUMP JUMPDEST PUSH1 0x0 PUSH1 0x20 DUP3 ADD SWAP1 POP DUP2 DUP2 SUB PUSH1 0x0 DUP4 ADD MSTORE PUSH2 0x1631 DUP2 PUSH2 0x15F5 JUMP JUMPDEST SWAP1 POP SWAP2 SWAP1 POP JUMP JUMPDEST PUSH32 0x446174612063616E6E6F7420626520656D707479000000000000000000000000 PUSH1 0x0 DUP3 ADD MSTORE POP JUMP JUMPDEST PUSH1 0x0 PUSH2 0x166E PUSH1 0x14 DUP4 PUSH2 0x12E2 JUMP JUMPDEST SWAP2 POP PUSH2 0x1679 DUP3 PUSH2 0x1638 JUMP JUMPDEST PUSH1 0x20 DUP3 ADD SWAP1 POP SWAP2 SWAP1 POP JUMP JUMPDEST PUSH1 0x0 PUSH1 0x20 DUP3 ADD SWAP1 POP DUP2 DUP2 SUB PUSH1 0x0 DUP4 ADD MSTORE PUSH2 0x169D DUP2 PUSH2 0x1661 JUMP JUMPDEST SWAP1 POP SWAP2 SWAP1 POP JUMP JUMPDEST PUSH1 0x0 DUP2 SWAP1 POP SWAP3 SWAP2 POP POP JUMP JUMPDEST PUSH1 0x0 PUSH2 0x16BA DUP3 PUSH2 0x1133 JUMP JUMPDEST PUSH2 0x16C4 DUP2 DUP6 PUSH2 0x16A4 JUMP JUMPDEST SWAP4 POP PUSH2 0x16D4 DUP2 DUP6 PUSH1 0x20 DUP7 ADD PUSH2 0x114F JUMP JUMPDEST DUP1 DUP5 ADD SWAP2 POP POP SWAP3 SWAP2 POP POP JUMP JUMPDEST PUSH1 0x0 PUSH2 0x16EC DUP3 DUP5 PUSH2 0x16AF JUMP JUMPDEST SWAP2 POP DUP2 SWAP1 POP SWAP3 SWAP2 POP POP JUMP JUMPDEST PUSH1 0x0 DUP2 SWAP1 POP DUP2 PUSH1 0x0 MSTORE PUSH1 0x20 PUSH1 0x0 KECCAK256 SWAP1 POP SWAP2 SWAP1 POP JUMP JUMPDEST PUSH1 0x0 PUSH1 0x20 PUSH1 0x1F DUP4 ADD DIV SWAP1 POP SWAP2 SWAP1 POP JUMP JUMPDEST PUSH1 0x0 DUP3 DUP3 SHL SWAP1 POP SWAP3 SWAP2 POP POP JUMP JUMPDEST PUSH1 0x0 PUSH1 0x8 DUP4 MUL PUSH2 0x1759 PUSH32 0xFFFFFFFFFFFFFFFFFFFFFFFFFFFFFFFFFFFFFFFFFFFFFFFFFFFFFFFFFFFFFFFF DUP3 PUSH2 0x171C JUMP JUMPDEST PUSH2 0x1763 DUP7 DUP4 PUSH2 0x171C JUMP JUMPDEST SWAP6 POP DUP1 NOT DUP5 AND SWAP4 POP DUP1 DUP7 AND DUP5 OR SWAP3 POP POP POP SWAP4 SWAP3 POP POP POP JUMP JUMPDEST PUSH1 0x0 DUP2 SWAP1 POP SWAP2 SWAP1 POP JUMP JUMPDEST PUSH1 0x0 PUSH2 0x17A0 PUSH2 0x179B PUSH2 0x1796 DUP5 PUSH2 0x14BD JUMP JUMPDEST PUSH2 0x177B JUMP JUMPDEST PUSH2 0x14BD JUMP JUMPDEST SWAP1 POP SWAP2 SWAP1 POP JUMP JUMPDEST PUSH1 0x0 DUP2 SWAP1 POP SWAP2 SWAP1 POP JUMP JUMPDEST PUSH2 0x17BA DUP4 PUSH2 0x1785 JUMP JUMPDEST PUSH2 0x17CE PUSH2 0x17C6 DUP3 PUSH2 0x17A7 JUMP JUMPDEST DUP5 DUP5 SLOAD PUSH2 0x1729 JUMP JUMPDEST DUP3 SSTORE POP POP POP POP JUMP JUMPDEST PUSH1 0x0 SWAP1 JUMP JUMPDEST PUSH2 0x17E3 PUSH2 0x17D6 JUMP JUMPDEST PUSH2 0x17EE DUP2 DUP5 DUP5 PUSH2 0x17B1 JUMP JUMPDEST POP POP POP JUMP JUMPDEST JUMPDEST DUP2 DUP2 LT ISZERO PUSH2 0x1812 JUMPI PUSH2 0x1807 PUSH1 0x0 DUP3 PUSH2 0x17DB JUMP JUMPDEST PUSH1 0x1 DUP2 ADD SWAP1 POP PUSH2 0x17F4 JUMP JUMPDEST POP POP JUMP JUMPDEST PUSH1 0x1F DUP3 GT ISZERO PUSH2 0x1857 JUMPI PUSH2 0x1828 DUP2 PUSH2 0x16F7 JUMP JUMPDEST PUSH2 0x1831 DUP5 PUSH2 0x170C JUMP JUMPDEST DUP2 ADD PUSH1 0x20 DUP6 LT ISZERO PUSH2 0x1840 JUMPI DUP2 SWAP1 POP JUMPDEST PUSH2 0x1854 PUSH2 0x184C DUP6 PUSH2 0x170C JUMP JUMPDEST DUP4 ADD DUP3 PUSH2 0x17F3 JUMP JUMPDEST POP POP JUMPDEST POP POP POP JUMP JUMPDEST PUSH1 0x0 DUP3 DUP3 SHR SWAP1 POP SWAP3 SWAP2 POP POP JUMP JUMPDEST PUSH1 0x0 PUSH2 0x187A PUSH1 0x0 NOT DUP5 PUSH1 0x8 MUL PUSH2 0x185C JUMP JUMPDEST NOT DUP1 DUP4 AND SWAP2 POP POP SWAP3 SWAP2 POP POP JUMP JUMPDEST PUSH1 0x0 PUSH2 0x1893 DUP4 DUP4 PUSH2 0x1869 JUMP JUMPDEST SWAP2 POP DUP3 PUSH1 0x2 MUL DUP3 OR SWAP1 POP SWAP3 SWAP2 POP POP JUMP JUMPDEST PUSH2 0x18AC DUP3 PUSH2 0x1133 JUMP JUMPDEST PUSH8 0xFFFFFFFFFFFFFFFF DUP2 GT ISZERO PUSH2 0x18C5 JUMPI PUSH2 0x18C4 PUSH2 0xF5D JUMP JUMPDEST JUMPDEST PUSH2 0x18CF DUP3 SLOAD PUSH2 0x159B JUMP JUMPDEST PUSH2 0x18DA DUP3 DUP3 DUP6 PUSH2 0x1816 JUMP JUMPDEST PUSH1 0x0 PUSH1 0x20 SWAP1 POP PUSH1 0x1F DUP4 GT PUSH1 0x1 DUP2 EQ PUSH2 0x190D JUMPI PUSH1 0x0 DUP5 ISZERO PUSH2 0x18FB JUMPI DUP3 DUP8 ADD MLOAD SWAP1 POP JUMPDEST PUSH2 0x1905 DUP6 DUP3 PUSH2 0x1887 JUMP JUMPDEST DUP7 SSTORE POP PUSH2 0x196D JUMP JUMPDEST PUSH1 0x1F NOT DUP5 AND PUSH2 0x191B DUP7 PUSH2 0x16F7 JUMP JUMPDEST PUSH1 0x0 JUMPDEST DUP3 DUP2 LT ISZERO PUSH2 0x1943 JUMPI DUP5 DUP10 ADD MLOAD DUP3 SSTORE PUSH1 0x1 DUP3 ADD SWAP2 POP PUSH1 0x20 DUP6 ADD SWAP5 POP PUSH1 0x20 DUP2 ADD SWAP1 POP PUSH2 0x191E JUMP JUMPDEST DUP7 DUP4 LT ISZERO PUSH2 0x1960 JUMPI DUP5 DUP10 ADD MLOAD PUSH2 0x195C PUSH1 0x1F DUP10 AND DUP3 PUSH2 0x1869 JUMP JUMPDEST DUP4 SSTORE POP JUMPDEST PUSH1 0x1 PUSH1 0x2 DUP9 MUL ADD DUP9 SSTORE POP POP POP JUMPDEST POP POP POP POP POP POP JUMP JUMPDEST PUSH32 0x44494420646F63756D656E7420646F6573206E6F742065786973740000000000 PUSH1 0x0 DUP3 ADD MSTORE POP JUMP JUMPDEST PUSH1 0x0 PUSH2 0x19AB PUSH1 0x1B DUP4 PUSH2 0x12E2 JUMP JUMPDEST SWAP2 POP PUSH2 0x19B6 DUP3 PUSH2 0x1975 JUMP JUMPDEST PUSH1 0x20 DUP3 ADD SWAP1 POP SWAP2 SWAP1 POP JUMP JUMPDEST PUSH1 0x0 PUSH1 0x20 DUP3 ADD SWAP1 POP DUP2 DUP2 SUB PUSH1 0x0 DUP4 ADD MSTORE PUSH2 0x19DA DUP2 PUSH2 0x199E JUMP JUMPDEST SWAP1 POP SWAP2 SWAP1 POP JUMP JUMPDEST PUSH32 0x4163636F756E7420616C72656164792072656769737465726564000000000000 PUSH1 0x0 DUP3 ADD MSTORE POP JUMP JUMPDEST PUSH1 0x0 PUSH2 0x1A17 PUSH1 0x1A DUP4 PUSH2 0x12E2 JUMP JUMPDEST SWAP2 POP PUSH2 0x1A22 DUP3 PUSH2 0x19E1 JUMP JUMPDEST PUSH1 0x20 DUP3 ADD SWAP1 POP SWAP2 SWAP1 POP JUMP JUMPDEST PUSH1 0x0 PUSH1 0x20 DUP3 ADD SWAP1 POP DUP2 DUP2 SUB PUSH1 0x0 DUP4 ADD MSTORE PUSH2 0x1A46 DUP2 PUSH2 0x1A0A JUMP JUMPDEST SWAP1 POP SWAP2 SWAP1 POP JUMP JUMPDEST PUSH32 0x44494420616C7265616479206578697374730000000000000000000000000000 PUSH1 0x0 DUP3 ADD MSTORE POP JUMP JUMPDEST PUSH1 0x0 PUSH2 0x1A83 PUSH1 0x12 DUP4 PUSH2 0x12E2 JUMP JUMPDEST SWAP2 POP PUSH2 0x1A8E DUP3 PUSH2 0x1A4D JUMP JUMPDEST PUSH1 0x20 DUP3 ADD SWAP1 POP SWAP2 SWAP1 POP JUMP JUMPDEST PUSH1 0x0 PUSH1 0x20 DUP3 ADD SWAP1 POP DUP2 DUP2 SUB PUSH1 0x0 DUP4 ADD MSTORE PUSH2 0x1AB2 DUP2 PUSH2 0x1A76 JUMP JUMPDEST SWAP1 POP SWAP2 SWAP1 POP JUMP JUMPDEST PUSH32 0x4449442063616E6E6F7420626520656D70747900000000000000000000000000 PUSH1 0x0 DUP3 ADD MSTORE POP JUMP JUMPDEST PUSH1 0x0 PUSH2 0x1AEF PUSH1 0x13 DUP4 PUSH2 0x12E2 JUMP JUMPDEST SWAP2 POP PUSH2 0x1AFA DUP3 PUSH2 0x1AB9 JUMP JUMPDEST PUSH1 0x20 DUP3 ADD SWAP1 POP SWAP2 SWAP1 POP JUMP JUMPDEST PUSH1 0x0 PUSH1 0x20 DUP3 ADD SWAP1 POP DUP2 DUP2 SUB PUSH1 0x0 DUP4 ADD MSTORE PUSH2 0x1B1E DUP2 PUSH2 0x1AE2 JUMP JUMPDEST SWAP1 POP SWAP2 SWAP1 POP JUMP JUMPDEST PUSH32 0x436F6E74726F6C6C65722063616E6E6F7420626520656D707479000000000000 PUSH1 0x0 DUP3 ADD MSTORE POP JUMP JUMPDEST PUSH1 0x0 PUSH2 0x1B5B PUSH1 0x1A DUP4 PUSH2 0x12E2 JUMP JUMPDEST SWAP2 POP PUSH2 0x1B66 DUP3 PUSH2 0x1B25 JUMP JUMPDEST PUSH1 0x20 DUP3 ADD SWAP1 POP SWAP2 SWAP1 POP JUMP JUMPDEST PUSH1 0x0 PUSH1 0x20 DUP3 ADD SWAP1 POP DUP2 DUP2 SUB PUSH1 0x0 DUP4 ADD MSTORE PUSH2 0x1B8A DUP2 PUSH2 0x1B4E JUMP JUMPDEST SWAP1 POP SWAP2 SWAP1 POP JUMP JUMPDEST PUSH1 0x0 DUP2 SLOAD SWAP1 POP SWAP2 SWAP1 POP JUMP JUMPDEST PUSH1 0x0 DUP2 SWAP1 POP DUP2 PUSH1 0x0 MSTORE PUSH1 0x20 PUSH1 0x0 KECCAK256 SWAP1 POP SWAP2 SWAP1 POP JUMP JUMPDEST PUSH1 0x0 DUP2 SLOAD PUSH2 0x1BBE DUP2 PUSH2 0x159B JUMP JUMPDEST PUSH2 0x1BC8 DUP2 DUP7 PUSH2 0x113E JUMP JUMPDEST SWAP5 POP PUSH1 0x1 DUP3 AND PUSH1 0x0 DUP2 EQ PUSH2 0x1BE3 JUMPI PUSH1 0x1 DUP2 EQ PUSH2 0x1BF9 JUMPI PUSH2 0x1C2C JUMP JUMPDEST PUSH1 0xFF NOT DUP4 AND DUP7 MSTORE DUP2 ISZERO ISZERO PUSH1 0x20 MUL DUP7 ADD SWAP4 POP PUSH2 0x1C2C JUMP JUMPDEST PUSH2 0x1C02 DUP6 PUSH2 0x16F7 JUMP JUMPDEST PUSH1 0x0 JUMPDEST DUP4 DUP2 LT ISZERO PUSH2 0x1C24 JUMPI DUP2 SLOAD DUP2 DUP10 ADD MSTORE PUSH1 0x1 DUP3 ADD SWAP2 POP PUSH1 0x20 DUP2 ADD SWAP1 POP PUSH2 0x1C05 JUMP JUMPDEST DUP1 DUP9 ADD SWAP6 POP POP POP JUMPDEST POP POP POP SWAP3 SWAP2 POP POP JUMP JUMPDEST PUSH1 0x0 PUSH2 0x1C41 DUP4 DUP4 PUSH2 0x1BB1 JUMP JUMPDEST SWAP1 POP SWAP3 SWAP2 POP POP JUMP JUMPDEST PUSH1 0x0 PUSH1 0x1 DUP3 ADD SWAP1 POP SWAP2 SWAP1 POP JUMP JUMPDEST PUSH1 0x0 PUSH2 0x1C61 DUP3 PUSH2 0x1B91 JUMP JUMPDEST PUSH2 0x1C6B DUP2 DUP6 PUSH2 0x1112 JUMP JUMPDEST SWAP4 POP DUP4 PUSH1 0x20 DUP3 MUL DUP6 ADD PUSH2 0x1C7D DUP6 PUSH2 0x1B9C JUMP JUMPDEST DUP1 PUSH1 0x0 JUMPDEST DUP6 DUP2 LT ISZERO PUSH2 0x1CB8 JUMPI DUP5 DUP5 SUB DUP10 MSTORE DUP2 PUSH2 0x1C99 DUP6 DUP3 PUSH2 0x1C35 JUMP JUMPDEST SWAP5 POP PUSH2 0x1CA4 DUP4 PUSH2 0x1C49 JUMP JUMPDEST SWAP3 POP PUSH1 0x20 DUP11 ADD SWAP10 POP POP PUSH1 0x1 DUP2 ADD SWAP1 POP PUSH2 0x1C81 JUMP JUMPDEST POP DUP3 SWAP8 POP DUP8 SWAP6 POP POP POP POP POP POP SWAP3 SWAP2 POP POP JUMP JUMPDEST PUSH1 0x0 PUSH1 0x20 DUP3 ADD SWAP1 POP DUP2 DUP2 SUB PUSH1 0x0 DUP4 ADD MSTORE PUSH2 0x1CE4 DUP2 DUP5 PUSH2 0x1C56 JUMP JUMPDEST SWAP1 POP SWAP3 SWAP2 POP POP JUMP JUMPDEST PUSH32 0x4E487B7100000000000000000000000000000000000000000000000000000000 PUSH1 0x0 MSTORE PUSH1 0x32 PUSH1 0x4 MSTORE PUSH1 0x24 PUSH1 0x0 REVERT JUMPDEST PUSH1 0x0 DUP2 SWAP1 POP SWAP3 SWAP2 POP POP JUMP JUMPDEST PUSH1 0x0 DUP2 SWAP1 POP DUP2 PUSH1 0x0 MSTORE PUSH1 0x20 PUSH1 0x0 KECCAK256 SWAP1 POP SWAP2 SWAP1 POP JUMP JUMPDEST PUSH1 0x0 DUP2 SLOAD PUSH2 0x1D48 DUP2 PUSH2 0x159B JUMP JUMPDEST PUSH2 0x1D52 DUP2 DUP7 PUSH2 0x1D1B JUMP JUMPDEST SWAP5 POP PUSH1 0x1 DUP3 AND PUSH1 0x0 DUP2 EQ PUSH2 0x1D6D JUMPI PUSH1 0x1 DUP2 EQ PUSH2 0x1D82 JUMPI PUSH2 0x1DB5 JUMP JUMPDEST PUSH1 0xFF NOT DUP4 AND DUP7 MSTORE DUP2 ISZERO ISZERO DUP3 MUL DUP7 ADD SWAP4 POP PUSH2 0x1DB5 JUMP JUMPDEST PUSH2 0x1D8B DUP6 PUSH2 0x1D26 JUMP JUMPDEST PUSH1 0x0 JUMPDEST DUP4 DUP2 LT ISZERO PUSH2 0x1DAD JUMPI DUP2 SLOAD DUP2 DUP10 ADD MSTORE PUSH1 0x1 DUP3 ADD SWAP2 POP PUSH1 0x20 DUP2 ADD SWAP1 POP PUSH2 0x1D8E JUMP JUMPDEST DUP4 DUP9 ADD SWAP6 POP POP POP JUMPDEST POP POP POP SWAP3 SWAP2 POP POP JUMP JUMPDEST PUSH1 0x0 PUSH2 0x1DCA DUP3 DUP5 PUSH2 0x1D3B JUMP JUMPDEST SWAP2 POP DUP2 SWAP1 POP SWAP3 SWAP2 POP POP JUMP INVALID LOG2 PUSH5 0x6970667358 0x22 SLT KECCAK256 TLOAD PREVRANDAO 0xD8 SLOAD DUP11 0xB9 0xB3 0xF8 0x25 CALLDATACOPY DUP15 0x1F 0xE0 SWAP2 0xC9 DUP6 0xB7 SWAP9 PUSH18 0x2C60539B5E475589F924E51AE764736F6C63 NUMBER STOP ADDMOD SHR STOP CALLER "},"methodIdentifiers":{"accounts(uint256)":"f2a40db8","createDID(string,string,string,string)":"ade53cf8","didExists(string)":"20dd57a9","getAllAccounts()":"08e93d0a","getAllDIDs()":"4c95303a","getDIDDocument(string)":"784afc4e","getStoredData(string)":"f92959f0","hasDIDDocument(string)":"d493cb77","registerAccount(address)":"97c414df","registerDID(string)":"570810e2","registeredAccounts(address)":"d8fa638d","storeData(string,string)":"4ece5b4c"}}}}}