{"contracts/DIDRegistry.sol":{"DIDRegistry":{"abi":[{"anonymous":false,"inputs":[{"indexed":true,"internalType":"string","name":"did","type":"string"},{"indexed":false,"internalType":"string","name":"controller","type":"string"}],"name":"DIDCreated","type":"event"},{"anonymous":false,"inputs":[{"indexed":true,"internalType":"string","name":"did","type":"string"},{"indexed":true,"internalType":"address","name":"contractAddress","type":"address"}],"name":"DIDRegistered","type":"event"},{"inputs":[{"internalType":"string","name":"did","type":"string"},{"internalType":"string","name":"controller","type":"string"},{"internalType":"string","name":"publicKeys","type":"string"},{"internalType":"string","name":"services","type":"string"}],"name":"createDID","outputs":[],"stateMutability":"nonpayable","type":"function"},{"inputs":[{"internalType":"string","name":"did","type":"string"}],"name":"didExists","outputs":[{"internalType":"bool","name":"","type":"bool"}],"stateMutability":"view","type":"function"},{"inputs":[{"internalType":"string","name":"did","type":"string"}],"name":"getDIDContract","outputs":[{"internalType":"address","name":"","type":"address"}],"stateMutability":"view","type":"function"},{"inputs":[{"internalType":"string","name":"did","type":"string"}],"name":"getDIDDocument","outputs":[{"internalType":"string","name":"id","type":"string"},{"internalType":"string","name":"controller","type":"string"},{"internalType":"string","name":"publicKeys","type":"string"},{"internalType":"string","name":"services","type":"string"}],"stateMutability":"view","type":"function"},{"inputs":[{"internalType":"string","name":"did","type":"string"}],"name":"hasDIDDocument","outputs":[{"internalType":"bool","name":"","type":"bool"}],"stateMutability":"view","type":"function"},{"inputs":[{"internalType":"string","name":"did","type":"string"},{"internalType":"address","name":"contractAddress","type":"address"}],"name":"registerDID","outputs":[],"stateMutability":"nonpayable","type":"function"}],"evm":{"bytecode":{"linkReferences":{},"object":"6080604052348015600f57600080fd5b506113c78061001f6000396000f3fe608060405234801561001057600080fd5b50600436106100625760003560e01c806320dd57a91461006757806359fa5147146100975780636662666a146100c7578063784afc4e146100e3578063ade53cf814610116578063d493cb7714610132575b600080fd5b610081600480360381019061007c9190610afe565b610162565b60405161008e9190610b62565b60405180910390f35b6100b160048036038101906100ac9190610afe565b6101d9565b6040516100be9190610bbe565b60405180910390f35b6100e160048036038101906100dc9190610c05565b610220565b005b6100fd60048036038101906100f89190610afe565b610400565b60405161010d9493929190610ce0565b60405180910390f35b610130600480360381019061012b9190610d41565b610728565b005b61014c60048036038101906101479190610afe565b61096c565b6040516101599190610b62565b60405180910390f35b60008073ffffffffffffffffffffffffffffffffffffffff1660008360405161018b9190610e54565b908152602001604051809103902060009054906101000a900473ffffffffffffffffffffffffffffffffffffffff1673ffffffffffffffffffffffffffffffffffffffff1614159050919050565b600080826040516101ea9190610e54565b908152602001604051809103902060009054906101000a900473ffffffffffffffffffffffffffffffffffffffff169050919050565b61022982610162565b15610269576040517f08c379a000000000000000000000000000000000000000000000000000000000815260040161026090610eb7565b60405180910390fd5b600073ffffffffffffffffffffffffffffffffffffffff168173ffffffffffffffffffffffffffffffffffffffff16036102d8576040517f08c379a00000000000000000000000000000000000000000000000000000000081526004016102cf90610f23565b60405180910390fd5b6001826040516102e89190610e54565b908152602001604051809103902060040160009054906101000a900460ff16610346576040517f08c379a000000000000000000000000000000000000000000000000000000000815260040161033d90610f8f565b60405180910390fd5b806000836040516103579190610e54565b908152602001604051809103902060006101000a81548173ffffffffffffffffffffffffffffffffffffffff021916908373ffffffffffffffffffffffffffffffffffffffff1602179055508073ffffffffffffffffffffffffffffffffffffffff16826040516103c89190610e54565b60405180910390207fd59e4d670f6e249831d6f8ce560f47ced54b3f4203e2d0050dc495fd6b919dd260405160405180910390a35050565b6060806060806001856040516104169190610e54565b908152602001604051809103902060040160009054906101000a900460ff16610474576040517f08c379a000000000000000000000000000000000000000000000000000000000815260040161046b90610f8f565b60405180910390fd5b60006001866040516104869190610e54565b90815260200160405180910390206040518060a00160405290816000820180546104af90610fde565b80601f01602080910402602001604051908101604052809291908181526020018280546104db90610fde565b80156105285780601f106104fd57610100808354040283529160200191610528565b820191906000526020600020905b81548152906001019060200180831161050b57829003601f168201915b5050505050815260200160018201805461054190610fde565b80601f016020809104026020016040519081016040528092919081815260200182805461056d90610fde565b80156105ba5780601f1061058f576101008083540402835291602001916105ba565b820191906000526020600020905b81548152906001019060200180831161059d57829003601f168201915b505050505081526020016002820180546105d390610fde565b80601f01602080910402602001604051908101604052809291908181526020018280546105ff90610fde565b801561064c5780601f106106215761010080835404028352916020019161064c565b820191906000526020600020905b81548152906001019060200180831161062f57829003601f168201915b5050505050815260200160038201805461066590610fde565b80601f016020809104026020016040519081016040528092919081815260200182805461069190610fde565b80156106de5780601f106106b3576101008083540402835291602001916106de565b820191906000526020600020905b8154815290600101906020018083116106c157829003601f168201915b505050505081526020016004820160009054906101000a900460ff161515151581525050905080600001518160200151826040015183606001519450945094509450509193509193565b61073184610162565b15610771576040517f08c379a000000000000000000000000000000000000000000000000000000000815260040161076890610eb7565b60405180910390fd5b60008451116107b5576040517f08c379a00000000000000000000000000000000000000000000000000000000081526004016107ac9061105b565b60405180910390fd5b60008351116107f9576040517f08c379a00000000000000000000000000000000000000000000000000000000081526004016107f0906110c7565b60405180910390fd5b6040518060a00160405280858152602001848152602001838152602001828152602001600115158152506001856040516108339190610e54565b90815260200160405180910390206000820151816000019081610856919061129d565b50602082015181600101908161086c919061129d565b506040820151816002019081610882919061129d565b506060820151816003019081610898919061129d565b5060808201518160040160006101000a81548160ff021916908315150217905550905050336000856040516108cd9190610e54565b908152602001604051809103902060006101000a81548173ffffffffffffffffffffffffffffffffffffffff021916908373ffffffffffffffffffffffffffffffffffffffff160217905550836040516109279190610e54565b60405180910390207f15a910d2efaf7349f437c783d73a5fc8330afad390e19ac0d6bebd5ebe1301ee8460405161095e919061136f565b60405180910390a250505050565b600060018260405161097e9190610e54565b908152602001604051809103902060040160009054906101000a900460ff169050919050565b6000604051905090565b600080fd5b600080fd5b600080fd5b600080fd5b6000601f19601f8301169050919050565b7f4e487b7100000000000000000000000000000000000000000000000000000000600052604160045260246000fd5b610a0b826109c2565b810181811067ffffffffffffffff82111715610a2a57610a296109d3565b5b80604052505050565b6000610a3d6109a4565b9050610a498282610a02565b919050565b600067ffffffffffffffff821115610a6957610a686109d3565b5b610a72826109c2565b9050602081019050919050565b82818337600083830152505050565b6000610aa1610a9c84610a4e565b610a33565b905082815260208101848484011115610abd57610abc6109bd565b5b610ac8848285610a7f565b509392505050565b600082601f830112610ae557610ae46109b8565b5b8135610af5848260208601610a8e565b91505092915050565b600060208284031215610b1457610b136109ae565b5b600082013567ffffffffffffffff811115610b3257610b316109b3565b5b610b3e84828501610ad0565b91505092915050565b60008115159050919050565b610b5c81610b47565b82525050565b6000602082019050610b776000830184610b53565b92915050565b600073ffffffffffffffffffffffffffffffffffffffff82169050919050565b6000610ba882610b7d565b9050919050565b610bb881610b9d565b82525050565b6000602082019050610bd36000830184610baf565b92915050565b610be281610b9d565b8114610bed57600080fd5b50565b600081359050610bff81610bd9565b92915050565b60008060408385031215610c1c57610c1b6109ae565b5b600083013567ffffffffffffffff811115610c3a57610c396109b3565b5b610c4685828601610ad0565b9250506020610c5785828601610bf0565b9150509250929050565b600081519050919050565b600082825260208201905092915050565b60005b83811015610c9b578082015181840152602081019050610c80565b60008484015250505050565b6000610cb282610c61565b610cbc8185610c6c565b9350610ccc818560208601610c7d565b610cd5816109c2565b840191505092915050565b60006080820190508181036000830152610cfa8187610ca7565b90508181036020830152610d0e8186610ca7565b90508181036040830152610d228185610ca7565b90508181036060830152610d368184610ca7565b905095945050505050565b60008060008060808587031215610d5b57610d5a6109ae565b5b600085013567ffffffffffffffff811115610d7957610d786109b3565b5b610d8587828801610ad0565b945050602085013567ffffffffffffffff811115610da657610da56109b3565b5b610db287828801610ad0565b935050604085013567ffffffffffffffff811115610dd357610dd26109b3565b5b610ddf87828801610ad0565b925050606085013567ffffffffffffffff811115610e0057610dff6109b3565b5b610e0c87828801610ad0565b91505092959194509250565b600081905092915050565b6000610e2e82610c61565b610e388185610e18565b9350610e48818560208601610c7d565b80840191505092915050565b6000610e608284610e23565b915081905092915050565b7f44494420616c7265616479206578697374730000000000000000000000000000600082015250565b6000610ea1601283610c6c565b9150610eac82610e6b565b602082019050919050565b60006020820190508181036000830152610ed081610e94565b9050919050565b7f496e76616c696420636f6e747261637420616464726573730000000000000000600082015250565b6000610f0d601883610c6c565b9150610f1882610ed7565b602082019050919050565b60006020820190508181036000830152610f3c81610f00565b9050919050565b7f44494420646f63756d656e7420646f6573206e6f742065786973740000000000600082015250565b6000610f79601b83610c6c565b9150610f8482610f43565b602082019050919050565b60006020820190508181036000830152610fa881610f6c565b9050919050565b7f4e487b7100000000000000000000000000000000000000000000000000000000600052602260045260246000fd5b60006002820490506001821680610ff657607f821691505b60208210810361100957611008610faf565b5b50919050565b7f4449442063616e6e6f7420626520656d70747900000000000000000000000000600082015250565b6000611045601383610c6c565b91506110508261100f565b602082019050919050565b6000602082019050818103600083015261107481611038565b9050919050565b7f436f6e74726f6c6c65722063616e6e6f7420626520656d707479000000000000600082015250565b60006110b1601a83610c6c565b91506110bc8261107b565b602082019050919050565b600060208201905081810360008301526110e0816110a4565b9050919050565b60008190508160005260206000209050919050565b60006020601f8301049050919050565b600082821b905092915050565b6000600883026111497fffffffffffffffffffffffffffffffffffffffffffffffffffffffffffffffff8261110c565b611153868361110c565b95508019841693508086168417925050509392505050565b6000819050919050565b6000819050919050565b600061119a6111956111908461116b565b611175565b61116b565b9050919050565b6000819050919050565b6111b48361117f565b6111c86111c0826111a1565b848454611119565b825550505050565b600090565b6111dd6111d0565b6111e88184846111ab565b505050565b5b8181101561120c576112016000826111d5565b6001810190506111ee565b5050565b601f82111561125157611222816110e7565b61122b846110fc565b8101602085101561123a578190505b61124e611246856110fc565b8301826111ed565b50505b505050565b600082821c905092915050565b600061127460001984600802611256565b1980831691505092915050565b600061128d8383611263565b9150826002028217905092915050565b6112a682610c61565b67ffffffffffffffff8111156112bf576112be6109d3565b5b6112c98254610fde565b6112d4828285611210565b600060209050601f83116001811461130757600084156112f5578287015190505b6112ff8582611281565b865550611367565b601f198416611315866110e7565b60005b8281101561133d57848901518255600182019150602085019450602081019050611318565b8683101561135a5784890151611356601f891682611263565b8355505b6001600288020188555050505b505050505050565b600060208201905081810360008301526113898184610ca7565b90509291505056fea2646970667358221220152c73525172215f2bdde78647613c4e357ed6d20d41052724dc49a8b767068764736f6c634300081c0033","opcodes":"PUSH1 0x80 PUSH1 0x40 MSTORE CALLVALUE DUP1 ISZERO PUSH1 0xF JUMPI PUSH1 0x0 DUP1 REVERT JUMPDEST POP PUSH2 0x13C7 DUP1 PUSH2 0x1F PUSH1 0x0 CODECOPY PUSH1 0x0 RETURN INVALID PUSH1 0x80 PUSH1 0x40 MSTORE CALLVALUE DUP1 ISZERO PUSH2 0x10 JUMPI PUSH1 0x0 DUP1 REVERT JUMPDEST POP PUSH1 0x4 CALLDATASIZE LT PUSH2 0x62 JUMPI PUSH1 0x0 CALLDATALOAD PUSH1 0xE0 SHR DUP1 PUSH4 0x20DD57A9 EQ PUSH2 0x67 JUMPI DUP1 PUSH4 0x59FA5147 EQ PUSH2 0x97 JUMPI DUP1 PUSH4 0x6662666A EQ PUSH2 0xC7 JUMPI DUP1 PUSH4 0x784AFC4E EQ PUSH2 0xE3 JUMPI DUP1 PUSH4 0xADE53CF8 EQ PUSH2 0x116 JUMPI DUP1 PUSH4 0xD493CB77 EQ PUSH2 0x132 JUMPI JUMPDEST PUSH1 0x0 DUP1 REVERT JUMPDEST PUSH2 0x81 PUSH1 0x4 DUP1 CALLDATASIZE SUB DUP2 ADD SWAP1 PUSH2 0x7C SWAP2 SWAP1 PUSH2 0xAFE JUMP JUMPDEST PUSH2 0x162 JUMP JUMPDEST PUSH1 0x40 MLOAD PUSH2 0x8E SWAP2 SWAP1 PUSH2 0xB62 JUMP JUMPDEST PUSH1 0x40 MLOAD DUP1 SWAP2 SUB SWAP1 RETURN JUMPDEST PUSH2 0xB1 PUSH1 0x4 DUP1 CALLDATASIZE SUB DUP2 ADD SWAP1 PUSH2 0xAC SWAP2 SWAP1 PUSH2 0xAFE JUMP JUMPDEST PUSH2 0x1D9 JUMP JUMPDEST PUSH1 0x40 MLOAD PUSH2 0xBE SWAP2 SWAP1 PUSH2 0xBBE JUMP JUMPDEST PUSH1 0x40 MLOAD DUP1 SWAP2 SUB SWAP1 RETURN JUMPDEST PUSH2 0xE1 PUSH1 0x4 DUP1 CALLDATASIZE SUB DUP2 ADD SWAP1 PUSH2 0xDC SWAP2 SWAP1 PUSH2 0xC05 JUMP JUMPDEST PUSH2 0x220 JUMP JUMPDEST STOP JUMPDEST PUSH2 0xFD PUSH1 0x4 DUP1 CALLDATASIZE SUB DUP2 ADD SWAP1 PUSH2 0xF8 SWAP2 SWAP1 PUSH2 0xAFE JUMP JUMPDEST PUSH2 0x400 JUMP JUMPDEST PUSH1 0x40 MLOAD PUSH2 0x10D SWAP5 SWAP4 SWAP3 SWAP2 SWAP1 PUSH2 0xCE0 JUMP JUMPDEST PUSH1 0x40 MLOAD DUP1 SWAP2 SUB SWAP1 RETURN JUMPDEST PUSH2 0x130 PUSH1 0x4 DUP1 CALLDATASIZE SUB DUP2 ADD SWAP1 PUSH2 0x12B SWAP2 SWAP1 PUSH2 0xD41 JUMP JUMPDEST PUSH2 0x728 JUMP JUMPDEST STOP JUMPDEST PUSH2 0x14C PUSH1 0x4 DUP1 CALLDATASIZE SUB DUP2 ADD SWAP1 PUSH2 0x147 SWAP2 SWAP1 PUSH2 0xAFE JUMP JUMPDEST PUSH2 0x96C JUMP JUMPDEST PUSH1 0x40 MLOAD PUSH2 0x159 SWAP2 SWAP1 PUSH2 0xB62 JUMP JUMPDEST PUSH1 0x40 MLOAD DUP1 SWAP2 SUB SWAP1 RETURN JUMPDEST PUSH1 0x0 DUP1 PUSH20 0xFFFFFFFFFFFFFFFFFFFFFFFFFFFFFFFFFFFFFFFF AND PUSH1 0x0 DUP4 PUSH1 0x40 MLOAD PUSH2 0x18B SWAP2 SWAP1 PUSH2 0xE54 JUMP JUMPDEST SWAP1 DUP2 MSTORE PUSH1 0x20 ADD PUSH1 0x40 MLOAD DUP1 SWAP2 SUB SWAP1 KECCAK256 PUSH1 0x0 SWAP1 SLOAD SWAP1 PUSH2 0x100 EXP SWAP1 DIV PUSH20 0xFFFFFFFFFFFFFFFFFFFFFFFFFFFFFFFFFFFFFFFF AND PUSH20 0xFFFFFFFFFFFFFFFFFFFFFFFFFFFFFFFFFFFFFFFF AND EQ ISZERO SWAP1 POP SWAP2 SWAP1 POP JUMP JUMPDEST PUSH1 0x0 DUP1 DUP3 PUSH1 0x40 MLOAD PUSH2 0x1EA SWAP2 SWAP1 PUSH2 0xE54 JUMP JUMPDEST SWAP1 DUP2 MSTORE PUSH1 0x20 ADD PUSH1 0x40 MLOAD DUP1 SWAP2 SUB SWAP1 KECCAK256 PUSH1 0x0 SWAP1 SLOAD SWAP1 PUSH2 0x100 EXP SWAP1 DIV PUSH20 0xFFFFFFFFFFFFFFFFFFFFFFFFFFFFFFFFFFFFFFFF AND SWAP1 POP SWAP2 SWAP1 POP JUMP JUMPDEST PUSH2 0x229 DUP3 PUSH2 0x162 JUMP JUMPDEST ISZERO PUSH2 0x269 JUMPI PUSH1 0x40 MLOAD PUSH32 0x8C379A000000000000000000000000000000000000000000000000000000000 DUP2 MSTORE PUSH1 0x4 ADD PUSH2 0x260 SWAP1 PUSH2 0xEB7 JUMP JUMPDEST PUSH1 0x40 MLOAD DUP1 SWAP2 SUB SWAP1 REVERT JUMPDEST PUSH1 0x0 PUSH20 0xFFFFFFFFFFFFFFFFFFFFFFFFFFFFFFFFFFFFFFFF AND DUP2 PUSH20 0xFFFFFFFFFFFFFFFFFFFFFFFFFFFFFFFFFFFFFFFF AND SUB PUSH2 0x2D8 JUMPI PUSH1 0x40 MLOAD PUSH32 0x8C379A000000000000000000000000000000000000000000000000000000000 DUP2 MSTORE PUSH1 0x4 ADD PUSH2 0x2CF SWAP1 PUSH2 0xF23 JUMP JUMPDEST PUSH1 0x40 MLOAD DUP1 SWAP2 SUB SWAP1 REVERT JUMPDEST PUSH1 0x1 DUP3 PUSH1 0x40 MLOAD PUSH2 0x2E8 SWAP2 SWAP1 PUSH2 0xE54 JUMP JUMPDEST SWAP1 DUP2 MSTORE PUSH1 0x20 ADD PUSH1 0x40 MLOAD DUP1 SWAP2 SUB SWAP1 KECCAK256 PUSH1 0x4 ADD PUSH1 0x0 SWAP1 SLOAD SWAP1 PUSH2 0x100 EXP SWAP1 DIV PUSH1 0xFF AND PUSH2 0x346 JUMPI PUSH1 0x40 MLOAD PUSH32 0x8C379A000000000000000000000000000000000000000000000000000000000 DUP2 MSTORE PUSH1 0x4 ADD PUSH2 0x33D SWAP1 PUSH2 0xF8F JUMP JUMPDEST PUSH1 0x40 MLOAD DUP1 SWAP2 SUB SWAP1 REVERT JUMPDEST DUP1 PUSH1 0x0 DUP4 PUSH1 0x40 MLOAD PUSH2 0x357 SWAP2 SWAP1 PUSH2 0xE54 JUMP JUMPDEST SWAP1 DUP2 MSTORE PUSH1 0x20 ADD PUSH1 0x40 MLOAD DUP1 SWAP2 SUB SWAP1 KECCAK256 PUSH1 0x0 PUSH2 0x100 EXP DUP2 SLOAD DUP2 PUSH20 0xFFFFFFFFFFFFFFFFFFFFFFFFFFFFFFFFFFFFFFFF MUL NOT AND SWAP1 DUP4 PUSH20 0xFFFFFFFFFFFFFFFFFFFFFFFFFFFFFFFFFFFFFFFF AND MUL OR SWAP1 SSTORE POP DUP1 PUSH20 0xFFFFFFFFFFFFFFFFFFFFFFFFFFFFFFFFFFFFFFFF AND DUP3 PUSH1 0x40 MLOAD PUSH2 0x3C8 SWAP2 SWAP1 PUSH2 0xE54 JUMP JUMPDEST PUSH1 0x40 MLOAD DUP1 SWAP2 SUB SWAP1 KECCAK256 PUSH32 0xD59E4D670F6E249831D6F8CE560F47CED54B3F4203E2D0050DC495FD6B919DD2 PUSH1 0x40 MLOAD PUSH1 0x40 MLOAD DUP1 SWAP2 SUB SWAP1 LOG3 POP POP JUMP JUMPDEST PUSH1 0x60 DUP1 PUSH1 0x60 DUP1 PUSH1 0x1 DUP6 PUSH1 0x40 MLOAD PUSH2 0x416 SWAP2 SWAP1 PUSH2 0xE54 JUMP JUMPDEST SWAP1 DUP2 MSTORE PUSH1 0x20 ADD PUSH1 0x40 MLOAD DUP1 SWAP2 SUB SWAP1 KECCAK256 PUSH1 0x4 ADD PUSH1 0x0 SWAP1 SLOAD SWAP1 PUSH2 0x100 EXP SWAP1 DIV PUSH1 0xFF AND PUSH2 0x474 JUMPI PUSH1 0x40 MLOAD PUSH32 0x8C379A000000000000000000000000000000000000000000000000000000000 DUP2 MSTORE PUSH1 0x4 ADD PUSH2 0x46B SWAP1 PUSH2 0xF8F JUMP JUMPDEST PUSH1 0x40 MLOAD DUP1 SWAP2 SUB SWAP1 REVERT JUMPDEST PUSH1 0x0 PUSH1 0x1 DUP7 PUSH1 0x40 MLOAD PUSH2 0x486 SWAP2 SWAP1 PUSH2 0xE54 JUMP JUMPDEST SWAP1 DUP2 MSTORE PUSH1 0x20 ADD PUSH1 0x40 MLOAD DUP1 SWAP2 SUB SWAP1 KECCAK256 PUSH1 0x40 MLOAD DUP1 PUSH1 0xA0 ADD PUSH1 0x40 MSTORE SWAP1 DUP2 PUSH1 0x0 DUP3 ADD DUP1 SLOAD PUSH2 0x4AF SWAP1 PUSH2 0xFDE JUMP JUMPDEST DUP1 PUSH1 0x1F ADD PUSH1 0x20 DUP1 SWAP2 DIV MUL PUSH1 0x20 ADD PUSH1 0x40 MLOAD SWAP1 DUP2 ADD PUSH1 0x40 MSTORE DUP1 SWAP3 SWAP2 SWAP1 DUP2 DUP2 MSTORE PUSH1 0x20 ADD DUP3 DUP1 SLOAD PUSH2 0x4DB SWAP1 PUSH2 0xFDE JUMP JUMPDEST DUP1 ISZERO PUSH2 0x528 JUMPI DUP1 PUSH1 0x1F LT PUSH2 0x4FD JUMPI PUSH2 0x100 DUP1 DUP4 SLOAD DIV MUL DUP4 MSTORE SWAP2 PUSH1 0x20 ADD SWAP2 PUSH2 0x528 JUMP JUMPDEST DUP3 ADD SWAP2 SWAP1 PUSH1 0x0 MSTORE PUSH1 0x20 PUSH1 0x0 KECCAK256 SWAP1 JUMPDEST DUP2 SLOAD DUP2 MSTORE SWAP1 PUSH1 0x1 ADD SWAP1 PUSH1 0x20 ADD DUP1 DUP4 GT PUSH2 0x50B JUMPI DUP3 SWAP1 SUB PUSH1 0x1F AND DUP3 ADD SWAP2 JUMPDEST POP POP POP POP POP DUP2 MSTORE PUSH1 0x20 ADD PUSH1 0x1 DUP3 ADD DUP1 SLOAD PUSH2 0x541 SWAP1 PUSH2 0xFDE JUMP JUMPDEST DUP1 PUSH1 0x1F ADD PUSH1 0x20 DUP1 SWAP2 DIV MUL PUSH1 0x20 ADD PUSH1 0x40 MLOAD SWAP1 DUP2 ADD PUSH1 0x40 MSTORE DUP1 SWAP3 SWAP2 SWAP1 DUP2 DUP2 MSTORE PUSH1 0x20 ADD DUP3 DUP1 SLOAD PUSH2 0x56D SWAP1 PUSH2 0xFDE JUMP JUMPDEST DUP1 ISZERO PUSH2 0x5BA JUMPI DUP1 PUSH1 0x1F LT PUSH2 0x58F JUMPI PUSH2 0x100 DUP1 DUP4 SLOAD DIV MUL DUP4 MSTORE SWAP2 PUSH1 0x20 ADD SWAP2 PUSH2 0x5BA JUMP JUMPDEST DUP3 ADD SWAP2 SWAP1 PUSH1 0x0 MSTORE PUSH1 0x20 PUSH1 0x0 KECCAK256 SWAP1 JUMPDEST DUP2 SLOAD DUP2 MSTORE SWAP1 PUSH1 0x1 ADD SWAP1 PUSH1 0x20 ADD DUP1 DUP4 GT PUSH2 0x59D JUMPI DUP3 SWAP1 SUB PUSH1 0x1F AND DUP3 ADD SWAP2 JUMPDEST POP POP POP POP POP DUP2 MSTORE PUSH1 0x20 ADD PUSH1 0x2 DUP3 ADD DUP1 SLOAD PUSH2 0x5D3 SWAP1 PUSH2 0xFDE JUMP JUMPDEST DUP1 PUSH1 0x1F ADD PUSH1 0x20 DUP1 SWAP2 DIV MUL PUSH1 0x20 ADD PUSH1 0x40 MLOAD SWAP1 DUP2 ADD PUSH1 0x40 MSTORE DUP1 SWAP3 SWAP2 SWAP1 DUP2 DUP2 MSTORE PUSH1 0x20 ADD DUP3 DUP1 SLOAD PUSH2 0x5FF SWAP1 PUSH2 0xFDE JUMP JUMPDEST DUP1 ISZERO PUSH2 0x64C JUMPI DUP1 PUSH1 0x1F LT PUSH2 0x621 JUMPI PUSH2 0x100 DUP1 DUP4 SLOAD DIV MUL DUP4 MSTORE SWAP2 PUSH1 0x20 ADD SWAP2 PUSH2 0x64C JUMP JUMPDEST DUP3 ADD SWAP2 SWAP1 PUSH1 0x0 MSTORE PUSH1 0x20 PUSH1 0x0 KECCAK256 SWAP1 JUMPDEST DUP2 SLOAD DUP2 MSTORE SWAP1 PUSH1 0x1 ADD SWAP1 PUSH1 0x20 ADD DUP1 DUP4 GT PUSH2 0x62F JUMPI DUP3 SWAP1 SUB PUSH1 0x1F AND DUP3 ADD SWAP2 JUMPDEST POP POP POP POP POP DUP2 MSTORE PUSH1 0x20 ADD PUSH1 0x3 DUP3 ADD DUP1 SLOAD PUSH2 0x665 SWAP1 PUSH2 0xFDE JUMP JUMPDEST DUP1 PUSH1 0x1F ADD PUSH1 0x20 DUP1 SWAP2 DIV MUL PUSH1 0x20 ADD PUSH1 0x40 MLOAD SWAP1 DUP2 ADD PUSH1 0x40 MSTORE DUP1 SWAP3 SWAP2 SWAP1 DUP2 DUP2 MSTORE PUSH1 0x20 ADD DUP3 DUP1 SLOAD PUSH2 0x691 SWAP1 PUSH2 0xFDE JUMP JUMPDEST DUP1 ISZERO PUSH2 0x6DE JUMPI DUP1 PUSH1 0x1F LT PUSH2 0x6B3 JUMPI PUSH2 0x100 DUP1 DUP4 SLOAD DIV MUL DUP4 MSTORE SWAP2 PUSH1 0x20 ADD SWAP2 PUSH2 0x6DE JUMP JUMPDEST DUP3 ADD SWAP2 SWAP1 PUSH1 0x0 MSTORE PUSH1 0x20 PUSH1 0x0 KECCAK256 SWAP1 JUMPDEST DUP2 SLOAD DUP2 MSTORE SWAP1 PUSH1 0x1 ADD SWAP1 PUSH1 0x20 ADD DUP1 DUP4 GT PUSH2 0x6C1 JUMPI DUP3 SWAP1 SUB PUSH1 0x1F AND DUP3 ADD SWAP2 JUMPDEST POP POP POP POP POP DUP2 MSTORE PUSH1 0x20 ADD PUSH1 0x4 DUP3 ADD PUSH1 0x0 SWAP1 SLOAD SWAP1 PUSH2 0x100 EXP SWAP1 DIV PUSH1 0xFF AND ISZERO ISZERO ISZERO ISZERO DUP2 MSTORE POP POP SWAP1 POP DUP1 PUSH1 0x0 ADD MLOAD DUP2 PUSH1 0x20 ADD MLOAD DUP3 PUSH1 0x40 ADD MLOAD DUP4 PUSH1 0x60 ADD MLOAD SWAP5 POP SWAP5 POP SWAP5 POP SWAP5 POP POP SWAP2 SWAP4 POP SWAP2 SWAP4 JUMP JUMPDEST PUSH2 0x731 DUP5 PUSH2 0x162 JUMP JUMPDEST ISZERO PUSH2 0x771 JUMPI PUSH1 0x40 MLOAD PUSH32 0x8C379A000000000000000000000000000000000000000000000000000000000 DUP2 MSTORE PUSH1 0x4 ADD PUSH2 0x768 SWAP1 PUSH2 0xEB7 JUMP JUMPDEST PUSH1 0x40 MLOAD DUP1 SWAP2 SUB SWAP1 REVERT JUMPDEST PUSH1 0x0 DUP5 MLOAD GT PUSH2 0x7B5 JUMPI PUSH1 0x40 MLOAD PUSH32 0x8C379A000000000000000000000000000000000000000000000000000000000 DUP2 MSTORE PUSH1 0x4 ADD PUSH2 0x7AC SWAP1 PUSH2 0x105B JUMP JUMPDEST PUSH1 0x40 MLOAD DUP1 SWAP2 SUB SWAP1 REVERT JUMPDEST PUSH1 0x0 DUP4 MLOAD GT PUSH2 0x7F9 JUMPI PUSH1 0x40 MLOAD PUSH32 0x8C379A000000000000000000000000000000000000000000000000000000000 DUP2 MSTORE PUSH1 0x4 ADD PUSH2 0x7F0 SWAP1 PUSH2 0x10C7 JUMP JUMPDEST PUSH1 0x40 MLOAD DUP1 SWAP2 SUB SWAP1 REVERT JUMPDEST PUSH1 0x40 MLOAD DUP1 PUSH1 0xA0 ADD PUSH1 0x40 MSTORE DUP1 DUP6 DUP2 MSTORE PUSH1 0x20 ADD DUP5 DUP2 MSTORE PUSH1 0x20 ADD DUP4 DUP2 MSTORE PUSH1 0x20 ADD DUP3 DUP2 MSTORE PUSH1 0x20 ADD PUSH1 0x1 ISZERO ISZERO DUP2 MSTORE POP PUSH1 0x1 DUP6 PUSH1 0x40 MLOAD PUSH2 0x833 SWAP2 SWAP1 PUSH2 0xE54 JUMP JUMPDEST SWAP1 DUP2 MSTORE PUSH1 0x20 ADD PUSH1 0x40 MLOAD DUP1 SWAP2 SUB SWAP1 KECCAK256 PUSH1 0x0 DUP3 ADD MLOAD DUP2 PUSH1 0x0 ADD SWAP1 DUP2 PUSH2 0x856 SWAP2 SWAP1 PUSH2 0x129D JUMP JUMPDEST POP PUSH1 0x20 DUP3 ADD MLOAD DUP2 PUSH1 0x1 ADD SWAP1 DUP2 PUSH2 0x86C SWAP2 SWAP1 PUSH2 0x129D JUMP JUMPDEST POP PUSH1 0x40 DUP3 ADD MLOAD DUP2 PUSH1 0x2 ADD SWAP1 DUP2 PUSH2 0x882 SWAP2 SWAP1 PUSH2 0x129D JUMP JUMPDEST POP PUSH1 0x60 DUP3 ADD MLOAD DUP2 PUSH1 0x3 ADD SWAP1 DUP2 PUSH2 0x898 SWAP2 SWAP1 PUSH2 0x129D JUMP JUMPDEST POP PUSH1 0x80 DUP3 ADD MLOAD DUP2 PUSH1 0x4 ADD PUSH1 0x0 PUSH2 0x100 EXP DUP2 SLOAD DUP2 PUSH1 0xFF MUL NOT AND SWAP1 DUP4 ISZERO ISZERO MUL OR SWAP1 SSTORE POP SWAP1 POP POP CALLER PUSH1 0x0 DUP6 PUSH1 0x40 MLOAD PUSH2 0x8CD SWAP2 SWAP1 PUSH2 0xE54 JUMP JUMPDEST SWAP1 DUP2 MSTORE PUSH1 0x20 ADD PUSH1 0x40 MLOAD DUP1 SWAP2 SUB SWAP1 KECCAK256 PUSH1 0x0 PUSH2 0x100 EXP DUP2 SLOAD DUP2 PUSH20 0xFFFFFFFFFFFFFFFFFFFFFFFFFFFFFFFFFFFFFFFF MUL NOT AND SWAP1 DUP4 PUSH20 0xFFFFFFFFFFFFFFFFFFFFFFFFFFFFFFFFFFFFFFFF AND MUL OR SWAP1 SSTORE POP DUP4 PUSH1 0x40 MLOAD PUSH2 0x927 SWAP2 SWAP1 PUSH2 0xE54 JUMP JUMPDEST PUSH1 0x40 MLOAD DUP1 SWAP2 SUB SWAP1 KECCAK256 PUSH32 0x15A910D2EFAF7349F437C783D73A5FC8330AFAD390E19AC0D6BEBD5EBE1301EE DUP5 PUSH1 0x40 MLOAD PUSH2 0x95E SWAP2 SWAP1 PUSH2 0x136F JUMP JUMPDEST PUSH1 0x40 MLOAD DUP1 SWAP2 SUB SWAP1 LOG2 POP POP POP POP JUMP JUMPDEST PUSH1 0x0 PUSH1 0x1 DUP3 PUSH1 0x40 MLOAD PUSH2 0x97E SWAP2 SWAP1 PUSH2 0xE54 JUMP JUMPDEST SWAP1 DUP2 MSTORE PUSH1 0x20 ADD PUSH1 0x40 MLOAD DUP1 SWAP2 SUB SWAP1 KECCAK256 PUSH1 0x4 ADD PUSH1 0x0 SWAP1 SLOAD SWAP1 PUSH2 0x100 EXP SWAP1 DIV PUSH1 0xFF AND SWAP1 POP SWAP2 SWAP1 POP JUMP JUMPDEST PUSH1 0x0 PUSH1 0x40 MLOAD SWAP1 POP SWAP1 JUMP JUMPDEST PUSH1 0x0 DUP1 REVERT JUMPDEST PUSH1 0x0 DUP1 REVERT JUMPDEST PUSH1 0x0 DUP1 REVERT JUMPDEST PUSH1 0x0 DUP1 REVERT JUMPDEST PUSH1 0x0 PUSH1 0x1F NOT PUSH1 0x1F DUP4 ADD AND SWAP1 POP SWAP2 SWAP1 POP JUMP JUMPDEST PUSH32 0x4E487B7100000000000000000000000000000000000000000000000000000000 PUSH1 0x0 MSTORE PUSH1 0x41 PUSH1 0x4 MSTORE PUSH1 0x24 PUSH1 0x0 REVERT JUMPDEST PUSH2 0xA0B DUP3 PUSH2 0x9C2 JUMP JUMPDEST DUP2 ADD DUP2 DUP2 LT PUSH8 0xFFFFFFFFFFFFFFFF DUP3 GT OR ISZERO PUSH2 0xA2A JUMPI PUSH2 0xA29 PUSH2 0x9D3 JUMP JUMPDEST JUMPDEST DUP1 PUSH1 0x40 MSTORE POP POP POP JUMP JUMPDEST PUSH1 0x0 PUSH2 0xA3D PUSH2 0x9A4 JUMP JUMPDEST SWAP1 POP PUSH2 0xA49 DUP3 DUP3 PUSH2 0xA02 JUMP JUMPDEST SWAP2 SWAP1 POP JUMP JUMPDEST PUSH1 0x0 PUSH8 0xFFFFFFFFFFFFFFFF DUP3 GT ISZERO PUSH2 0xA69 JUMPI PUSH2 0xA68 PUSH2 0x9D3 JUMP JUMPDEST JUMPDEST PUSH2 0xA72 DUP3 PUSH2 0x9C2 JUMP JUMPDEST SWAP1 POP PUSH1 0x20 DUP2 ADD SWAP1 POP SWAP2 SWAP1 POP JUMP JUMPDEST DUP3 DUP2 DUP4 CALLDATACOPY PUSH1 0x0 DUP4 DUP4 ADD MSTORE POP POP POP JUMP JUMPDEST PUSH1 0x0 PUSH2 0xAA1 PUSH2 0xA9C DUP5 PUSH2 0xA4E JUMP JUMPDEST PUSH2 0xA33 JUMP JUMPDEST SWAP1 POP DUP3 DUP2 MSTORE PUSH1 0x20 DUP2 ADD DUP5 DUP5 DUP5 ADD GT ISZERO PUSH2 0xABD JUMPI PUSH2 0xABC PUSH2 0x9BD JUMP JUMPDEST JUMPDEST PUSH2 0xAC8 DUP5 DUP3 DUP6 PUSH2 0xA7F JUMP JUMPDEST POP SWAP4 SWAP3 POP POP POP JUMP JUMPDEST PUSH1 0x0 DUP3 PUSH1 0x1F DUP4 ADD SLT PUSH2 0xAE5 JUMPI PUSH2 0xAE4 PUSH2 0x9B8 JUMP JUMPDEST JUMPDEST DUP2 CALLDATALOAD PUSH2 0xAF5 DUP5 DUP3 PUSH1 0x20 DUP7 ADD PUSH2 0xA8E JUMP JUMPDEST SWAP2 POP POP SWAP3 SWAP2 POP POP JUMP JUMPDEST PUSH1 0x0 PUSH1 0x20 DUP3 DUP5 SUB SLT ISZERO PUSH2 0xB14 JUMPI PUSH2 0xB13 PUSH2 0x9AE JUMP JUMPDEST JUMPDEST PUSH1 0x0 DUP3 ADD CALLDATALOAD PUSH8 0xFFFFFFFFFFFFFFFF DUP2 GT ISZERO PUSH2 0xB32 JUMPI PUSH2 0xB31 PUSH2 0x9B3 JUMP JUMPDEST JUMPDEST PUSH2 0xB3E DUP5 DUP3 DUP6 ADD PUSH2 0xAD0 JUMP JUMPDEST SWAP2 POP POP SWAP3 SWAP2 POP POP JUMP JUMPDEST PUSH1 0x0 DUP2 ISZERO ISZERO SWAP1 POP SWAP2 SWAP1 POP JUMP JUMPDEST PUSH2 0xB5C DUP2 PUSH2 0xB47 JUMP JUMPDEST DUP3 MSTORE POP POP JUMP JUMPDEST PUSH1 0x0 PUSH1 0x20 DUP3 ADD SWAP1 POP PUSH2 0xB77 PUSH1 0x0 DUP4 ADD DUP5 PUSH2 0xB53 JUMP JUMPDEST SWAP3 SWAP2 POP POP JUMP JUMPDEST PUSH1 0x0 PUSH20 0xFFFFFFFFFFFFFFFFFFFFFFFFFFFFFFFFFFFFFFFF DUP3 AND SWAP1 POP SWAP2 SWAP1 POP JUMP JUMPDEST PUSH1 0x0 PUSH2 0xBA8 DUP3 PUSH2 0xB7D JUMP JUMPDEST SWAP1 POP SWAP2 SWAP1 POP JUMP JUMPDEST PUSH2 0xBB8 DUP2 PUSH2 0xB9D JUMP JUMPDEST DUP3 MSTORE POP POP JUMP JUMPDEST PUSH1 0x0 PUSH1 0x20 DUP3 ADD SWAP1 POP PUSH2 0xBD3 PUSH1 0x0 DUP4 ADD DUP5 PUSH2 0xBAF JUMP JUMPDEST SWAP3 SWAP2 POP POP JUMP JUMPDEST PUSH2 0xBE2 DUP2 PUSH2 0xB9D JUMP JUMPDEST DUP2 EQ PUSH2 0xBED JUMPI PUSH1 0x0 DUP1 REVERT JUMPDEST POP JUMP JUMPDEST PUSH1 0x0 DUP2 CALLDATALOAD SWAP1 POP PUSH2 0xBFF DUP2 PUSH2 0xBD9 JUMP JUMPDEST SWAP3 SWAP2 POP POP JUMP JUMPDEST PUSH1 0x0 DUP1 PUSH1 0x40 DUP4 DUP6 SUB SLT ISZERO PUSH2 0xC1C JUMPI PUSH2 0xC1B PUSH2 0x9AE JUMP JUMPDEST JUMPDEST PUSH1 0x0 DUP4 ADD CALLDATALOAD PUSH8 0xFFFFFFFFFFFFFFFF DUP2 GT ISZERO PUSH2 0xC3A JUMPI PUSH2 0xC39 PUSH2 0x9B3 JUMP JUMPDEST JUMPDEST PUSH2 0xC46 DUP6 DUP3 DUP7 ADD PUSH2 0xAD0 JUMP JUMPDEST SWAP3 POP POP PUSH1 0x20 PUSH2 0xC57 DUP6 DUP3 DUP7 ADD PUSH2 0xBF0 JUMP JUMPDEST SWAP2 POP POP SWAP3 POP SWAP3 SWAP1 POP JUMP JUMPDEST PUSH1 0x0 DUP2 MLOAD SWAP1 POP SWAP2 SWAP1 POP JUMP JUMPDEST PUSH1 0x0 DUP3 DUP3 MSTORE PUSH1 0x20 DUP3 ADD SWAP1 POP SWAP3 SWAP2 POP POP JUMP JUMPDEST PUSH1 0x0 JUMPDEST DUP4 DUP2 LT ISZERO PUSH2 0xC9B JUMPI DUP1 DUP3 ADD MLOAD DUP2 DUP5 ADD MSTORE PUSH1 0x20 DUP2 ADD SWAP1 POP PUSH2 0xC80 JUMP JUMPDEST PUSH1 0x0 DUP5 DUP5 ADD MSTORE POP POP POP POP JUMP JUMPDEST PUSH1 0x0 PUSH2 0xCB2 DUP3 PUSH2 0xC61 JUMP JUMPDEST PUSH2 0xCBC DUP2 DUP6 PUSH2 0xC6C JUMP JUMPDEST SWAP4 POP PUSH2 0xCCC DUP2 DUP6 PUSH1 0x20 DUP7 ADD PUSH2 0xC7D JUMP JUMPDEST PUSH2 0xCD5 DUP2 PUSH2 0x9C2 JUMP JUMPDEST DUP5 ADD SWAP2 POP POP SWAP3 SWAP2 POP POP JUMP JUMPDEST PUSH1 0x0 PUSH1 0x80 DUP3 ADD SWAP1 POP DUP2 DUP2 SUB PUSH1 0x0 DUP4 ADD MSTORE PUSH2 0xCFA DUP2 DUP8 PUSH2 0xCA7 JUMP JUMPDEST SWAP1 POP DUP2 DUP2 SUB PUSH1 0x20 DUP4 ADD MSTORE PUSH2 0xD0E DUP2 DUP7 PUSH2 0xCA7 JUMP JUMPDEST SWAP1 POP DUP2 DUP2 SUB PUSH1 0x40 DUP4 ADD MSTORE PUSH2 0xD22 DUP2 DUP6 PUSH2 0xCA7 JUMP JUMPDEST SWAP1 POP DUP2 DUP2 SUB PUSH1 0x60 DUP4 ADD MSTORE PUSH2 0xD36 DUP2 DUP5 PUSH2 0xCA7 JUMP JUMPDEST SWAP1 POP SWAP6 SWAP5 POP POP POP POP POP JUMP JUMPDEST PUSH1 0x0 DUP1 PUSH1 0x0 DUP1 PUSH1 0x80 DUP6 DUP8 SUB SLT ISZERO PUSH2 0xD5B JUMPI PUSH2 0xD5A PUSH2 0x9AE JUMP JUMPDEST JUMPDEST PUSH1 0x0 DUP6 ADD CALLDATALOAD PUSH8 0xFFFFFFFFFFFFFFFF DUP2 GT ISZERO PUSH2 0xD79 JUMPI PUSH2 0xD78 PUSH2 0x9B3 JUMP JUMPDEST JUMPDEST PUSH2 0xD85 DUP8 DUP3 DUP9 ADD PUSH2 0xAD0 JUMP JUMPDEST SWAP5 POP POP PUSH1 0x20 DUP6 ADD CALLDATALOAD PUSH8 0xFFFFFFFFFFFFFFFF DUP2 GT ISZERO PUSH2 0xDA6 JUMPI PUSH2 0xDA5 PUSH2 0x9B3 JUMP JUMPDEST JUMPDEST PUSH2 0xDB2 DUP8 DUP3 DUP9 ADD PUSH2 0xAD0 JUMP JUMPDEST SWAP4 POP POP PUSH1 0x40 DUP6 ADD CALLDATALOAD PUSH8 0xFFFFFFFFFFFFFFFF DUP2 GT ISZERO PUSH2 0xDD3 JUMPI PUSH2 0xDD2 PUSH2 0x9B3 JUMP JUMPDEST JUMPDEST PUSH2 0xDDF DUP8 DUP3 DUP9 ADD PUSH2 0xAD0 JUMP JUMPDEST SWAP3 POP POP PUSH1 0x60 DUP6 ADD CALLDATALOAD PUSH8 0xFFFFFFFFFFFFFFFF DUP2 GT ISZERO PUSH2 0xE00 JUMPI PUSH2 0xDFF PUSH2 0x9B3 JUMP JUMPDEST JUMPDEST PUSH2 0xE0C DUP8 DUP3 DUP9 ADD PUSH2 0xAD0 JUMP JUMPDEST SWAP2 POP POP SWAP3 SWAP6 SWAP2 SWAP5 POP SWAP3 POP JUMP JUMPDEST PUSH1 0x0 DUP2 SWAP1 POP SWAP3 SWAP2 POP POP JUMP JUMPDEST PUSH1 0x0 PUSH2 0xE2E DUP3 PUSH2 0xC61 JUMP JUMPDEST PUSH2 0xE38 DUP2 DUP6 PUSH2 0xE18 JUMP JUMPDEST SWAP4 POP PUSH2 0xE48 DUP2 DUP6 PUSH1 0x20 DUP7 ADD PUSH2 0xC7D JUMP JUMPDEST DUP1 DUP5 ADD SWAP2 POP POP SWAP3 SWAP2 POP POP JUMP JUMPDEST PUSH1 0x0 PUSH2 0xE60 DUP3 DUP5 PUSH2 0xE23 JUMP JUMPDEST SWAP2 POP DUP2 SWAP1 POP SWAP3 SWAP2 POP POP JUMP JUMPDEST PUSH32 0x44494420616C7265616479206578697374730000000000000000000000000000 PUSH1 0x0 DUP3 ADD MSTORE POP JUMP JUMPDEST PUSH1 0x0 PUSH2 0xEA1 PUSH1 0x12 DUP4 PUSH2 0xC6C JUMP JUMPDEST SWAP2 POP PUSH2 0xEAC DUP3 PUSH2 0xE6B JUMP JUMPDEST PUSH1 0x20 DUP3 ADD SWAP1 POP SWAP2 SWAP1 POP JUMP JUMPDEST PUSH1 0x0 PUSH1 0x20 DUP3 ADD SWAP1 POP DUP2 DUP2 SUB PUSH1 0x0 DUP4 ADD MSTORE PUSH2 0xED0 DUP2 PUSH2 0xE94 JUMP JUMPDEST SWAP1 POP SWAP2 SWAP1 POP JUMP JUMPDEST PUSH32 0x496E76616C696420636F6E747261637420616464726573730000000000000000 PUSH1 0x0 DUP3 ADD MSTORE POP JUMP JUMPDEST PUSH1 0x0 PUSH2 0xF0D PUSH1 0x18 DUP4 PUSH2 0xC6C JUMP JUMPDEST SWAP2 POP PUSH2 0xF18 DUP3 PUSH2 0xED7 JUMP JUMPDEST PUSH1 0x20 DUP3 ADD SWAP1 POP SWAP2 SWAP1 POP JUMP JUMPDEST PUSH1 0x0 PUSH1 0x20 DUP3 ADD SWAP1 POP DUP2 DUP2 SUB PUSH1 0x0 DUP4 ADD MSTORE PUSH2 0xF3C DUP2 PUSH2 0xF00 JUMP JUMPDEST SWAP1 POP SWAP2 SWAP1 POP JUMP JUMPDEST PUSH32 0x44494420646F63756D656E7420646F6573206E6F742065786973740000000000 PUSH1 0x0 DUP3 ADD MSTORE POP JUMP JUMPDEST PUSH1 0x0 PUSH2 0xF79 PUSH1 0x1B DUP4 PUSH2 0xC6C JUMP JUMPDEST SWAP2 POP PUSH2 0xF84 DUP3 PUSH2 0xF43 JUMP JUMPDEST PUSH1 0x20 DUP3 ADD SWAP1 POP SWAP2 SWAP1 POP JUMP JUMPDEST PUSH1 0x0 PUSH1 0x20 DUP3 ADD SWAP1 POP DUP2 DUP2 SUB PUSH1 0x0 DUP4 ADD MSTORE PUSH2 0xFA8 DUP2 PUSH2 0xF6C JUMP JUMPDEST SWAP1 POP SWAP2 SWAP1 POP JUMP JUMPDEST PUSH32 0x4E487B7100000000000000000000000000000000000000000000000000000000 PUSH1 0x0 MSTORE PUSH1 0x22 PUSH1 0x4 MSTORE PUSH1 0x24 PUSH1 0x0 REVERT JUMPDEST PUSH1 0x0 PUSH1 0x2 DUP3 DIV SWAP1 POP PUSH1 0x1 DUP3 AND DUP1 PUSH2 0xFF6 JUMPI PUSH1 0x7F DUP3 AND SWAP2 POP JUMPDEST PUSH1 0x20 DUP3 LT DUP2 SUB PUSH2 0x1009 JUMPI PUSH2 0x1008 PUSH2 0xFAF JUMP JUMPDEST JUMPDEST POP SWAP2 SWAP1 POP JUMP JUMPDEST PUSH32 0x4449442063616E6E6F7420626520656D70747900000000000000000000000000 PUSH1 0x0 DUP3 ADD MSTORE POP JUMP JUMPDEST PUSH1 0x0 PUSH2 0x1045 PUSH1 0x13 DUP4 PUSH2 0xC6C JUMP JUMPDEST SWAP2 POP PUSH2 0x1050 DUP3 PUSH2 0x100F JUMP JUMPDEST PUSH1 0x20 DUP3 ADD SWAP1 POP SWAP2 SWAP1 POP JUMP JUMPDEST PUSH1 0x0 PUSH1 0x20 DUP3 ADD SWAP1 POP DUP2 DUP2 SUB PUSH1 0x0 DUP4 ADD MSTORE PUSH2 0x1074 DUP2 PUSH2 0x1038 JUMP JUMPDEST SWAP1 POP SWAP2 SWAP1 POP JUMP JUMPDEST PUSH32 0x436F6E74726F6C6C65722063616E6E6F7420626520656D707479000000000000 PUSH1 0x0 DUP3 ADD MSTORE POP JUMP JUMPDEST PUSH1 0x0 PUSH2 0x10B1 PUSH1 0x1A DUP4 PUSH2 0xC6C JUMP JUMPDEST SWAP2 POP PUSH2 0x10BC DUP3 PUSH2 0x107B JUMP JUMPDEST PUSH1 0x20 DUP3 ADD SWAP1 POP SWAP2 SWAP1 POP JUMP JUMPDEST PUSH1 0x0 PUSH1 0x20 DUP3 ADD SWAP1 POP DUP2 DUP2 SUB PUSH1 0x0 DUP4 ADD MSTORE PUSH2 0x10E0 DUP2 PUSH2 0x10A4 JUMP JUMPDEST SWAP1 POP SWAP2 SWAP1 POP JUMP JUMPDEST PUSH1 0x0 DUP2 SWAP1 POP DUP2 PUSH1 0x0 MSTORE PUSH1 0x20 PUSH1 0x0 KECCAK256 SWAP1 POP SWAP2 SWAP1 POP JUMP JUMPDEST PUSH1 0x0 PUSH1 0x20 PUSH1 0x1F DUP4 ADD DIV SWAP1 POP SWAP2 SWAP1 POP JUMP JUMPDEST PUSH1 0x0 DUP3 DUP3 SHL SWAP1 POP SWAP3 SWAP2 POP POP JUMP JUMPDEST PUSH1 0x0 PUSH1 0x8 DUP4 MUL PUSH2 0x1149 PUSH32 0xFFFFFFFFFFFFFFFFFFFFFFFFFFFFFFFFFFFFFFFFFFFFFFFFFFFFFFFFFFFFFFFF DUP3 PUSH2 0x110C JUMP JUMPDEST PUSH2 0x1153 DUP7 DUP4 PUSH2 0x110C JUMP JUMPDEST SWAP6 POP DUP1 NOT DUP5 AND SWAP4 POP DUP1 DUP7 AND DUP5 OR SWAP3 POP POP POP SWAP4 SWAP3 POP POP POP JUMP JUMPDEST PUSH1 0x0 DUP2 SWAP1 POP SWAP2 SWAP1 POP JUMP JUMPDEST PUSH1 0x0 DUP2 SWAP1 POP SWAP2 SWAP1 POP JUMP JUMPDEST PUSH1 0x0 PUSH2 0x119A PUSH2 0x1195 PUSH2 0x1190 DUP5 PUSH2 0x116B JUMP JUMPDEST PUSH2 0x1175 JUMP JUMPDEST PUSH2 0x116B JUMP JUMPDEST SWAP1 POP SWAP2 SWAP1 POP JUMP JUMPDEST PUSH1 0x0 DUP2 SWAP1 POP SWAP2 SWAP1 POP JUMP JUMPDEST PUSH2 0x11B4 DUP4 PUSH2 0x117F JUMP JUMPDEST PUSH2 0x11C8 PUSH2 0x11C0 DUP3 PUSH2 0x11A1 JUMP JUMPDEST DUP5 DUP5 SLOAD PUSH2 0x1119 JUMP JUMPDEST DUP3 SSTORE POP POP POP POP JUMP JUMPDEST PUSH1 0x0 SWAP1 JUMP JUMPDEST PUSH2 0x11DD PUSH2 0x11D0 JUMP JUMPDEST PUSH2 0x11E8 DUP2 DUP5 DUP5 PUSH2 0x11AB JUMP JUMPDEST POP POP POP JUMP JUMPDEST JUMPDEST DUP2 DUP2 LT ISZERO PUSH2 0x120C JUMPI PUSH2 0x1201 PUSH1 0x0 DUP3 PUSH2 0x11D5 JUMP JUMPDEST PUSH1 0x1 DUP2 ADD SWAP1 POP PUSH2 0x11EE JUMP JUMPDEST POP POP JUMP JUMPDEST PUSH1 0x1F DUP3 GT ISZERO PUSH2 0x1251 JUMPI PUSH2 0x1222 DUP2 PUSH2 0x10E7 JUMP JUMPDEST PUSH2 0x122B DUP5 PUSH2 0x10FC JUMP JUMPDEST DUP2 ADD PUSH1 0x20 DUP6 LT ISZERO PUSH2 0x123A JUMPI DUP2 SWAP1 POP JUMPDEST PUSH2 0x124E PUSH2 0x1246 DUP6 PUSH2 0x10FC JUMP JUMPDEST DUP4 ADD DUP3 PUSH2 0x11ED JUMP JUMPDEST POP POP JUMPDEST POP POP POP JUMP JUMPDEST PUSH1 0x0 DUP3 DUP3 SHR SWAP1 POP SWAP3 SWAP2 POP POP JUMP JUMPDEST PUSH1 0x0 PUSH2 0x1274 PUSH1 0x0 NOT DUP5 PUSH1 0x8 MUL PUSH2 0x1256 JUMP JUMPDEST NOT DUP1 DUP4 AND SWAP2 POP POP SWAP3 SWAP2 POP POP JUMP JUMPDEST PUSH1 0x0 PUSH2 0x128D DUP4 DUP4 PUSH2 0x1263 JUMP JUMPDEST SWAP2 POP DUP3 PUSH1 0x2 MUL DUP3 OR SWAP1 POP SWAP3 SWAP2 POP POP JUMP JUMPDEST PUSH2 0x12A6 DUP3 PUSH2 0xC61 JUMP JUMPDEST PUSH8 0xFFFFFFFFFFFFFFFF DUP2 GT ISZERO PUSH2 0x12BF JUMPI PUSH2 0x12BE PUSH2 0x9D3 JUMP JUMPDEST JUMPDEST PUSH2 0x12C9 DUP3 SLOAD PUSH2 0xFDE JUMP JUMPDEST PUSH2 0x12D4 DUP3 DUP3 DUP6 PUSH2 0x1210 JUMP JUMPDEST PUSH1 0x0 PUSH1 0x20 SWAP1 POP PUSH1 0x1F DUP4 GT PUSH1 0x1 DUP2 EQ PUSH2 0x1307 JUMPI PUSH1 0x0 DUP5 ISZERO PUSH2 0x12F5 JUMPI DUP3 DUP8 ADD MLOAD SWAP1 POP JUMPDEST PUSH2 0x12FF DUP6 DUP3 PUSH2 0x1281 JUMP JUMPDEST DUP7 SSTORE POP PUSH2 0x1367 JUMP JUMPDEST PUSH1 0x1F NOT DUP5 AND PUSH2 0x1315 DUP7 PUSH2 0x10E7 JUMP JUMPDEST PUSH1 0x0 JUMPDEST DUP3 DUP2 LT ISZERO PUSH2 0x133D JUMPI DUP5 DUP10 ADD MLOAD DUP3 SSTORE PUSH1 0x1 DUP3 ADD SWAP2 POP PUSH1 0x20 DUP6 ADD SWAP5 POP PUSH1 0x20 DUP2 ADD SWAP1 POP PUSH2 0x1318 JUMP JUMPDEST DUP7 DUP4 LT ISZERO PUSH2 0x135A JUMPI DUP5 DUP10 ADD MLOAD PUSH2 0x1356 PUSH1 0x1F DUP10 AND DUP3 PUSH2 0x1263 JUMP JUMPDEST DUP4 SSTORE POP JUMPDEST PUSH1 0x1 PUSH1 0x2 DUP9 MUL ADD DUP9 SSTORE POP POP POP JUMPDEST POP POP POP POP POP POP JUMP JUMPDEST PUSH1 0x0 PUSH1 0x20 DUP3 ADD SWAP1 POP DUP2 DUP2 SUB PUSH1 0x0 DUP4 ADD MSTORE PUSH2 0x1389 DUP2 DUP5 PUSH2 0xCA7 JUMP JUMPDEST SWAP1 POP SWAP3 SWAP2 POP POP JUMP INVALID LOG2 PUSH5 0x6970667358 0x22 SLT KECCAK256 ISZERO 0x2C PUSH20 0x525172215F2BDDE78647613C4E357ED6D20D4105 0x27 0x24 0xDC BLOBHASH 0xA8 0xB7 PUSH8 0x68764736F6C6343 STOP ADDMOD SHR STOP CALLER "},"methodIdentifiers":{"createDID(string,string,string,string)":"ade53cf8","didExists(string)":"20dd57a9","getDIDContract(string)":"59fa5147","getDIDDocument(string)":"784afc4e","hasDIDDocument(string)":"d493cb77","registerDID(string,address)":"6662666a"}}}}}