{
  "_format": "hh-sol-artifact-1",
  "contractName": "DID",
  "sourceName": "contracts/DID.sol",
  "abi": [
    {
      "anonymous": false,
      "inputs": [
        {
          "indexed": false,
          "internalType": "string",
          "name": "did",
          "type": "string"
        },
        {
          "indexed": true,
          "internalType": "address",
          "name": "owner",
          "type": "address"
        },
        {
          "indexed": false,
          "internalType": "uint256",
          "name": "timestamp",
          "type": "uint256"
        }
      ],
      "name": "DeactivateDID",
      "type": "event"
    },
    {
      "anonymous": false,
      "inputs": [
        {
          "indexed": false,
          "internalType": "string",
          "name": "did",
          "type": "string"
        },
        {
          "indexed": true,
          "internalType": "address",
          "name": "owner",
          "type": "address"
        },
        {
          "indexed": false,
          "internalType": "string",
          "name": "name",
          "type": "string"
        },
        {
          "indexed": false,
          "internalType": "string",
          "name": "birthday",
          "type": "string"
        },
        {
          "indexed": false,
          "internalType": "string",
          "name": "personalID",
          "type": "string"
        },
        {
          "indexed": false,
          "internalType": "uint256",
          "name": "timestamp",
          "type": "uint256"
        }
      ],
      "name": "RegisterDID",
      "type": "event"
    },
    {
      "anonymous": false,
      "inputs": [
        {
          "indexed": false,
          "internalType": "string",
          "name": "did",
          "type": "string"
        },
        {
          "indexed": true,
          "internalType": "address",
          "name": "owner",
          "type": "address"
        },
        {
          "indexed": false,
          "internalType": "string",
          "name": "name",
          "type": "string"
        },
        {
          "indexed": false,
          "internalType": "string",
          "name": "birthday",
          "type": "string"
        },
        {
          "indexed": false,
          "internalType": "string",
          "name": "personalID",
          "type": "string"
        },
        {
          "indexed": false,
          "internalType": "uint256",
          "name": "timestamp",
          "type": "uint256"
        }
      ],
      "name": "UpdateDID",
      "type": "event"
    },
    {
      "inputs": [
        {
          "internalType": "string",
          "name": "did",
          "type": "string"
        }
      ],
      "name": "deactivateDID",
      "outputs": [],
      "stateMutability": "nonpayable",
      "type": "function"
    },
    {
      "inputs": [
        {
          "internalType": "uint256",
          "name": "index",
          "type": "uint256"
        }
      ],
      "name": "getDIDAtIndex",
      "outputs": [
        {
          "internalType": "string",
          "name": "",
          "type": "string"
        }
      ],
      "stateMutability": "view",
      "type": "function"
    },
    {
      "inputs": [
        {
          "internalType": "string",
          "name": "did",
          "type": "string"
        }
      ],
      "name": "getDIDInfo",
      "outputs": [
        {
          "internalType": "address",
          "name": "owner",
          "type": "address"
        },
        {
          "internalType": "string",
          "name": "name",
          "type": "string"
        },
        {
          "internalType": "string",
          "name": "birthday",
          "type": "string"
        },
        {
          "internalType": "string",
          "name": "personalID",
          "type": "string"
        },
        {
          "internalType": "uint256",
          "name": "timestamp",
          "type": "uint256"
        },
        {
          "internalType": "bool",
          "name": "active",
          "type": "bool"
        }
      ],
      "stateMutability": "view",
      "type": "function"
    },
    {
      "inputs": [],
      "name": "getTotalDIDs",
      "outputs": [
        {
          "internalType": "uint256",
          "name": "",
          "type": "uint256"
        }
      ],
      "stateMutability": "view",
      "type": "function"
    },
    {
      "inputs": [
        {
          "internalType": "string",
          "name": "did",
          "type": "string"
        }
      ],
      "name": "isDIDRegistered",
      "outputs": [
        {
          "internalType": "bool",
          "name": "",
          "type": "bool"
        }
      ],
      "stateMutability": "view",
      "type": "function"
    },
    {
      "inputs": [
        {
          "internalType": "string",
          "name": "did",
          "type": "string"
        },
        {
          "internalType": "string",
          "name": "name",
          "type": "string"
        },
        {
          "internalType": "string",
          "name": "birthday",
          "type": "string"
        },
        {
          "internalType": "string",
          "name": "personalID",
          "type": "string"
        }
      ],
      "name": "registerDID",
      "outputs": [],
      "stateMutability": "nonpayable",
      "type": "function"
    },
    {
      "inputs": [
        {
          "internalType": "string",
          "name": "did",
          "type": "string"
        },
        {
          "internalType": "string",
          "name": "newName",
          "type": "string"
        },
        {
          "internalType": "string",
          "name": "newBirthday",
          "type": "string"
        },
        {
          "internalType": "string",
          "name": "newPersonalID",
          "type": "string"
        }
      ],
      "name": "updateDID",
      "outputs": [],
      "stateMutability": "nonpayable",
      "type": "function"
    }
  ],
  "bytecode": "0x6080604052348015600f57600080fd5b506118098061001f6000396000f3fe608060405234801561001057600080fd5b506004361061007d5760003560e01c80633b253b231161005b5780633b253b23146100ec578063720127fa14610108578063766ebdaf1461013d578063e857f1801461016d5761007d565b80631de3f1dc1461008257806337affd80146100b2578063390fe3e4146100d0575b600080fd5b61009c60048036038101906100979190610da5565b610189565b6040516100a99190610e09565b60405180910390f35b6100ba610203565b6040516100c79190610e3d565b60405180910390f35b6100ea60048036038101906100e59190610e58565b610210565b005b61010660048036038101906101019190610da5565b610471565b005b610122600480360381019061011d9190610da5565b61061a565b60405161013496959493929190610fef565b60405180910390f35b61015760048036038101906101529190611091565b610928565b60405161016491906110be565b60405180910390f35b61018760048036038101906101829190610e58565b610a1f565b005b60008073ffffffffffffffffffffffffffffffffffffffff166000836040516101b2919061111c565b908152602001604051809103902060000160009054906101000a900473ffffffffffffffffffffffffffffffffffffffff1673ffffffffffffffffffffffffffffffffffffffff1614159050919050565b6000600180549050905090565b600073ffffffffffffffffffffffffffffffffffffffff16600085604051610238919061111c565b908152602001604051809103902060000160009054906101000a900473ffffffffffffffffffffffffffffffffffffffff1673ffffffffffffffffffffffffffffffffffffffff16146102c0576040517f08c379a00000000000000000000000000000000000000000000000000000000081526004016102b79061117f565b60405180910390fd5b60006040518060c001604052803373ffffffffffffffffffffffffffffffffffffffff1681526020018581526020018481526020018381526020014281526020016001151581525090508060008660405161031b919061111c565b908152602001604051809103902060008201518160000160006101000a81548173ffffffffffffffffffffffffffffffffffffffff021916908373ffffffffffffffffffffffffffffffffffffffff160217905550602082015181600101908161038591906113ab565b50604082015181600201908161039b91906113ab565b5060608201518160030190816103b191906113ab565b506080820151816004015560a08201518160050160006101000a81548160ff02191690831515021790555090505060018590806001815401808255809150506001900390600052602060002001600090919091909150908161041391906113ab565b503373ffffffffffffffffffffffffffffffffffffffff167fdce377b902ffb055074ef6c79cb6fedc8f075c596c8f5c9de32e14311d985550868686864260405161046295949392919061147d565b60405180910390a25050505050565b3373ffffffffffffffffffffffffffffffffffffffff16600082604051610498919061111c565b908152602001604051809103902060000160009054906101000a900473ffffffffffffffffffffffffffffffffffffffff1673ffffffffffffffffffffffffffffffffffffffff1614610520576040517f08c379a000000000000000000000000000000000000000000000000000000000815260040161051790611538565b60405180910390fd5b600081604051610530919061111c565b908152602001604051809103902060050160009054906101000a900460ff1661058e576040517f08c379a0000000000000000000000000000000000000000000000000000000008152600401610585906115a4565b60405180910390fd5b6000808260405161059f919061111c565b908152602001604051809103902060050160006101000a81548160ff0219169083151502179055503373ffffffffffffffffffffffffffffffffffffffff167f7a51a12bb8efda1cce04348e0f68fd6b2549cc800e1e3cc44a4831177b1cd64f824260405161060f9291906115c4565b60405180910390a250565b6000606080606060008060008088604051610635919061111c565b90815260200160405180910390206040518060c00160405290816000820160009054906101000a900473ffffffffffffffffffffffffffffffffffffffff1673ffffffffffffffffffffffffffffffffffffffff1673ffffffffffffffffffffffffffffffffffffffff1681526020016001820180546106b4906111ce565b80601f01602080910402602001604051908101604052809291908181526020018280546106e0906111ce565b801561072d5780601f106107025761010080835404028352916020019161072d565b820191906000526020600020905b81548152906001019060200180831161071057829003601f168201915b50505050508152602001600282018054610746906111ce565b80601f0160208091040260200160405190810160405280929190818152602001828054610772906111ce565b80156107bf5780601f10610794576101008083540402835291602001916107bf565b820191906000526020600020905b8154815290600101906020018083116107a257829003601f168201915b505050505081526020016003820180546107d8906111ce565b80601f0160208091040260200160405190810160405280929190818152602001828054610804906111ce565b80156108515780601f1061082657610100808354040283529160200191610851565b820191906000526020600020905b81548152906001019060200180831161083457829003601f168201915b50505050508152602001600482015481526020016005820160009054906101000a900460ff1615151515815250509050600073ffffffffffffffffffffffffffffffffffffffff16816000015173ffffffffffffffffffffffffffffffffffffffff16036108f4576040517f08c379a00000000000000000000000000000000000000000000000000000000081526004016108eb90611640565b60405180910390fd5b806000015181602001518260400151836060015184608001518560a001519650965096509650965096505091939550919395565b60606001805490508210610971576040517f08c379a0000000000000000000000000000000000000000000000000000000008152600401610968906116ac565b60405180910390fd5b60018281548110610985576109846116cc565b5b90600052602060002001805461099a906111ce565b80601f01602080910402602001604051908101604052809291908181526020018280546109c6906111ce565b8015610a135780601f106109e857610100808354040283529160200191610a13565b820191906000526020600020905b8154815290600101906020018083116109f657829003601f168201915b50505050509050919050565b3373ffffffffffffffffffffffffffffffffffffffff16600085604051610a46919061111c565b908152602001604051809103902060000160009054906101000a900473ffffffffffffffffffffffffffffffffffffffff1673ffffffffffffffffffffffffffffffffffffffff1614610ace576040517f08c379a0000000000000000000000000000000000000000000000000000000008152600401610ac590611747565b60405180910390fd5b600084604051610ade919061111c565b908152602001604051809103902060050160009054906101000a900460ff16610b3c576040517f08c379a0000000000000000000000000000000000000000000000000000000008152600401610b33906117b3565b60405180910390fd5b82600085604051610b4d919061111c565b90815260200160405180910390206001019081610b6a91906113ab565b5081600085604051610b7c919061111c565b90815260200160405180910390206002019081610b9991906113ab565b5080600085604051610bab919061111c565b90815260200160405180910390206003019081610bc891906113ab565b5042600085604051610bda919061111c565b9081526020016040518091039020600401819055503373ffffffffffffffffffffffffffffffffffffffff167f389d5efe180a1dd51befaaa06c03610254b8723abdd405ed7ee59233b2012e3b8585858542604051610c3d95949392919061147d565b60405180910390a250505050565b6000604051905090565b600080fd5b600080fd5b600080fd5b600080fd5b6000601f19601f8301169050919050565b7f4e487b7100000000000000000000000000000000000000000000000000000000600052604160045260246000fd5b610cb282610c69565b810181811067ffffffffffffffff82111715610cd157610cd0610c7a565b5b80604052505050565b6000610ce4610c4b565b9050610cf08282610ca9565b919050565b600067ffffffffffffffff821115610d1057610d0f610c7a565b5b610d1982610c69565b9050602081019050919050565b82818337600083830152505050565b6000610d48610d4384610cf5565b610cda565b905082815260208101848484011115610d6457610d63610c64565b5b610d6f848285610d26565b509392505050565b600082601f830112610d8c57610d8b610c5f565b5b8135610d9c848260208601610d35565b91505092915050565b600060208284031215610dbb57610dba610c55565b5b600082013567ffffffffffffffff811115610dd957610dd8610c5a565b5b610de584828501610d77565b91505092915050565b60008115159050919050565b610e0381610dee565b82525050565b6000602082019050610e1e6000830184610dfa565b92915050565b6000819050919050565b610e3781610e24565b82525050565b6000602082019050610e526000830184610e2e565b92915050565b60008060008060808587031215610e7257610e71610c55565b5b600085013567ffffffffffffffff811115610e9057610e8f610c5a565b5b610e9c87828801610d77565b945050602085013567ffffffffffffffff811115610ebd57610ebc610c5a565b5b610ec987828801610d77565b935050604085013567ffffffffffffffff811115610eea57610ee9610c5a565b5b610ef687828801610d77565b925050606085013567ffffffffffffffff811115610f1757610f16610c5a565b5b610f2387828801610d77565b91505092959194509250565b600073ffffffffffffffffffffffffffffffffffffffff82169050919050565b6000610f5a82610f2f565b9050919050565b610f6a81610f4f565b82525050565b600081519050919050565b600082825260208201905092915050565b60005b83811015610faa578082015181840152602081019050610f8f565b60008484015250505050565b6000610fc182610f70565b610fcb8185610f7b565b9350610fdb818560208601610f8c565b610fe481610c69565b840191505092915050565b600060c0820190506110046000830189610f61565b81810360208301526110168188610fb6565b9050818103604083015261102a8187610fb6565b9050818103606083015261103e8186610fb6565b905061104d6080830185610e2e565b61105a60a0830184610dfa565b979650505050505050565b61106e81610e24565b811461107957600080fd5b50565b60008135905061108b81611065565b92915050565b6000602082840312156110a7576110a6610c55565b5b60006110b58482850161107c565b91505092915050565b600060208201905081810360008301526110d88184610fb6565b905092915050565b600081905092915050565b60006110f682610f70565b61110081856110e0565b9350611110818560208601610f8c565b80840191505092915050565b600061112882846110eb565b915081905092915050565b7f44494420616c7265616479207265676973746572656400000000000000000000600082015250565b6000611169601683610f7b565b915061117482611133565b602082019050919050565b600060208201905081810360008301526111988161115c565b9050919050565b7f4e487b7100000000000000000000000000000000000000000000000000000000600052602260045260246000fd5b600060028204905060018216806111e657607f821691505b6020821081036111f9576111f861119f565b5b50919050565b60008190508160005260206000209050919050565b60006020601f8301049050919050565b600082821b905092915050565b6000600883026112617fffffffffffffffffffffffffffffffffffffffffffffffffffffffffffffffff82611224565b61126b8683611224565b95508019841693508086168417925050509392505050565b6000819050919050565b60006112a86112a361129e84610e24565b611283565b610e24565b9050919050565b6000819050919050565b6112c28361128d565b6112d66112ce826112af565b848454611231565b825550505050565b600090565b6112eb6112de565b6112f68184846112b9565b505050565b5b8181101561131a5761130f6000826112e3565b6001810190506112fc565b5050565b601f82111561135f57611330816111ff565b61133984611214565b81016020851015611348578190505b61135c61135485611214565b8301826112fb565b50505b505050565b600082821c905092915050565b600061138260001984600802611364565b1980831691505092915050565b600061139b8383611371565b9150826002028217905092915050565b6113b482610f70565b67ffffffffffffffff8111156113cd576113cc610c7a565b5b6113d782546111ce565b6113e282828561131e565b600060209050601f8311600181146114155760008415611403578287015190505b61140d858261138f565b865550611475565b601f198416611423866111ff565b60005b8281101561144b57848901518255600182019150602085019450602081019050611426565b868310156114685784890151611464601f891682611371565b8355505b6001600288020188555050505b505050505050565b600060a08201905081810360008301526114978188610fb6565b905081810360208301526114ab8187610fb6565b905081810360408301526114bf8186610fb6565b905081810360608301526114d38185610fb6565b90506114e26080830184610e2e565b9695505050505050565b7f4f6e6c79206f776e65722063616e206465616374697661746520444944000000600082015250565b6000611522601d83610f7b565b915061152d826114ec565b602082019050919050565b6000602082019050818103600083015261155181611515565b9050919050565b7f44494420697320616c726561647920696e616374697665000000000000000000600082015250565b600061158e601783610f7b565b915061159982611558565b602082019050919050565b600060208201905081810360008301526115bd81611581565b9050919050565b600060408201905081810360008301526115de8185610fb6565b90506115ed6020830184610e2e565b9392505050565b7f444944206e6f7420726567697374657265640000000000000000000000000000600082015250565b600061162a601283610f7b565b9150611635826115f4565b602082019050919050565b600060208201905081810360008301526116598161161d565b9050919050565b7f496e646578206f7574206f6620626f756e647300000000000000000000000000600082015250565b6000611696601383610f7b565b91506116a182611660565b602082019050919050565b600060208201905081810360008301526116c581611689565b9050919050565b7f4e487b7100000000000000000000000000000000000000000000000000000000600052603260045260246000fd5b7f4f6e6c79206f776e65722063616e207570646174652044494400000000000000600082015250565b6000611731601983610f7b565b915061173c826116fb565b602082019050919050565b6000602082019050818103600083015261176081611724565b9050919050565b7f444944206973206e6f7420616374697665000000000000000000000000000000600082015250565b600061179d601183610f7b565b91506117a882611767565b602082019050919050565b600060208201905081810360008301526117cc81611790565b905091905056fea26469706673582212206adc08620d406a7e92f21d0b76f2b1b6e87586425a49ee2b9ac3c16671c3475264736f6c634300081c0033",
  "linkReferences": {},
  "deployedLinkReferences": {}
}