{
  "_format": "hh-sol-artifact-1",
  "contractName": "DIDRegistry",
  "sourceName": "contracts/DIDRegistry.sol",
  "abi": [
    {
      "anonymous": false,
      "inputs": [
        {
          "indexed": true,
          "internalType": "string",
          "name": "did",
          "type": "string"
        },
        {
          "indexed": false,
          "internalType": "string",
          "name": "controller",
          "type": "string"
        }
      ],
      "name": "DIDCreated",
      "type": "event"
    },
    {
      "anonymous": false,
      "inputs": [
        {
          "indexed": false,
          "internalType": "string[]",
          "name": "dids",
          "type": "string[]"
        }
      ],
      "name": "DIDListUpdated",
      "type": "event"
    },
    {
      "anonymous": false,
      "inputs": [
        {
          "indexed": true,
          "internalType": "string",
          "name": "did",
          "type": "string"
        },
        {
          "indexed": true,
          "internalType": "address",
          "name": "contractAddress",
          "type": "address"
        }
      ],
      "name": "DIDRegistered",
      "type": "event"
    },
    {
      "anonymous": false,
      "inputs": [
        {
          "indexed": true,
          "internalType": "string",
          "name": "did",
          "type": "string"
        },
        {
          "indexed": false,
          "internalType": "string",
          "name": "data",
          "type": "string"
        }
      ],
      "name": "DataStored",
      "type": "event"
    },
    {
      "inputs": [
        {
          "internalType": "uint256",
          "name": "",
          "type": "uint256"
        }
      ],
      "name": "accounts",
      "outputs": [
        {
          "internalType": "address",
          "name": "",
          "type": "address"
        }
      ],
      "stateMutability": "view",
      "type": "function"
    },
    {
      "inputs": [
        {
          "internalType": "string",
          "name": "did",
          "type": "string"
        },
        {
          "internalType": "string",
          "name": "controller",
          "type": "string"
        },
        {
          "internalType": "string",
          "name": "publicKeys",
          "type": "string"
        },
        {
          "internalType": "string",
          "name": "services",
          "type": "string"
        }
      ],
      "name": "createDID",
      "outputs": [],
      "stateMutability": "nonpayable",
      "type": "function"
    },
    {
      "inputs": [
        {
          "internalType": "string",
          "name": "did",
          "type": "string"
        }
      ],
      "name": "didExists",
      "outputs": [
        {
          "internalType": "bool",
          "name": "",
          "type": "bool"
        }
      ],
      "stateMutability": "view",
      "type": "function"
    },
    {
      "inputs": [],
      "name": "getAllAccounts",
      "outputs": [
        {
          "internalType": "address[]",
          "name": "",
          "type": "address[]"
        }
      ],
      "stateMutability": "view",
      "type": "function"
    },
    {
      "inputs": [],
      "name": "getAllDIDs",
      "outputs": [
        {
          "internalType": "string[]",
          "name": "",
          "type": "string[]"
        }
      ],
      "stateMutability": "view",
      "type": "function"
    },
    {
      "inputs": [
        {
          "internalType": "string",
          "name": "did",
          "type": "string"
        }
      ],
      "name": "getDIDDocument",
      "outputs": [
        {
          "internalType": "string",
          "name": "id",
          "type": "string"
        },
        {
          "internalType": "string",
          "name": "controller",
          "type": "string"
        },
        {
          "internalType": "string",
          "name": "publicKeys",
          "type": "string"
        },
        {
          "internalType": "string",
          "name": "services",
          "type": "string"
        }
      ],
      "stateMutability": "view",
      "type": "function"
    },
    {
      "inputs": [
        {
          "internalType": "string",
          "name": "did",
          "type": "string"
        }
      ],
      "name": "getStoredData",
      "outputs": [
        {
          "internalType": "string",
          "name": "",
          "type": "string"
        }
      ],
      "stateMutability": "view",
      "type": "function"
    },
    {
      "inputs": [
        {
          "internalType": "string",
          "name": "did",
          "type": "string"
        }
      ],
      "name": "hasDIDDocument",
      "outputs": [
        {
          "internalType": "bool",
          "name": "",
          "type": "bool"
        }
      ],
      "stateMutability": "view",
      "type": "function"
    },
    {
      "inputs": [
        {
          "internalType": "address",
          "name": "account",
          "type": "address"
        }
      ],
      "name": "registerAccount",
      "outputs": [],
      "stateMutability": "nonpayable",
      "type": "function"
    },
    {
      "inputs": [
        {
          "internalType": "string",
          "name": "did",
          "type": "string"
        }
      ],
      "name": "registerDID",
      "outputs": [],
      "stateMutability": "nonpayable",
      "type": "function"
    },
    {
      "inputs": [
        {
          "internalType": "address",
          "name": "",
          "type": "address"
        }
      ],
      "name": "registeredAccounts",
      "outputs": [
        {
          "internalType": "bool",
          "name": "",
          "type": "bool"
        }
      ],
      "stateMutability": "view",
      "type": "function"
    },
    {
      "inputs": [
        {
          "internalType": "string",
          "name": "did",
          "type": "string"
        },
        {
          "internalType": "string",
          "name": "data",
          "type": "string"
        }
      ],
      "name": "storeData",
      "outputs": [],
      "stateMutability": "nonpayable",
      "type": "function"
    }
  ],
  "bytecode": "0x6080604052348015600f57600080fd5b50611e0b8061001f6000396000f3fe608060405234801561001057600080fd5b50600436106100b45760003560e01c806397c414df1161007157806397c414df14610190578063ade53cf8146101ac578063d493cb77146101c8578063d8fa638d146101f8578063f2a40db814610228578063f92959f014610258576100b4565b806308e93d0a146100b957806320dd57a9146100d75780634c95303a146101075780634ece5b4c14610125578063570810e214610141578063784afc4e1461015d575b600080fd5b6100c1610288565b6040516100ce9190610f0c565b60405180910390f35b6100f160048036038101906100ec9190611088565b610316565b6040516100fe91906110ec565b60405180910390f35b61010f610328565b60405161011c9190611248565b60405180910390f35b61013f600480360381019061013a919061126a565b610401565b005b61015b60048036038101906101569190611088565b61050a565b005b61017760048036038101906101729190611088565b6105ae565b604051610187949392919061132c565b60405180910390f35b6101aa60048036038101906101a591906113b9565b6108af565b005b6101c660048036038101906101c191906113e6565b6109fa565b005b6101e260048036038101906101dd9190611088565b610c4e565b6040516101ef91906110ec565b60405180910390f35b610212600480360381019061020d91906113b9565b610cc5565b60405161021f91906110ec565b60405180910390f35b610242600480360381019061023d91906114f3565b610ce5565b60405161024f919061152f565b60405180910390f35b610272600480360381019061026d9190611088565b610d24565b60405161027f919061154a565b60405180910390f35b6060600380548060200260200160405190810160405280929190818152602001828054801561030c57602002820191906000526020600020905b8160009054906101000a900473ffffffffffffffffffffffffffffffffffffffff1673ffffffffffffffffffffffffffffffffffffffff16815260200190600101908083116102c2575b5050505050905090565b600061032182610c4e565b9050919050565b60606004805480602002602001604051908101604052809291908181526020016000905b828210156103f857838290600052602060002001805461036b9061159b565b80601f01602080910402602001604051908101604052809291908181526020018280546103979061159b565b80156103e45780601f106103b9576101008083540402835291602001916103e4565b820191906000526020600020905b8154815290600101906020018083116103c757829003601f168201915b50505050508152602001906001019061034c565b50505050905090565b61040a82610c4e565b610449576040517f08c379a000000000000000000000000000000000000000000000000000000000815260040161044090611618565b60405180910390fd5b600081511161048d576040517f08c379a000000000000000000000000000000000000000000000000000000000815260040161048490611684565b60405180910390fd5b8060018360405161049e91906116e0565b908152602001604051809103902090816104b891906118a3565b50816040516104c791906116e0565b60405180910390207f4d29b7f0ee29fd19bc5c40e7a45531c8498ce1293f4c3f7f42518934235f36ed826040516104fe919061154a565b60405180910390a25050565b61051381610c4e565b610552576040517f08c379a0000000000000000000000000000000000000000000000000000000008152600401610549906119c1565b60405180910390fd5b3373ffffffffffffffffffffffffffffffffffffffff168160405161057791906116e0565b60405180910390207fd59e4d670f6e249831d6f8ce560f47ced54b3f4203e2d0050dc495fd6b919dd260405160405180910390a350565b6060806060806105bd85610c4e565b6105fc576040517f08c379a00000000000000000000000000000000000000000000000000000000081526004016105f3906119c1565b60405180910390fd5b6000808660405161060d91906116e0565b90815260200160405180910390206040518060a00160405290816000820180546106369061159b565b80601f01602080910402602001604051908101604052809291908181526020018280546106629061159b565b80156106af5780601f10610684576101008083540402835291602001916106af565b820191906000526020600020905b81548152906001019060200180831161069257829003601f168201915b505050505081526020016001820180546106c89061159b565b80601f01602080910402602001604051908101604052809291908181526020018280546106f49061159b565b80156107415780601f1061071657610100808354040283529160200191610741565b820191906000526020600020905b81548152906001019060200180831161072457829003601f168201915b5050505050815260200160028201805461075a9061159b565b80601f01602080910402602001604051908101604052809291908181526020018280546107869061159b565b80156107d35780601f106107a8576101008083540402835291602001916107d3565b820191906000526020600020905b8154815290600101906020018083116107b657829003601f168201915b505050505081526020016003820180546107ec9061159b565b80601f01602080910402602001604051908101604052809291908181526020018280546108189061159b565b80156108655780601f1061083a57610100808354040283529160200191610865565b820191906000526020600020905b81548152906001019060200180831161084857829003601f168201915b505050505081526020016004820160009054906101000a900460ff161515151581525050905080600001518160200151826040015183606001519450945094509450509193509193565b600260008273ffffffffffffffffffffffffffffffffffffffff1673ffffffffffffffffffffffffffffffffffffffff16815260200190815260200160002060009054906101000a900460ff161561093c576040517f08c379a000000000000000000000000000000000000000000000000000000000815260040161093390611a2d565b60405180910390fd5b6001600260008373ffffffffffffffffffffffffffffffffffffffff1673ffffffffffffffffffffffffffffffffffffffff16815260200190815260200160002060006101000a81548160ff0219169083151502179055506003819080600181540180825580915050600190039060005260206000200160009091909190916101000a81548173ffffffffffffffffffffffffffffffffffffffff021916908373ffffffffffffffffffffffffffffffffffffffff16021790555050565b610a0384610c4e565b15610a43576040517f08c379a0000000000000000000000000000000000000000000000000000000008152600401610a3a90611a99565b60405180910390fd5b6000845111610a87576040517f08c379a0000000000000000000000000000000000000000000000000000000008152600401610a7e90611b05565b60405180910390fd5b6000835111610acb576040517f08c379a0000000000000000000000000000000000000000000000000000000008152600401610ac290611b71565b60405180910390fd5b6040518060a0016040528085815260200184815260200183815260200182815260200160011515815250600085604051610b0591906116e0565b90815260200160405180910390206000820151816000019081610b2891906118a3565b506020820151816001019081610b3e91906118a3565b506040820151816002019081610b5491906118a3565b506060820151816003019081610b6a91906118a3565b5060808201518160040160006101000a81548160ff021916908315150217905550905050600484908060018154018082558091505060019003906000526020600020016000909190919091509081610bc291906118a3565b5083604051610bd191906116e0565b60405180910390207f15a910d2efaf7349f437c783d73a5fc8330afad390e19ac0d6bebd5ebe1301ee84604051610c08919061154a565b60405180910390a27f75ad01c9a06fac19e88e8ddaf8b828b83be0b7456ac46b55eeee92f1b53290246004604051610c409190611cca565b60405180910390a150505050565b600080600090505b600480549050811015610cba57828051906020012060048281548110610c7f57610c7e611cec565b5b90600052602060002001604051610c969190611dbe565b604051809103902003610cad576001915050610cc0565b8080600101915050610c56565b50600090505b919050565b60026020528060005260406000206000915054906101000a900460ff1681565b60038181548110610cf557600080fd5b906000526020600020016000915054906101000a900473ffffffffffffffffffffffffffffffffffffffff1681565b6060610d2f82610c4e565b610d6e576040517f08c379a0000000000000000000000000000000000000000000000000000000008152600401610d6590611618565b60405180910390fd5b600182604051610d7e91906116e0565b90815260200160405180910390208054610d979061159b565b80601f0160208091040260200160405190810160405280929190818152602001828054610dc39061159b565b8015610e105780601f10610de557610100808354040283529160200191610e10565b820191906000526020600020905b815481529060010190602001808311610df357829003601f168201915b50505050509050919050565b600081519050919050565b600082825260208201905092915050565b6000819050602082019050919050565b600073ffffffffffffffffffffffffffffffffffffffff82169050919050565b6000610e7382610e48565b9050919050565b610e8381610e68565b82525050565b6000610e958383610e7a565b60208301905092915050565b6000602082019050919050565b6000610eb982610e1c565b610ec38185610e27565b9350610ece83610e38565b8060005b83811015610eff578151610ee68882610e89565b9750610ef183610ea1565b925050600181019050610ed2565b5085935050505092915050565b60006020820190508181036000830152610f268184610eae565b905092915050565b6000604051905090565b600080fd5b600080fd5b600080fd5b600080fd5b6000601f19601f8301169050919050565b7f4e487b7100000000000000000000000000000000000000000000000000000000600052604160045260246000fd5b610f9582610f4c565b810181811067ffffffffffffffff82111715610fb457610fb3610f5d565b5b80604052505050565b6000610fc7610f2e565b9050610fd38282610f8c565b919050565b600067ffffffffffffffff821115610ff357610ff2610f5d565b5b610ffc82610f4c565b9050602081019050919050565b82818337600083830152505050565b600061102b61102684610fd8565b610fbd565b90508281526020810184848401111561104757611046610f47565b5b611052848285611009565b509392505050565b600082601f83011261106f5761106e610f42565b5b813561107f848260208601611018565b91505092915050565b60006020828403121561109e5761109d610f38565b5b600082013567ffffffffffffffff8111156110bc576110bb610f3d565b5b6110c88482850161105a565b91505092915050565b60008115159050919050565b6110e6816110d1565b82525050565b600060208201905061110160008301846110dd565b92915050565b600081519050919050565b600082825260208201905092915050565b6000819050602082019050919050565b600081519050919050565b600082825260208201905092915050565b60005b8381101561116d578082015181840152602081019050611152565b60008484015250505050565b600061118482611133565b61118e818561113e565b935061119e81856020860161114f565b6111a781610f4c565b840191505092915050565b60006111be8383611179565b905092915050565b6000602082019050919050565b60006111de82611107565b6111e88185611112565b9350836020820285016111fa85611123565b8060005b85811015611236578484038952815161121785826111b2565b9450611222836111c6565b925060208a019950506001810190506111fe565b50829750879550505050505092915050565b6000602082019050818103600083015261126281846111d3565b905092915050565b6000806040838503121561128157611280610f38565b5b600083013567ffffffffffffffff81111561129f5761129e610f3d565b5b6112ab8582860161105a565b925050602083013567ffffffffffffffff8111156112cc576112cb610f3d565b5b6112d88582860161105a565b9150509250929050565b600082825260208201905092915050565b60006112fe82611133565b61130881856112e2565b935061131881856020860161114f565b61132181610f4c565b840191505092915050565b6000608082019050818103600083015261134681876112f3565b9050818103602083015261135a81866112f3565b9050818103604083015261136e81856112f3565b9050818103606083015261138281846112f3565b905095945050505050565b61139681610e68565b81146113a157600080fd5b50565b6000813590506113b38161138d565b92915050565b6000602082840312156113cf576113ce610f38565b5b60006113dd848285016113a4565b91505092915050565b60008060008060808587031215611400576113ff610f38565b5b600085013567ffffffffffffffff81111561141e5761141d610f3d565b5b61142a8782880161105a565b945050602085013567ffffffffffffffff81111561144b5761144a610f3d565b5b6114578782880161105a565b935050604085013567ffffffffffffffff81111561147857611477610f3d565b5b6114848782880161105a565b925050606085013567ffffffffffffffff8111156114a5576114a4610f3d565b5b6114b18782880161105a565b91505092959194509250565b6000819050919050565b6114d0816114bd565b81146114db57600080fd5b50565b6000813590506114ed816114c7565b92915050565b60006020828403121561150957611508610f38565b5b6000611517848285016114de565b91505092915050565b61152981610e68565b82525050565b60006020820190506115446000830184611520565b92915050565b6000602082019050818103600083015261156481846112f3565b905092915050565b7f4e487b7100000000000000000000000000000000000000000000000000000000600052602260045260246000fd5b600060028204905060018216806115b357607f821691505b6020821081036115c6576115c561156c565b5b50919050565b7f44494420646f6573206e6f742065786973740000000000000000000000000000600082015250565b60006116026012836112e2565b915061160d826115cc565b602082019050919050565b60006020820190508181036000830152611631816115f5565b9050919050565b7f446174612063616e6e6f7420626520656d707479000000000000000000000000600082015250565b600061166e6014836112e2565b915061167982611638565b602082019050919050565b6000602082019050818103600083015261169d81611661565b9050919050565b600081905092915050565b60006116ba82611133565b6116c481856116a4565b93506116d481856020860161114f565b80840191505092915050565b60006116ec82846116af565b915081905092915050565b60008190508160005260206000209050919050565b60006020601f8301049050919050565b600082821b905092915050565b6000600883026117597fffffffffffffffffffffffffffffffffffffffffffffffffffffffffffffffff8261171c565b611763868361171c565b95508019841693508086168417925050509392505050565b6000819050919050565b60006117a061179b611796846114bd565b61177b565b6114bd565b9050919050565b6000819050919050565b6117ba83611785565b6117ce6117c6826117a7565b848454611729565b825550505050565b600090565b6117e36117d6565b6117ee8184846117b1565b505050565b5b81811015611812576118076000826117db565b6001810190506117f4565b5050565b601f82111561185757611828816116f7565b6118318461170c565b81016020851015611840578190505b61185461184c8561170c565b8301826117f3565b50505b505050565b600082821c905092915050565b600061187a6000198460080261185c565b1980831691505092915050565b60006118938383611869565b9150826002028217905092915050565b6118ac82611133565b67ffffffffffffffff8111156118c5576118c4610f5d565b5b6118cf825461159b565b6118da828285611816565b600060209050601f83116001811461190d57600084156118fb578287015190505b6119058582611887565b86555061196d565b601f19841661191b866116f7565b60005b828110156119435784890151825560018201915060208501945060208101905061191e565b86831015611960578489015161195c601f891682611869565b8355505b6001600288020188555050505b505050505050565b7f44494420646f63756d656e7420646f6573206e6f742065786973740000000000600082015250565b60006119ab601b836112e2565b91506119b682611975565b602082019050919050565b600060208201905081810360008301526119da8161199e565b9050919050565b7f4163636f756e7420616c72656164792072656769737465726564000000000000600082015250565b6000611a17601a836112e2565b9150611a22826119e1565b602082019050919050565b60006020820190508181036000830152611a4681611a0a565b9050919050565b7f44494420616c7265616479206578697374730000000000000000000000000000600082015250565b6000611a836012836112e2565b9150611a8e82611a4d565b602082019050919050565b60006020820190508181036000830152611ab281611a76565b9050919050565b7f4449442063616e6e6f7420626520656d70747900000000000000000000000000600082015250565b6000611aef6013836112e2565b9150611afa82611ab9565b602082019050919050565b60006020820190508181036000830152611b1e81611ae2565b9050919050565b7f436f6e74726f6c6c65722063616e6e6f7420626520656d707479000000000000600082015250565b6000611b5b601a836112e2565b9150611b6682611b25565b602082019050919050565b60006020820190508181036000830152611b8a81611b4e565b9050919050565b600081549050919050565b60008190508160005260206000209050919050565b60008154611bbe8161159b565b611bc8818661113e565b94506001821660008114611be35760018114611bf957611c2c565b60ff198316865281151560200286019350611c2c565b611c02856116f7565b60005b83811015611c2457815481890152600182019150602081019050611c05565b808801955050505b50505092915050565b6000611c418383611bb1565b905092915050565b6000600182019050919050565b6000611c6182611b91565b611c6b8185611112565b935083602082028501611c7d85611b9c565b8060005b85811015611cb857848403895281611c998582611c35565b9450611ca483611c49565b925060208a01995050600181019050611c81565b50829750879550505050505092915050565b60006020820190508181036000830152611ce48184611c56565b905092915050565b7f4e487b7100000000000000000000000000000000000000000000000000000000600052603260045260246000fd5b600081905092915050565b60008190508160005260206000209050919050565b60008154611d488161159b565b611d528186611d1b565b94506001821660008114611d6d5760018114611d8257611db5565b60ff1983168652811515820286019350611db5565b611d8b85611d26565b60005b83811015611dad57815481890152600182019150602081019050611d8e565b838801955050505b50505092915050565b6000611dca8284611d3b565b91508190509291505056fea26469706673582212205c44d8548ab9b3f825378e1fe091c985b798712c60539b5e475589f924e51ae764736f6c634300081c0033",
  "linkReferences": {},
  "deployedLinkReferences": {}
}