{
  "_format": "hh-sol-artifact-1",
  "contractName": "DIDRegistry",
  "sourceName": "contracts/DIDRegistry.sol",
  "abi": [
    {
      "anonymous": false,
      "inputs": [
        {
          "indexed": true,
          "internalType": "string",
          "name": "did",
          "type": "string"
        },
        {
          "indexed": false,
          "internalType": "string",
          "name": "controller",
          "type": "string"
        }
      ],
      "name": "DIDCreated",
      "type": "event"
    },
    {
      "anonymous": false,
      "inputs": [
        {
          "indexed": true,
          "internalType": "string",
          "name": "did",
          "type": "string"
        },
        {
          "indexed": true,
          "internalType": "address",
          "name": "contractAddress",
          "type": "address"
        }
      ],
      "name": "DIDRegistered",
      "type": "event"
    },
    {
      "inputs": [
        {
          "internalType": "string",
          "name": "did",
          "type": "string"
        },
        {
          "internalType": "string",
          "name": "controller",
          "type": "string"
        },
        {
          "internalType": "string",
          "name": "publicKeys",
          "type": "string"
        },
        {
          "internalType": "string",
          "name": "services",
          "type": "string"
        }
      ],
      "name": "createDID",
      "outputs": [],
      "stateMutability": "nonpayable",
      "type": "function"
    },
    {
      "inputs": [
        {
          "internalType": "string",
          "name": "did",
          "type": "string"
        }
      ],
      "name": "didExists",
      "outputs": [
        {
          "internalType": "bool",
          "name": "",
          "type": "bool"
        }
      ],
      "stateMutability": "view",
      "type": "function"
    },
    {
      "inputs": [
        {
          "internalType": "string",
          "name": "did",
          "type": "string"
        }
      ],
      "name": "getDIDContract",
      "outputs": [
        {
          "internalType": "address",
          "name": "",
          "type": "address"
        }
      ],
      "stateMutability": "view",
      "type": "function"
    },
    {
      "inputs": [
        {
          "internalType": "string",
          "name": "did",
          "type": "string"
        }
      ],
      "name": "getDIDDocument",
      "outputs": [
        {
          "internalType": "string",
          "name": "id",
          "type": "string"
        },
        {
          "internalType": "string",
          "name": "controller",
          "type": "string"
        },
        {
          "internalType": "string",
          "name": "publicKeys",
          "type": "string"
        },
        {
          "internalType": "string",
          "name": "services",
          "type": "string"
        }
      ],
      "stateMutability": "view",
      "type": "function"
    },
    {
      "inputs": [
        {
          "internalType": "string",
          "name": "did",
          "type": "string"
        }
      ],
      "name": "hasDIDDocument",
      "outputs": [
        {
          "internalType": "bool",
          "name": "",
          "type": "bool"
        }
      ],
      "stateMutability": "view",
      "type": "function"
    },
    {
      "inputs": [
        {
          "internalType": "string",
          "name": "did",
          "type": "string"
        },
        {
          "internalType": "address",
          "name": "contractAddress",
          "type": "address"
        }
      ],
      "name": "registerDID",
      "outputs": [],
      "stateMutability": "nonpayable",
      "type": "function"
    }
  ],
  "bytecode": "0x6080604052348015600f57600080fd5b506113c78061001f6000396000f3fe608060405234801561001057600080fd5b50600436106100625760003560e01c806320dd57a91461006757806359fa5147146100975780636662666a146100c7578063784afc4e146100e3578063ade53cf814610116578063d493cb7714610132575b600080fd5b610081600480360381019061007c9190610afe565b610162565b60405161008e9190610b62565b60405180910390f35b6100b160048036038101906100ac9190610afe565b6101d9565b6040516100be9190610bbe565b60405180910390f35b6100e160048036038101906100dc9190610c05565b610220565b005b6100fd60048036038101906100f89190610afe565b610400565b60405161010d9493929190610ce0565b60405180910390f35b610130600480360381019061012b9190610d41565b610728565b005b61014c60048036038101906101479190610afe565b61096c565b6040516101599190610b62565b60405180910390f35b60008073ffffffffffffffffffffffffffffffffffffffff1660008360405161018b9190610e54565b908152602001604051809103902060009054906101000a900473ffffffffffffffffffffffffffffffffffffffff1673ffffffffffffffffffffffffffffffffffffffff1614159050919050565b600080826040516101ea9190610e54565b908152602001604051809103902060009054906101000a900473ffffffffffffffffffffffffffffffffffffffff169050919050565b61022982610162565b15610269576040517f08c379a000000000000000000000000000000000000000000000000000000000815260040161026090610eb7565b60405180910390fd5b600073ffffffffffffffffffffffffffffffffffffffff168173ffffffffffffffffffffffffffffffffffffffff16036102d8576040517f08c379a00000000000000000000000000000000000000000000000000000000081526004016102cf90610f23565b60405180910390fd5b6001826040516102e89190610e54565b908152602001604051809103902060040160009054906101000a900460ff16610346576040517f08c379a000000000000000000000000000000000000000000000000000000000815260040161033d90610f8f565b60405180910390fd5b806000836040516103579190610e54565b908152602001604051809103902060006101000a81548173ffffffffffffffffffffffffffffffffffffffff021916908373ffffffffffffffffffffffffffffffffffffffff1602179055508073ffffffffffffffffffffffffffffffffffffffff16826040516103c89190610e54565b60405180910390207fd59e4d670f6e249831d6f8ce560f47ced54b3f4203e2d0050dc495fd6b919dd260405160405180910390a35050565b6060806060806001856040516104169190610e54565b908152602001604051809103902060040160009054906101000a900460ff16610474576040517f08c379a000000000000000000000000000000000000000000000000000000000815260040161046b90610f8f565b60405180910390fd5b60006001866040516104869190610e54565b90815260200160405180910390206040518060a00160405290816000820180546104af90610fde565b80601f01602080910402602001604051908101604052809291908181526020018280546104db90610fde565b80156105285780601f106104fd57610100808354040283529160200191610528565b820191906000526020600020905b81548152906001019060200180831161050b57829003601f168201915b5050505050815260200160018201805461054190610fde565b80601f016020809104026020016040519081016040528092919081815260200182805461056d90610fde565b80156105ba5780601f1061058f576101008083540402835291602001916105ba565b820191906000526020600020905b81548152906001019060200180831161059d57829003601f168201915b505050505081526020016002820180546105d390610fde565b80601f01602080910402602001604051908101604052809291908181526020018280546105ff90610fde565b801561064c5780601f106106215761010080835404028352916020019161064c565b820191906000526020600020905b81548152906001019060200180831161062f57829003601f168201915b5050505050815260200160038201805461066590610fde565b80601f016020809104026020016040519081016040528092919081815260200182805461069190610fde565b80156106de5780601f106106b3576101008083540402835291602001916106de565b820191906000526020600020905b8154815290600101906020018083116106c157829003601f168201915b505050505081526020016004820160009054906101000a900460ff161515151581525050905080600001518160200151826040015183606001519450945094509450509193509193565b61073184610162565b15610771576040517f08c379a000000000000000000000000000000000000000000000000000000000815260040161076890610eb7565b60405180910390fd5b60008451116107b5576040517f08c379a00000000000000000000000000000000000000000000000000000000081526004016107ac9061105b565b60405180910390fd5b60008351116107f9576040517f08c379a00000000000000000000000000000000000000000000000000000000081526004016107f0906110c7565b60405180910390fd5b6040518060a00160405280858152602001848152602001838152602001828152602001600115158152506001856040516108339190610e54565b90815260200160405180910390206000820151816000019081610856919061129d565b50602082015181600101908161086c919061129d565b506040820151816002019081610882919061129d565b506060820151816003019081610898919061129d565b5060808201518160040160006101000a81548160ff021916908315150217905550905050336000856040516108cd9190610e54565b908152602001604051809103902060006101000a81548173ffffffffffffffffffffffffffffffffffffffff021916908373ffffffffffffffffffffffffffffffffffffffff160217905550836040516109279190610e54565b60405180910390207f15a910d2efaf7349f437c783d73a5fc8330afad390e19ac0d6bebd5ebe1301ee8460405161095e919061136f565b60405180910390a250505050565b600060018260405161097e9190610e54565b908152602001604051809103902060040160009054906101000a900460ff169050919050565b6000604051905090565b600080fd5b600080fd5b600080fd5b600080fd5b6000601f19601f8301169050919050565b7f4e487b7100000000000000000000000000000000000000000000000000000000600052604160045260246000fd5b610a0b826109c2565b810181811067ffffffffffffffff82111715610a2a57610a296109d3565b5b80604052505050565b6000610a3d6109a4565b9050610a498282610a02565b919050565b600067ffffffffffffffff821115610a6957610a686109d3565b5b610a72826109c2565b9050602081019050919050565b82818337600083830152505050565b6000610aa1610a9c84610a4e565b610a33565b905082815260208101848484011115610abd57610abc6109bd565b5b610ac8848285610a7f565b509392505050565b600082601f830112610ae557610ae46109b8565b5b8135610af5848260208601610a8e565b91505092915050565b600060208284031215610b1457610b136109ae565b5b600082013567ffffffffffffffff811115610b3257610b316109b3565b5b610b3e84828501610ad0565b91505092915050565b60008115159050919050565b610b5c81610b47565b82525050565b6000602082019050610b776000830184610b53565b92915050565b600073ffffffffffffffffffffffffffffffffffffffff82169050919050565b6000610ba882610b7d565b9050919050565b610bb881610b9d565b82525050565b6000602082019050610bd36000830184610baf565b92915050565b610be281610b9d565b8114610bed57600080fd5b50565b600081359050610bff81610bd9565b92915050565b60008060408385031215610c1c57610c1b6109ae565b5b600083013567ffffffffffffffff811115610c3a57610c396109b3565b5b610c4685828601610ad0565b9250506020610c5785828601610bf0565b9150509250929050565b600081519050919050565b600082825260208201905092915050565b60005b83811015610c9b578082015181840152602081019050610c80565b60008484015250505050565b6000610cb282610c61565b610cbc8185610c6c565b9350610ccc818560208601610c7d565b610cd5816109c2565b840191505092915050565b60006080820190508181036000830152610cfa8187610ca7565b90508181036020830152610d0e8186610ca7565b90508181036040830152610d228185610ca7565b90508181036060830152610d368184610ca7565b905095945050505050565b60008060008060808587031215610d5b57610d5a6109ae565b5b600085013567ffffffffffffffff811115610d7957610d786109b3565b5b610d8587828801610ad0565b945050602085013567ffffffffffffffff811115610da657610da56109b3565b5b610db287828801610ad0565b935050604085013567ffffffffffffffff811115610dd357610dd26109b3565b5b610ddf87828801610ad0565b925050606085013567ffffffffffffffff811115610e0057610dff6109b3565b5b610e0c87828801610ad0565b91505092959194509250565b600081905092915050565b6000610e2e82610c61565b610e388185610e18565b9350610e48818560208601610c7d565b80840191505092915050565b6000610e608284610e23565b915081905092915050565b7f44494420616c7265616479206578697374730000000000000000000000000000600082015250565b6000610ea1601283610c6c565b9150610eac82610e6b565b602082019050919050565b60006020820190508181036000830152610ed081610e94565b9050919050565b7f496e76616c696420636f6e747261637420616464726573730000000000000000600082015250565b6000610f0d601883610c6c565b9150610f1882610ed7565b602082019050919050565b60006020820190508181036000830152610f3c81610f00565b9050919050565b7f44494420646f63756d656e7420646f6573206e6f742065786973740000000000600082015250565b6000610f79601b83610c6c565b9150610f8482610f43565b602082019050919050565b60006020820190508181036000830152610fa881610f6c565b9050919050565b7f4e487b7100000000000000000000000000000000000000000000000000000000600052602260045260246000fd5b60006002820490506001821680610ff657607f821691505b60208210810361100957611008610faf565b5b50919050565b7f4449442063616e6e6f7420626520656d70747900000000000000000000000000600082015250565b6000611045601383610c6c565b91506110508261100f565b602082019050919050565b6000602082019050818103600083015261107481611038565b9050919050565b7f436f6e74726f6c6c65722063616e6e6f7420626520656d707479000000000000600082015250565b60006110b1601a83610c6c565b91506110bc8261107b565b602082019050919050565b600060208201905081810360008301526110e0816110a4565b9050919050565b60008190508160005260206000209050919050565b60006020601f8301049050919050565b600082821b905092915050565b6000600883026111497fffffffffffffffffffffffffffffffffffffffffffffffffffffffffffffffff8261110c565b611153868361110c565b95508019841693508086168417925050509392505050565b6000819050919050565b6000819050919050565b600061119a6111956111908461116b565b611175565b61116b565b9050919050565b6000819050919050565b6111b48361117f565b6111c86111c0826111a1565b848454611119565b825550505050565b600090565b6111dd6111d0565b6111e88184846111ab565b505050565b5b8181101561120c576112016000826111d5565b6001810190506111ee565b5050565b601f82111561125157611222816110e7565b61122b846110fc565b8101602085101561123a578190505b61124e611246856110fc565b8301826111ed565b50505b505050565b600082821c905092915050565b600061127460001984600802611256565b1980831691505092915050565b600061128d8383611263565b9150826002028217905092915050565b6112a682610c61565b67ffffffffffffffff8111156112bf576112be6109d3565b5b6112c98254610fde565b6112d4828285611210565b600060209050601f83116001811461130757600084156112f5578287015190505b6112ff8582611281565b865550611367565b601f198416611315866110e7565b60005b8281101561133d57848901518255600182019150602085019450602081019050611318565b8683101561135a5784890151611356601f891682611263565b8355505b6001600288020188555050505b505050505050565b600060208201905081810360008301526113898184610ca7565b90509291505056fea2646970667358221220152c73525172215f2bdde78647613c4e357ed6d20d41052724dc49a8b767068764736f6c634300081c0033",
  "linkReferences": {},
  "deployedLinkReferences": {}
}